:020000040800F2
:1000000098110320B9010008DB010008A9010008CC
:10001000DF010008E1010008E30100080000000022
:10002000000000000000000000000000E5010008E2
:10003000E701000800000000E9010008F9310008AC
:10004000ED010008ED010008ED010008ED010008D8
:10005000ED010008ED010008D51E0008991F0008F9
:10006000BD1F0008E11F000805200008ED01000881
:10007000ED010008A91C0008ED010008ED010008D1
:10008000ED010008ED010008C9190008ED010008A4
:10009000ED010008ED010008ED010008292000082D
:1000A000ED01000871340008ED010008ED010008C1
:1000B000BD340008E934000819350008ED010008D6
:1000C000ED010008ED010008ED010008ED01000858
:1000D000ED010008C93D0008D53D0008E13D0008DC
:1000E000F91E0008ED010008ED010008ED0100080F
:1000F000D9350008ED010008ED010008ED01000808
:10010000000000000000000049350008ED01000873
:10011000ED010008ED01000879350008A935000857
:10012000ED010008ED010008ED010008ED010008F7
:10013000ED010008ED010008ED010008ED010008E7
:1001400000000000000000000000000000000000AF
:10015000ED010008ED010008ED010008ED010008C7
:10016000ED010008ED010008ED010008ED010008B7
:10017000ED010008ED01000800000000DFF814D0D8
:1001800000F0C6FD00F030F9004800476574020831
:1001900000F063FC98110320EFF308807047EFF341
:1001A00009807047684670477046694616F0BCFC87
:1001B00028F02CFCFEE7000041F20000C2F2000033
:1001C00085460B48804740F20000C0F60000D0F89A
:1001D00000D00848804708480047FEE7FEE7FEE7F2
:1001E000FEE7FEE7FEE7FEE7FEE7FEE7FEE70000CC
:1001F000C9A80108B93200087D0100082DE9F05FA7
:100200000546002092469B46884606468146402485
:100210001BE0284641464746224600F0B4FB5346C1
:100220005A46C01A914110D311461846224600F092
:100230009BFB2D1A67EB01084F4622460120002147
:1002400000F092FB17EB00094E41201EA4F10104BF
:10025000DFDC484631462A464346BDE8F09F0000B1
:1002600000487047941E040810B50446FFF7F8FFD5
:100270000068005D00F0010010BD40EA01039B072B
:1002800003D009E008C9121F08C0042AFAD203E00B
:1002900011F8013B00F8013B521EF9D2704710B52E
:1002A000431A934209D28318881803E010F8011DFD
:1002B00003F8011D521EF9D210BD40EA01039B074D
:1002C00003D009E008C9121F08C0042AFAD203E0CB
:1002D00011F8013B00F8013B521EF9D210BDD2B219
:1002E00001E000F8012B491EFBD270470022F6E71F
:1002F00010B513460A4604461946FFF7F0FF20469C
:1003000010BD421E12F8013F002BFBD111F8013B3A
:1003100002F8013B002BF9D1704730B505462A465B
:100320000B4612F8010B13F8014B08B1A042F8D0AC
:100330001CB1002802D06D1CF1E7284630BD10B575
:10034000044604E00B7800F8013B03B1491C521E3F
:10035000F8D2204610BD421C10F8011B0029FBD129
:10036000801A704710B5002200E0521C835C8C5C40
:10037000A34201D1002BF8D1D8B2E1B2401A10BD8E
:1003800030B504460020034600E05B1C934203D2D4
:10039000E05CCD5C401BF8D030BD034611F8012B6A
:1003A00000F8012B002AF9D1184670470246C9B25D
:1003B00000E0401C0378002BFBD102E003788B4265
:1003C00003D0401E9042F9D20020704770B5064617
:1003D00011F018F8046805460A220021304600F0A2
:1003E000F4FA2C6070BD000070B5054C054D03E0BB
:1003F000206820448047241DAC42F9D170BD000024
:10040000483004088C3004082DE9F04107461546B1
:100410000E46102012F054FA04000AD06760C4E9B6
:10042000026500F00BFB0168216004600020BDE85C
:10043000F0810120FBE72DE9FE4F804681EA0300B1
:10044000C00F0C46009021F0004123F00045B8EBAE
:100450000200A94105D24046214690461C460B4663
:10046000024623F00040104347D0270DC7F30A008F
:10047000C3F30A510290401A019040286BDAC3F38B
:10048000130040F4801B0098924620B10023D2EB69
:10049000030A63EB0B0B01985946C0F1400250462A
:1004A00000F062FA06460D4650465946019A00F0A1
:1004B0007AFA10EB08006141002487EA115284EABD
:1004C000E7731A4340D0009A62B3019A012A4FEAB7
:1004D000075215DC001B61EB02014FF0004202EAFB
:1004E0000752CDE90042001C41F5801132462B46EF
:1004F00000F01AFB03B0BDE8F08F40462146F9E753
:10050000001B61EB0201001C41F5801300185B41E8
:100510002018A2F5001747EB030140EAD570B61981
:100520006D4111E06D084FEA360645EAC0754FEAA5
:100530000752001B61EB0201001C41F580114908C4
:100540004FEA30000019514132462B4603B0BDE856
:10055000F04F00F0DABA0098012240000023D0EBFF
:10056000020263EBE073009821464FEAE074B8EBB7
:10057000000061EB0401E9E783F000435BE781F0F1
:10058000004158E72DE9FE4F81EA030404F00044DE
:1005900021F0004100944FF0000B23F0004350EA9B
:1005A00001045ED052EA03045BD0C3F30A54C1F3E2
:1005B0000A552C44A4F2F3340194A0FB0254C1F375
:1005C000130141F48011C3F3130343F4801301FBBF
:1005D000024400FB034E840A970A44EA815447EA26
:1005E0008357A4FB076802958D0A05FB07854FEA30
:1005F000932C04FB0C542705029D4FEA065847EA4A
:100600001637B5EB08056EEB070C870E920E47EA1E
:10061000811742EA8312A7FB0201B6EB0B0164EBE0
:1006200000042B0D43EA0C335E1844EB1C50DA46F1
:100630005146E7FB0201C5F313044FEA0B3343EACB
:1006400014534FEA0432019C43EA0603A4F10C045C
:100650000294009CCDE900B400F066FA03B0BDE856
:10066000F08F00200146F9E72DE9F04D81EA0304FF
:1006700004F0004B21F0004514464FF0000A23F02F
:10068000004150EA050220D054EA01021DD0C5F312
:100690000A570246C5F31303C1F31300C1F30A5608
:1006A00040F4801543F48013A7EB0608101BD646D0
:1006B00008F2FD3873EB050002D308F1010801E0F0
:1006C00092185B41B8F1000F03DA00200146BDE843
:1006D000F08D00204FF48011064684460EE0171B73
:1006E00073EB050705D3121B63EB050306434CEAC6
:1006F000010C49084FEA300092185B4150EA0107AB
:10070000EDD152EA030012D082EA040083EA050127
:10071000084305D0101BAB4106D20122002306E09E
:1007200000224FF0004302E06FF0010253101AEB79
:1007300006004CEB085110EB0A0041EB0B01BDE841
:10074000F04D00F0E2B9F0B4CA17CB0F5040514061
:10075000C61841F100054FEAC372314628004FF038
:10076000960303D0B623F0BC00F0A1B930460021B7
:10077000F9E730B4044696230800214604D0B62396
:1007800030BC002200F093B920460021F8E70EB5F6
:10079000C10F80EAE0700844CA07002140F23343E9
:1007A0008DE80E000A460B4600F0BEF903B000BD0E
:1007B0000EB540F2334102910021CDE900110A4605
:1007C0000B4600F0B1F903B000BD3EB5CA17CB0F20
:1007D000002450405140C0186141DA0740F23343D1
:1007E0000094CDE901232246234600F09DF903B091
:1007F00030BD0EB540F2334202920022CDE9002214
:10080000134600F091F903B000BD70B5C1F30A5270
:1008100001F000450024C1F3130140F2FF3341F41D
:1008200080119A4201DA002070BD40F233439A42AF
:10083000A2F2334203DC524200F0A5F800E09040FF
:100840002C43F1D0404270BDC1F30A5210B5C1F340
:10085000130140F2FF3341F480119A4201DA002083
:1008600010BD40F233439A42A2F2334203DC5242BB
:1008700000F089F810BD904010BD00F0004230F04B
:1008800000400AD0C10D01F56071C0F3160042EAC4
:100890000151C208400711437047002001467047CC
:1008A00030B5041E71F1000404DB4FF000444042F7
:1008B00064EB0101141E73F1000405DB1C464FF0CC
:1008C0000043524263EB04038B4208BF824230BDB7
:1008D00030B5041E71F1000404DB4FF000444042C7
:1008E00064EB0101141E73F1000405DB1C464FF09C
:1008F0000043524263EB0403994208BF904230BD6B
:1009000001F0004330B421F0004150EA010206D06A
:100910000A0DA2F56072C1F31301002A02DC30BC9B
:1009200000207047440F44EAC104C100E01830BC05
:1009300000EBC25000F0B2B800F0B4B930B50B46CD
:10094000014600202022012409E021FA02F59D42FF
:1009500005D303FA02F5491B04FA02F52844151ED3
:10096000A2F10102F1DC30BD202A04DB203A00FABA
:1009700002F1002070479140C2F1200320FA03F3F6
:10098000194390407047202A04DB203A21FA02F0F4
:100990000021704721FA02F3D040C2F120029140B9
:1009A000084319467047202A06DBCB17203A41FA44
:1009B00002F043EAE07306E041FA02F3D040C2F1EC
:1009C000200291400843194670472DE9F0479146AF
:1009D0000F4680460446002614F8015B2DB1FFF750
:1009E0003FFC0068405DC007F6D12B2D02D02D2DB5
:1009F00018D0641E4A463946204600F087FB27B1CE
:100A00003968A14201D1C7F8008071054FF0020496
:100A10000BD54042002803DD10F0F4FC0460A00771
:100A2000BDE8F08746F48066E4E70028F8DA10F0C5
:100A3000E9FC04606FF00040F2E7000000487047F6
:100A400074020020034870470248001D011F88609F
:100A5000001D70477802002070472DE9F0410646DE
:100A6000FFF7ECFF8046454613E016B1E068B04260
:100A70000ED120682860D4E90101D8F800708847B9
:100A8000204610F0EDFCD8F80000B842EBD100E0B1
:100A900025462C68002CE8D1BDE8F0810029A8BFCC
:100AA0007047401C490008BF20F00100704710B497
:100AB000B0FA80FC00FA0CF050EA010404BF10BC4C
:100AC000704749B1CCF1200421FA04F411FA0CF179
:100AD00018BF012121430843A3EB0C01CB1D4FEAB2
:100AE00000614FEA102042BF002010BC704700EBAD
:100AF000C35010440029A4BF10BC7047401C4900DB
:100B000008BF20F0010010BC704710B5141E73F12F
:100B1000000408DA401C41F1000192185B411A43BD
:100B200001D120F0010010BD2DE9F04D92469B4609
:100B300011B1B1FA81F202E0B0FA80F220329046AF
:100B4000FFF712FF04460F4640EA0A0041EA0B0194
:100B500053465A46084313D0114653EA010019D0B0
:100B6000C8F140025046FFF70EFF05460E465046BC
:100B700059464246FFF7F8FE084305D0012004E03D
:100B800020463946BDE8F08D0020054346EAE07670
:100B90002C4337430A986305E40AA0EB08000022BF
:100BA000FD0A44EA47540A3002D500200146E9E72D
:100BB000010510196941DDE9084500196941BDE8E1
:100BC000F04DA2E72DE9F04D00231A461B1A8A4189
:100BD00003DB00200146BDE8F08DC1F30A52C1F3EA
:100BE000130141F480154FF0000BD10702D100181A
:100BF0006D41521E0027044640F2FF11384601EBBA
:100C0000620A3E468046024600204FF48011FFF7FC
:100C1000BAFEC2197141BB1846EB0100B4EB030CDC
:100C200075EB000C04D3E41A65EB000517460E467D
:100C3000241908F101006D4180463428E3DDF919DB
:100C400046EB0600091BA84103D24FF0FF321346C2
:100C500001E0002213461BEB070046EB0A51BDE8FA
:100C6000F04DFFF752BFC1F30A52C1F3130140F236
:100C7000FF3341F480119A4202DA002001467047A6
:100C800040F233439A42A2F2334202DC5242FFF76F
:100C90007ABEFFF769BE10B510F0B8FBBDE8104092
:100CA00010F09EBA10B500F00EF8016919B10022DB
:100CB0000261884701E080688047AFF30080000050
:100CC00010B5AFF3008070B5FFF7BEFE04680546AF
:100CD000A4B9202011F0F4FD040011D0094900202E
:100CE0002C60C4E900010849A160207320616061A3
:100CF0000649A06109B100F059FAE061204670BDD3
:100D0000AFF3008000000000C10C000800000000EC
:100D1000064C074D06E0E06840F0010394E8070048
:100D200098471034AC42F6D3FFF72CFA2830040869
:100D3000483004080FB400B58DB010A909900B908D
:100D400000914FF0FF300A9000200C90054806906B
:100D5000054807906A4609A80F9900F03BFC0DB0C2
:100D60005DF814FBCD100008EB1000082DE9FF4FD3
:100D7000087883B09946FF2805D0491C2D2804D057
:100D80000024002008E000200BE00124F9E700EB3C
:100D9000800003EB4000491C0B78FF2BF7D104B116
:100DA000404200230293147819461D462D2C01D091
:100DB0002B2C04D1521C2D2C13D000240294AA46B3
:100DC0001478FF2C0FD00A25A3FB057801FB0581C1
:100DD0004FF0000C03FB0C11521CE3194AEB01010C
:100DE000EEE70124EAE7814453EA010002D019F555
:100DF000C87F06DA03980021C0E9001107B0BDE8FA
:100E0000F08F0025AE4E2F46DFF8B8821846FFF768
:100E1000F0FCCDE90001B9F1000002DAC9F10004EB
:100E200000E004460023A74A1AEB030B42EB045AE6
:100E300012E0E00707D02A46334638464146FFF71E
:100E4000A1FB074688462A46334610461946FFF757
:100E500099FB05460E466410002CEAD1DDE900013D
:100E6000B9F1000F5A46534606DAFFF7FDFB3A4642
:100E70004346FFF7F9FB05E0FFF784FB3A4643469C
:100E8000FFF780FB029A0AB181F00041039AC2E9A0
:100E90000001B3E72DE9FF4F1F468DB0D7E90146AA
:100EA0004FF0FF382E2045464FF000090B90B969EE
:100EB0006D1C0E988847396A824688470028F6D10B
:100EC000BAF1FF3F0AD024F4D064002E11DDBAF14C
:100ED0002B0F08D0BAF12D0F0BD102E0404611B014
:100EE0008DE744F48064B9696D1C0E98884782468A
:100EF000761E6946600501D52D2000E02B208DF877
:100F0000000001F1010B0DF1200809E0B9696D1C29
:100F10000E98884782460F9844F40074761E056048
:100F2000002E02DDBAF1300FF0D00B998A453ED188
:100F300044F0800406E00F99681CA9F1010944F40B
:100F400000740860B9696D1C761E0E988847824649
:100F50003028F0D02BE00B998A4505D1200603D428
:100F600044F08004761E18E0504612F06AFB08B385
:100F70000DF11301761E44F400748B4508D2AAF1DA
:100F800030000BF8010B200607D5A9F1010003E0A2
:100F9000200602D409F101008146A00502D50F996F
:100FA000681C0860B9696D1C0E9888478246002E3F
:100FB000D1DC53E0002E51DDBAF1650F02D0BAF159
:100FC000450F4BD1A00549D5B9696D1C24F4407477
:100FD000761E0E9888478246002E0CDD2B2804D002
:100FE000BAF12D0F07D144F48074B9696D1C0E98C5
:100FF00088478246761EE00501D52D2100E02B2191
:1010000008F8011BCDF82C8021E00DF12901761E96
:1010100044F4007488450CD2AAF1300010F0FF00AF
:1010200088F8000002D10B99884509D908F1010818
:1010300006E0E00501D5244801E042F20F70814648
:10104000B9696D1C0E98884782460F980560002E7E
:1010500004DD504612F0F5FA0028D6D1F9690E9851
:101060008847FF208BF8000088F8000000200690D9
:1010700007904B466A4608A906A8FFF777FEA00529
:1010800002D46FF001002AE714F0240F0AD0E00721
:1010900014D1DDE906123868031D3B600068C0E921
:1010A00000120BE0DDE90601FFF72AFC0146E0072C
:1010B00004D13868021D3A600068016028460EE7D6
:1010C000000014400000F03FF1D8FFFF426842B139
:1010D000016811F8013B23B1521EC0E90012184605
:1010E00070470121C160881E704742685AB1C368C9
:1010F000016843B983688B4205D0491E521CC0E980
:101100000012002070474FF0FF3070472DE9F05F6C
:1011100082460078002715468B460AF10104B9463D
:10112000302801D09DB113E014F8010B0127782875
:1011300003D0582801D045B10AE00DB1102D07D1D8
:101140000027102514F8010B02E0082500E00A250D
:101150000026B0460EE005FB080005FB06F101275E
:1011600001EB10461FFA80F8B6F5803F00D3B94670
:1011700014F8010B294600F058F80028EBDABBF10F
:10118000000F05D00FB1641E00E05446CBF80040BC
:10119000B9F1000F06D010F035F902210160C81E28
:1011A000BDE8F09F48EA0640FAE7704710B588208E
:1011B00011F086FB002801D00021017010BD8029AC
:1011C00002D808B1017809B100207047012100F868
:1011D000081B704718B100F10802914201D00020AD
:1011E000704700210170704710B5441A03469442BD
:1011F00009D28418114403E011F8013D04F8013DBF
:10120000521EF9D210BD40EA0104A40703D009E040
:1012100010C9121F10C3042AFAD203E011F8014BBF
:1012200003F8014B521EF9D210BD3A2800D23038D3
:1012300020F02002412A01D3A2F13700884201D3D5
:101240004FF0FF3070472DE9FF4F1C4681B0002161
:10125000D4E9016791464FF0FF358A468846A16977
:101260006D1C02988847216A834688470028F6D17A
:10127000BBF1FF3F0CD026F4C066002F1ADD7006CC
:1012800015D5BBF12B0F0AD0BBF12D0F0FD104E008
:101290004FF0FF3005B0BDE8F08F46F48066A169DD
:1012A0006D1C029888477F1E8346002F02DDBBF12C
:1012B000300F03D0B9F1000F2AD025E0A1696D1CD1
:1012C00046F400767F1E029888478346002F05DD8E
:1012D000BBF1780F06D0BBF1580F03D0B9F1000F66
:1012E00010D011E0B9F1000F02D0B9F1100F0BD1FD
:1012F000A1696D1C26F400767F1E029888478346FC
:10130000102000E0082081464FEAE970009017E0C5
:101310000A20F8E74346AAFB092803FB0980DDF809
:1013200000C07F1E0AFB0C0112EB0B0A41EBEB78AD
:10133000A16946F4007605F10105029888478346C5
:10134000002F06DD49465846FFF76FFF5FEA000BA6
:10135000E0D5E16902988847B00502D46FF001003A
:1013600098E7F00718D1700610D57005514605D5DD
:101370000023D1EB030163EB080200E04246206842
:10138000031D23600068C0E9001205E02068011D0C
:1013900021600068C0E900A828467BE72DE9FF5FCF
:1013A0001D464FF0FF3BD5E9014691465F464FF0A1
:1013B0000008A9697F1C01988847296A82468847E6
:1013C0000028F6D1BAF1FF3F0CD024F4C064002EFF
:1013D00019DD600614D5BAF12B0F09D0BAF12D0F23
:1013E0000ED103E0584604B0BDE8F09F44F4806499
:1013F000A9697F1C01988847761E8246002E02DD6F
:10140000BAF1300F03D0B9F1000F26D032E0A9694C
:10141000761E44F400747F1C019888478246002E93
:1014200005DDBAF1780F06D0BAF1580F03D0B9F143
:10143000000F10D01EE0B9F1000F02D0B9F1100F6B
:1014400018D1A969761E24F400747F1C019888477E
:101450008246102002E0082000E00A20814609E0D0
:1014600008FB0908A969761E44F400747F1C0198E2
:1014700088478246002E05DD49465046FFF7D5FED7
:101480000028EDDAE96901988847A00502D46FF0D9
:101490000100A8E7E00725D1600613D5600502D555
:1014A000C8F1000000E0404629680A1D2A6009686A
:1014B000220501D5087015E0220701D5088011E04A
:1014C00008600FE02868011D29600068210502D529
:1014D00080F8008006E0210702D5A0F8008001E036
:1014E000C0F8008038467EE72DE9FF5FD2E901A70A
:1014F0004FF00008916999461446DDF838B0464629
:1015000001988847054659EA0B0005D009E0A16912
:10151000761C019888470546216A28468847002896
:10152000F5D1681C03D05FEACA7005D015E04FF012
:10153000FF3004B0BDE8F09F2068011D2160D0F8A5
:1015400000800AE05FEACA7001D108F8015BA16976
:10155000761C7F1E019888470546002F1ADD681CFF
:1015600018D0B9F1000F0DD0E81705EBD06042118B
:1015700020F01F0059F822102A1A01209040014241
:10158000E0D107E0BBF1000FDCD1216A2846884793
:101590000028D7D0E16901988847BBF1000F07D137
:1015A000002E05DD5FEACA7002D1002188F8001024
:1015B000A068B84203DDBBF1000F03D017B16FF094
:1015C0000100B6E73046B4E70268114413780160C1
:1015D00018467047D16004495161044911620021E5
:1015E0001161114600F016B8C9150008690200081B
:1015F00000DE2DE9F04117460E46054633B107FBE4
:101600000354E41B2046B047A542FAD1A5F10800D7
:10161000BDE8F0812DE9F34F8BB04FF0000801F1E8
:101620000C000C464FF0010B46460DF1080A0190E4
:101630006269012101989047051E2DD0252D2CD0DF
:10164000216A8847C0B16269012101989047216AE7
:1016500088470028F7D1411E62690198904700E051
:10166000761CA1690B988847216A88470028F7D122
:10167000E1690B988847DBE7A1690B988847074623
:10168000A84201D1761CD3E7E1690B9888477F1CFB
:1016900002D1B8F1000F6FD046E1002762693D46E4
:1016A0003946019890472A2804D16269012101989E
:1016B00090470125DFF884926269012101989047E3
:1016C000A0F130010A290AD24F45E5DC07EB87017A
:1016D00000EB4107303FDFD445F01005ECE7E906A9
:1016E00001D46FF000476C280AD04C2814D0682829
:1016F00015D06A280DD074281CD07A281AD01DE085
:1017000062690121019890476C2802D045F00405D8
:1017100014E045F002050DE045F020050AE062699D
:10172000012101989047682802D045F0080505E09E
:1017300045F400656269012101989047C4E90157A9
:1017400065283DD019DC58287AD00CDC452837D0E4
:1017500004DC252826D0412831D131E046282FD07D
:1017600047282CD12CE05B2877D0612828D063282B
:101770007CD0642823D15AE0D0E06F2848D008DC20
:1017800066281DD067281BD0692821D06E2816D165
:1017900027E0702845D0732868D0752847D078286E
:1017A0000DD14DE0A1690B988847054625283FF4E7
:1017B00069AFE1690B9888476D1C3FF46AAFB3E0ED
:1017C00023466A466FF001000B99FFF763FB9EE02A
:1017D00045F040006060A80723464FF0000236D471
:1017E0003EE0E8077FF447AF2068011D21600068F4
:1017F000290501D506701BE7290701D5068017E7E3
:10180000A90703D5F117C0E9006111E706600FE7EA
:1018100045F040006060A80723464FF0080216D448
:101820001EE040F60E0125EA0100606016E045F07A
:1018300040006060A80723464FF00A0207D40FE07B
:1018400045F040006060A80708D5234610226FF0DD
:1018500001000B99FFF7F7FC59E007E0234610223F
:101860006FF001000B99FFF799FD50E04FF0000970
:101870004F464B46632802D05B2806D040E0E8067E
:1018800001D40120A06001273AE06269012101989A
:1018900090475E2805D14FF00109626949460198D9
:1018A0009047216939B900210A46534643F821205F
:1018B000491C0829FADBB0B3216969B9C11700EBEB
:1018C000D16253110AEB830122F01F02821A012018
:1018D0000B68904003430B606269012101989047B7
:1018E0005D28E8D1B9F1000F09D00020514651F828
:1018F0002020D24341F82020401C0828F7DB02AB0F
:10190000224600976FF001000B99FFF7EDFD0028CC
:101910000CDA401C08D1BBF1000F05D04FF0FF30AE
:101920000DB0BDE8F08FFFE74046F9E7E90701D1C8
:1019300008F1010806444FF0000B79E6CCCCCC0C42
:101940002DE9F04116461F460C46851B02E028464D
:10195000B847AD1B641EFAD2BDE8F08170B58C1893
:1019600010F8015B15F0070301D110F8013B2A11B3
:1019700006D110F8012B03E010F8016B01F8016BA0
:101980005B1EF9D12B0705D40023521E0DD401F89C
:10199000013BFAE710F8013BCB1A921C03E013F865
:1019A000015B01F8015B521EF9D5A142D8D300209A
:1019B00070BD38B504466846AFF300800146204646
:1019C00028F008FA38BD000070B50A4C4FF40875CD
:1019D0002946204600F092F800280AD0204600F060
:1019E0008AF80549888029462046BDE8704000F005
:1019F00008B870BD00240140C4000020C943016044
:101A000070476FEA1121016070470029816802D098
:101A100041F0010101E021F0010181607047000007
:101A200070B5244D0446244E687840B90020FF214B
:101A30003154401CC0B21228FAD30120687024B37C
:101A4000012C22D0022C20D0032C1ED0042C1CD020
:101A5000052C1AD0062C18D0072C16D0082C14D020
:101A6000092C12D00A2C10D00B2C0ED00C2C0CD020
:101A70000D2C0AD00E2C08D00F2C06D0102C04D020
:101A8000112C02D04FF0FF3070BD204600F016F848
:101A9000401C02D06FF0010070BD2878122802D3DC
:101AA0006FF0020070BD3454401CC0B22870401E5C
:101AB00070BD000030020020ACE00220094910B5E2
:101AC00002460020064B097804E01C5C944205D0D5
:101AD000401CC0B28842F8D34FF0FF3010BD000068
:101AE000ACE002203002002001460020896849074E
:101AF00000D501207047C06C80B2704710B5024617
:101B0000002054680B0AC9B20C401168194202D077
:101B1000002C00D0012010BD014600208968090773
:101B200000D501207047002A4268C9B201D00A439B
:101B300000E08A434260704710B542680E4B0C7952
:101B40001A400B6842EA04221343436083680B4A3D
:101B50001340D1E9024222434C7943EA44031A4339
:101B60008260C26A097C22F47002491EC9B242EA4C
:101B70000151C16210BD0000FFFEF0FFFDF7F1FD55
:101B800070B5072409290AD9C568A1F10A0606EB30
:101B90004606B440A543B3401D43C56007E0056950
:101BA00001EB4106B440A543B3401D4305611F232B
:101BB000072A09D2446B521E02EB820293409C43D7
:101BC00091400C43446370BD0D2A09D2046BD21FAF
:101BD00002EB820293409C4391400C43046370BD2E
:101BE000C46A0D3A02EB820293409C4391400C433D
:101BF000C46270BD0D4910B5884202D1012144155F
:101C00000AE00B49884202D10121041504E0094988
:101C100088420AD10121CC03204600F0B3FF2046C0
:101C2000BDE81040002100F0ADBF10BD0024014010
:101C300000280140003C0140816841F008018160BA
:101C400070470029816802D041F4A00101E021F42D
:101C5000A00181607047816841F004018160704794
:101C600000210160017141718160C1600121017435
:101C70007047000008B5024908440090008808BD7C
:101C8000006C004010B5012000F088FFBDE8104056
:101C9000002000F083BF000008B5024A1044009005
:101CA000016008BD006C004010B54FF40074204680
:101CB00000F046F8002817D0204600F027F80B491E
:101CC000D1E90120904204D2BDE81040111A02F07F
:101CD000C3BC0748B0F80C21D0F800010261C86805
:101CE000BDE810401CF016BC10BD0000E80100204B
:101CF000141804080029016802D041F0010102E033
:101D00004FF6FE721140016070470000C10002D51D
:101D10000249086070470249486070470404024065
:101D2000000002400021016041608160C1600161EA
:101D300041618161C161016241628162704700005D
:101D400001460020CA0001D5034A00E0034A126898
:101D50000A4200D001207047000402400000024007
:101D6000002A026801D00A4300E08A4302607047FB
:101D700030B5036847F6F07293430C6A8A682243D1
:101D8000D1E904452C4322438C692243CC69224388
:101D90004C6A22438C6A22431A430260CA6842603A
:101DA0000A6882604968C16030BD000001684FF672
:101DB000FE72114001600021016041608160C160DC
:101DC0003149314A0839904203D1486840F00F0048
:101DD00006E02D4A1432904204D1486840F0F000E9
:101DE00048607047284A2832904203D1486840F43E
:101DF0007060F5E7244A3C32904203D1486840F4D1
:101E00007040EDE7204A5032904203D1486840F4D8
:101E10007020E5E71C4A6432904203D1486840F4E0
:101E20007000DDE7184A7832904203D1486840F0EC
:101E30007060D5E7154A111F904203D1086840F041
:101E40000F0006E0114A1432904204D1086840F0B5
:101E5000F000086070470D4A2832904203D10868AC
:101E600040F47060F5E7094A3C32904203D10868BB
:101E700040F47040EDE7054A50329042EAD10868DC
:101E800040F47020E5E7000008000240080402402A
:101E900070B501F0B9F90E484FF47A714FF0FF3583
:101EA0000068B0FBF1F1491EB1F1807F0AD24FF01A
:101EB000E02461610F2128460FF094FA0020A06110
:101EC000072020612846BDE8704000210FF08ABA43
:101ED0003C02002010B5012000F00CF9002808D0C9
:101EE0000448006800B18047BDE81040012000F0C0
:101EF000D9B810BDE4E0022070B54FF480652846E3
:101F000000F0F8F8234C28B1A16A01B188472846AF
:101F100000F0C8F84FF40065284600F0EBF828B14F
:101F2000E16A01B18847284600F0BCF84FF48055BB
:101F3000284600F0DFF828B1216B01B18847284618
:101F400000F0B0F84FF40055284600F0D3F828B15F
:101F5000616B01B18847284600F0A4F84FF4804532
:101F6000284600F0C7F828B1A16B01B18847284680
:101F700000F098F84FF40045284600F0BBF8002820
:101F800007D0E16B01B188472846BDE8704000F0FA
:101F900089B870BDE4E0022010B5022000F0AAF874
:101FA000002808D00448406800B18047BDE81040D0
:101FB000022000F077B810BDE4E0022010B5042044
:101FC00000F098F8002808D00448806800B18047E5
:101FD000BDE81040042000F065B810BDE4E0022028
:101FE00010B5082000F086F8002808D00448C06822
:101FF00000B18047BDE81040082000F053B810BD84
:10200000E4E0022010B5102000F074F8002808D099
:102010000448006900B18047BDE81040102000F07E
:1020200041B810BDE4E0022070B5202000F062F855
:102030001B4C28B1606900B18047202000F032F8C5
:10204000402000F057F828B1A06900B18047402037
:1020500000F028F8802000F04DF828B1E06900B1C8
:102060008047802000F01EF84FF48075284600F06D
:1020700041F828B1216A01B18847284600F012F8DA
:102080004FF40075284600F035F8002807D0616A43
:1020900001B188472846BDE8704000F003B870BD24
:1020A000E4E0022001490860704700001404014088
:1020B00010B500F055F9042810D8052817D2DFE82C
:1020C00000F0030507090B00062410E007240EE0CA
:1020D00008240CE009240AE00A2408E0411F04292E
:1020E00001D8172403E00A38052800D82824204600
:1020F00010BD0000064A014600201268044B0A4049
:1021000014331B680B4202D0002A00D00120704714
:102110000004014030B51A498379026853B30B6853
:1021200093430B600A1D13680468A343136002798C
:102130000A441368046823431360114A0832136881
:102140000468A3431360131D1C680568AC431C603E
:102150004479102C05D021440A68006802430A60C3
:1021600030BD11680468214311601968006801439B
:10217000196030BD0079084401689143016030BDA9
:10218000000401402DE9FE431E46DDF82890174665
:102190000D46804650282DD200F0E2F804460F2864
:1021A00028D81548012140F82450084600F0DEFCEC
:1021B000404600F0E7F8214600F0BEF8012505FA98
:1021C00004F0009000208DF804008DF805708DF863
:1021D00006506846FFF79EFF4046FFF769FF8DF8FF
:1021E00008008DF809608DF80A908DF80B5002A850
:1021F00000F0E4FBBDE8FE83E4E0022070B5A52515
:1022000000F04CF800B100254FF08056304600F049
:1022100081F8042825D1144C1248A0601348A0600E
:10222000206940F020002061206940F040002061DA
:10223000304600F06FF804280DD1206920F020000E
:102240002061206940F010002061094805804FF4AA
:10225000704000F05FF8052803D0216921F01001DB
:10226000216170BD2301674500200240AB89EFCD9D
:1022700000F8FF1F08490420CA68D20701D00120D6
:102280007047CA68520701D502207047C968C9065D
:10229000FBD50320704700000020024003490020C6
:1022A000C969890700D5012070470000002002405D
:1022B000F0B506464FF470470D46384600F02AF850
:1022C000042812D10A4C0948A0600A48A06020697D
:1022D00040F0100020613580384600F01BF80528DA
:1022E00003D0216921F010012161F0BD2301674570
:1022F00000200240AB89EFCD044803494160044A05
:1023000042604164426470472301674500200240F7
:10231000AB89EFCD00B50346FFF7ACFF03E000BF8C
:10232000FFF7A8FF5B1E012803D0002B00D105207A
:1023300000BD002BF4D1FAE710B58A0721F00304A1
:102340000649130F21440F228C689A4094438C60F5
:102350008A68984002438A6010BD00000000014076
:10236000024901EB0010808900F002B8141804083B
:10237000002102E04008491C89B20128FAD8C8B2FD
:10238000704700000F4901EB00100F4900688842B8
:1023900001D1002070470D49884201D101207047CA
:1023A0000B49884201D1022070470A49884201D175
:1023B000032070470849884201D104207047FF205C
:1023C000704700001418040800080140000C014088
:1023D000001001400014014000180140F0B5CA7817
:1023E000002502F00F03D20601D58A7813430A783C
:1023F0004FF00F0E12F0FF0F4FF001021CD00468D7
:102400000F8802FA05F63740B74211D14FEA850C22
:102410000EFA0CF724EA070703FA0CF43C43CF78D2
:10242000282F02D0482F02D002E0466100E006616A
:102430006D1C082DE4D304600C88FF2C1ED9446861
:102440005FF0000606F1080702FA07F50F882F4033
:10245000AF420FD14FEA860C0EFA0CF7BC4303FAD9
:102460000CF73C43CF78282F00D14561CF78482F17
:1024700000D10561761C082EE4D34460F0BD10B590
:102480000121084600F072FB0121BDE8104048061A
:10249000AFF3008070B5B0F1004F63D96FF07F43A8
:1024A00003EAD01300F07F04200904F00F04850034
:1024B00004FA05F5062B14D2DFE803F00305080B38
:1024C0000E11F44A0DE0F34A121D0AE0F14A0832F7
:1024D00007E0F04A0C3204E0EE4A103201E0ED4A27
:1024E000143270B1012810D002281DD003281FD04B
:1024F000042821D0052823D0062825D0072827D056
:102500002AE0106820F00F0025E0012B03D01068AE
:1025100020F0F0001FE01068042C02D920F0C00069
:1025200019E020F0300016E0106820F4706012E02E
:10253000106820F470400EE0106820F470200AE06B
:10254000106820F4700006E0106820F0706002E06F
:10255000106820F070401060012902D110682843F3
:10256000106070BDCB4A4FF48025203AA8420FD0AE
:1025700040DCB0F5007F71D01EDC10286FD008DC85
:1025800001286DD0022803D0042801D00828E8D102
:1025900098E0302878D0402877D0C02876D0B0F5A1
:1025A000807FDED1506820F4407050600129D8D17E
:1025B000506840F480704BE1B0F5804F67D00CDC80
:1025C000B0F5407F7AD0B0F5006F78D0B0F5406FAD
:1025D00076D0B0F5805FC4D174E0B0F5C04F70D054
:1025E000B0F5004F6ED0B0F5803F6BD0B0F5003F36
:1025F000B7D167E0B0F1005F77D032DCB0F5000F03
:1026000074D015DCB0F5002F5CD0B0F5801F59D028
:10261000B0F5001F6BD0B0F5800FA2D1506820F448
:102620008000506001299CD1506840F480000FE187
:10263000B0F1807F70D0B0F1007F6ED0B0F1806FCC
:102640006CD0B0F1805F8CD1506820F08050506029
:10265000012986D1506840F08050F9E073E047E0EE
:1026600039E08D4C031BA0421DD011DCB0F1804F2E
:1026700073D0A0F18043203B15D0B3F5787F12D002
:10268000864CE3428DD10EE03CE048E051E086E02C
:10269000AB4277D0B3F5402F75D0B3F5A01F73D000
:1026A000B3F5E01F97D1D369C0F315008343D3611D
:1026B000012990D1D1690143D16170BD4EE057E04D
:1026C00063E076E05368834353600129F5D1516894
:1026D00001435160F1E75068714B18405060012987
:1026E000EBD1506840F00100B2E094E09DE0A6E03C
:1026F000506820F0300050600129DED1506840F071
:102700001000A5E0506820F0300050600129D4D1BD
:10271000506840F030009BE055E05EE067E05068B4
:1027200020F0C00050600129C7D1506840F040003F
:102730008EE0506820F0C00050600129BDD1506883
:1027400040F0C00084E0506820F4407050600129DF
:10275000B3D1506840F400707AE052E0506820F441
:10276000407050600129A8D1506840F440706FE07B
:10277000506820F44060506001299ED1506840F4B8
:10278000006065E066E06FE078E0506820F440604B
:102790005060012991D1506840F4406058E0506881
:1027A00020F4C0405060012987D1506840F4804037
:1027B0004EE0506820F4C040506001298AD1506832
:1027C00040F4C04044E0506820F0E06050600129CF
:1027D00086D1506840F080703AE0506820F0E060A8
:1027E0005060012989D1506840F0007030E0506895
:1027F00020F0E0605060012989D1506840F080608D
:1028000026E0506820F08040506001298CD150684B
:1028100040F080401CE0506820F0005050600129DA
:102820008CD1506840F0005012E0506820F4000055
:10283000506001298CD1506840F4000008E05068D5
:1028400020F40010506001298DD1506840F4001030
:10285000506032E7D06920F4C010D0610129F8D16E
:10286000D06940F4002012E0D06920F4C010D0619B
:102870000129EED1D06940F4801008E0D06920F43D
:10288000C010D0610129E4D1D06940F4C010D061FA
:1028900013E7000020000140000004402000FEFF7C
:1028A000FEFFFF7F38B504462148844201D1042051
:1028B00012E02048844201D108200DE01E488442E5
:1028C00001D1102008E01D48844201D1202003E0FE
:1028D0001B4884421DD14020E2B1012A1CD0022AAB
:1028E0001CD0032A1CD0052A1CD0062A1CD0082A7A
:1028F0001CD0072A0DD11C22ADF800108DF8032042
:102900008DF80230012100F031F969462046FFF7C9
:1029100065FD38BD0422EFE74822EDE72822EBE70A
:102920000022E9E71022E7E71422E5E71822E3E7AF
:1029300000080140000C014000100140001401405B
:102940000018014070B50C462DED028BB0EE418AA7
:10295000F0EE618A9FED0B1B054653EC112B51ECF9
:10296000100BFDF768FD9FED090BC5E9000153EC65
:10297000102B51EC180BFDF75EFDC4E90001BDEC16
:10298000028B70BD94F6065F984C553F07F01648D1
:1029900050FC783F81070CD16421B0FBF1F201FBC0
:1029A000120141B94FF4C871B0FBF1F201FB120002
:1029B00008B10020704701207047000070B50F2358
:1029C000C47801780122F4B1144C2468457804F4E9
:1029D000E064C4F5E064240AC4F10406E3408478AA
:1029E000B5401C402C4301F1E021230181F8003463
:1029F000007800F01F018A404009800000F1E020CB
:102A0000C0F8002170BD01F01F008240480980001D
:102A100000F1E020C0F8802170BD00000CED00E066
:102A20000249084302490860704700000000FA05A7
:102A30000CED00E02DE9F04116460C4650280ED270
:102A4000134901EB0015696849B1A97B39B134B16B
:102A50002EB1104F04FB06F13A68914202D90020D2
:102A6000BDE8F081082125F0BFF838680021B0FBEF
:102A7000F4F0B0FBF6F6686800F0DAFD761E641E2E
:102A8000AB7BB2B2A1B2686800F04CFCA87BE7E770
:102A9000141804083C020020014908627047000035
:102AA00000000E42827A0AB1002202E0C27A3AB1F4
:102AB00001224272427A50F82200086001207047D9
:102AC00000207047027A437A9A4203D1427A32B1A7
:102AD00000220272027A50F8220008607047012238
:102AE000F7E7002380E80E007047427A00210A30A1
:102AF00011547047037A012200F10A015A54017AF5
:102B000011B10021017270470121FBE7034A5168AE
:102B1000034B194001435160704700000010024010
:102B2000FF3FFFEF044A0029516901D0014300E053
:102B3000814351617047000000100240044A00299F
:102B4000D16901D0014300E08143D16170470000A9
:102B500000100240044A0029116901D0014300E03D
:102B6000814311617047000000100240044A0029AF
:102B7000916901D0014300E08143916170470000F9
:102B800000100240044A0029D16801D0014300E04E
:102B90008143D16070470000001002400149086085
:102BA000704700004004424270B53D494A683D4BC1
:102BB00012F00C0204D0042A0AD0082A08D109E035
:102BC0000A6B920104D54A6D920501D5364A32E06E
:102BD000036031E04A6802F480344A68334D2A4089
:102BE00012F0C04F05D1C2F383450F2D01D002264C
:102BF00000E00126302505EA5265C2F38342154301
:102C0000721964B14C68A4030BD54C6D032505EA19
:102C10001434A41CB3FBF4F35343036004E0244BCB
:102C200000E0204B5A4302604A68002A04DB214A34
:102C30000368934200D902604A684B68C2F30212EB
:102C40001C061D4B01D59C5C00E000240268E2409C
:102C500042604C684D68C4F301246D0501D51C5DCC
:102C600000E0002422FA04F484604C684D68C4F348
:102C7000C124AD0401D51B5D00E00023DA40C26031
:102C80004B684968C3F38133C90001D543F004039D
:102C900009490831C95CB2FBF1F1016170BD000066
:102CA0000010024000127A00006CDC0200003C6060
:102CB00000093D0000A24A042C1D04080246002021
:102CC00053090949012B0BD0022B0BD0D1F824104A
:102CD00002F01F02012393400B4200D001207047F5
:102CE0000968F5E7096AF3E7001002400649002287
:102CF00081F8202081F82020012802D0042802D168
:102D0000052081F82000704700100240014908604A
:102D1000704700003C04424202490A6A02430A62C8
:102D2000704700000010024005490128486D03D09B
:102D300020F030004865704740F03000FAE70000AE
:102D40000010024002490A8882430A80704700004E
:102D5000042800400248018841F0100101807047BA
:102D6000042800400248018821F0100101807047CA
:102D7000042800402DE9F04700F066F82E4F064683
:102D8000B0FBF7F32D482E4C018899422ED00380DA
:102D900040F2B2754FF4B7794FF4B6780DE0A8B2AF
:102DA000FFF7F8FD30B14B4502D3A3F5B77303E04D
:102DB0006D1C04E0A3F26D136D1C4345EFD8A58094
:102DC0000025DFF880800BE0A088FFF7E3FD08B165
:102DD000012D2DD018F80500984203D81B1A6D1C40
:102DE0001C2BF1D26D1CA5715B1CE371B6FBF7F0D7
:102DF00007FB10604FF46161B0FBF1F22270B0FB91
:102E0000F1F201FB12033C22B3FBF2F36370B0FB5F
:102E1000F1F301FB1300B0FBF2F102FB1100A07013
:102E2000E279A179A08800F019F82072BDE8F08756
:102E30001D2BD7D31D3BD2E7805101003802002063
:102E400060E10220201D0408034800880249091F90
:102E5000098840EA014070471C28004030B56424CE
:102E6000B0FBF4F3B0FBF4F5DBB204FB1500132B5D
:102E700001D96430C0B200EB90040723B4FBF3F532
:102E800003FB1544084D22440D44800715F8015CEE
:102E90002A4492B203D1032901D2521E92B2B2FB4C
:102EA000F3F003FB102030BD141D04081CB50121F4
:102EB0004FF0C050FFF742FE0120FFF7EDFD042068
:102EC000FEF7D8FE45F25104A0422DD0FEF7DAFEFF
:102ED0000120FFF70BFF4120FFF7F0FE0028FAD09A
:102EE0004FF48070FFF718FF0120FFF70FFF00F08D
:102EF000B3F800F0A9F847F6FF7000F095F800F07D
:102F0000A3F808200021CDE900010346024601464E
:102F100040F2E27000F014F800F096F82146BDE8A7
:102F20001C400420FEF7B8BE00F096F800F08CF8C4
:102F30000120FFF707FFBDE81C4000F085B8000046
:102F40002DE9F05F9A4605460023A0F2B270DDF845
:102F500028B091468846822802D30120BDE8F09F20
:102F600040F2B274244E254F07E0A0B2FFF712FDE5
:102F700008B1334400E03B44641CAC42F5D3A8F1F3
:102F80000100C6B200241E4FDFF878800EE0385DE5
:102F900040F2A32110FB01F003EBC0132846FFF71A
:102FA000F9FC10B1012C00D14344641CB442EED3AF
:102FB000A9F10100C0B240F2A32110FB01F0CAEB5D
:102FC0004A1203EBC010C2EB0A2100EB0110CBEB5D
:102FD0000B1100EB81000B99441801214FF0C050F8
:102FE000FFF7ACFD0120FFF757FD204600F00CF87D
:102FF00000F02AF80020B1E70085E2018033E1010A
:10300000201D04088051010000B50246FFF7A2FE12
:103010000449100C0880081D02805DF804EBFFF7DE
:10302000A1BE00001828004000B50246FFF792FE3E
:103030000449C2F303400880081D02805DF804EBD8
:10304000FFF790BE08280040024801888906FCD599
:1030500070470000042800400448018821F008015E
:10306000018001880907FCD5704700000428004052
:103070000029018802D041F0400101E021F0400127
:1030800001807047002A828801D00A4300E08A4309
:1030900082807047144910B588420AD184140121F6
:1030A0002046FFF76FFD2046BDE810400021FFF7E6
:1030B00069BD0E49884202D1012104140AE00C497D
:1030C000884202D10121C41304E0B0F1402F0AD19B
:1030D00001210C042046FFF73DFD2046BDE81040CD
:1030E0000021FFF737BD10BD00300140003800401F
:1030F000003C004030B5028802F441538A89120432
:10310000828802D542F4807201E022F480728280CB
:103110000A884C88CD8822438C882C4322430C8912
:1031200022434C8922438C89C4F30E042243CC8968
:1031300022431A430280828B22F400628283098A2E
:10314000018230BD1CB50020284C01900090216800
:1031500041F0010121604FF6FF71226802F0020286
:103160000092019A521C0192009A12B9019A8A4265
:10317000F3D12168890737D501200090606860602D
:10318000606820F460506060606840F400506060E7
:10319000606820F4E0606060606840F480606060B7
:1031A00060681349084060606068124908436060C5
:1031B000206840F08070206020688001FCD50120EC
:1031C000FFF7B2FD606820F003006060606840F0C7
:1031D000020060606068C0F381000228FAD1BDE897
:1031E0001C400020FFF7A0BD00901CBD0010024055
:1031F000FFFFC01F00002CE002480168491C01606D
:10320000704700003402002070B525494868254BFE
:1032100010F00C02244804D0042A0AD0082A08D14D
:1032200009E00A6B920104D54A6D920501D51F4A47
:103230002AE0036029E04A6802F480344A684A6858
:1032400030251B4E324012F0C04F05D1C2F38346E9
:103250000F2E01D0022600E0012605EA5265C2F3D6
:103260008342154372195CB14C68A4030AD54C6DB6
:10327000032505EA1434A41CB3FBF4F35343D8E745
:103280000C4B00E0074B5A4302604968064AC1F301
:103290000311121D515C0268CA40026070BD00003B
:1032A0000010024000127A003C020020006CDC0298
:1032B00000003C6000093D00144810B5016841F46D
:1032C000700101601248016841F00101016041682C
:1032D000104A1140416001680F4A114001600168C5
:1032E00021F48021016041680C4A11404160016B6A
:1032F0000B4A114001634FF41F018160FFF722FF69
:1033000002494FF000608039086010BD88ED00E090
:10331000001002400C00FFE8FFFFF6FEFFFF001761
:1033200000FFFEFEF0B50446444889B01E4615462F
:103330000F46844226D0B4F1804F23D040488442C7
:1033400020D0404884421DD03F4884421AD03F4894
:10335000844217D03E48844214D03E48844211D063
:103360003D4884420ED03D4884420BD03C488442C4
:1033700008D03C48844205D03B48844202D03B48B8
:10338000844258D10121204600F016FBADF81450BC
:1033900000250797ADF8205005A92046069500F0B6
:1033A000D1FA684600F046FA7020ADF8000002201D
:1033B000ADF80C000820ADF80E000120ADF810505B
:1033C000ADF81250ADF80200ADF804500295012E90
:1033D00006D0022E0DD0032E14D0042E23D11AE0D5
:1033E0006946204600F050F90821204600F072F9A5
:1033F00019E06946204600F073F90821204600F0E4
:10340000A5F910E06946204600F0AAF908212046F7
:1034100000F0DAF907E06946204600F0DBF9082100
:10342000204600F0FDF90121204600F00BF90121B2
:10343000204600F0FDF809B0F0BD0000002C01406E
:103440000004004000080040000C00400010004054
:103450000014004000340140004C01400050014085
:103460000054014000180040001C004000200040B3
:1034700070B50F4D0121284600F0F2F80D4C30B127
:10348000216801B188470121284600F0CEF80A4D95
:103490000121284600F0E4F8002808D0616A01B153
:1034A00088472846BDE87040012100F0BEB870BDD5
:1034B000002C014024E102200050014010B5012100
:1034C0008C07204600F0CCF8002809D00548416858
:1034D00001B188472046BDE81040012100F0A5B8A1
:1034E00010BD000024E1022010B5094C0121204646
:1034F00000F0B6F8002809D00648816801B1884775
:103500002046BDE81040012100F08FB810BD00003A
:103510000004004024E1022010B5094C012120469E
:1035200000F09EF8002809D00648C16801B188471C
:103530002046BDE81040012100F077B810BD000022
:103540000008004024E1022010B5094C012120466A
:1035500000F086F8002809D00648016901B18847C3
:103560002046BDE81040012100F05FB810BD00000A
:10357000000C004024E1022010B5094C0121204636
:1035800000F06EF8002809D00648416901B188476B
:103590002046BDE81040012100F047B810BD0000F2
:1035A0000010004024E1022010B5094C0121204602
:1035B00000F056F8002809D00648816901B1884713
:1035C0002046BDE81040012100F02FB810BD0000DA
:1035D0000014004024E1022070B50F4D012128465F
:1035E00000F03EF80D4C30B1E16901B1884701218E
:1035F000284600F01AF80A4D0121284600F030F85C
:10360000002808D0216B01B188472846BDE87040EA
:10361000012100F00AB870BD0034014024E102200D
:10362000001C0040C94301827047C94301827047B2
:103630000029018802D041F0010101E021F00101DF
:1036400001807047002930F8441F02D041F4004146
:1036500001E0C1F30E01018070470185828270474D
:1036600002460020138A92890B4202EA010202D02C
:10367000002A00D001207047002A828901D00A4325
:1036800000E08A438281704730B5028C22F001024B
:103690000284028C8488038B0D8823F073031D43FE
:1036A0008B8922F0020213434A8824F440741A439F
:1036B00022F00803CA891A4322F004038A881A43B5
:1036C0000B8A23434C8A1C438480058389684163A9
:1036D000028430BD028B22F008020A430283704745
:1036E00070B5028C22F010020284048C8688028B52
:1036F0000B7822F4E6454FF6FF7202EA03232B43D0
:1037000024F020058C8926F4406602EA04142C4338
:103710004D8802EA05152543CC8925F0800502EA8B
:1037200004142C438D8824F0400402EA0515254337
:103730000C8A02EA840434434E8A02EA8602224357
:103740008280038389688163058470BD028B4FF694
:10375000FF7322F4006203EA0121114301837047E1
:1037600070B5028C22F480720284028C8688838B6E
:103770000D8823F073031D4322F400740B7B4FF676
:10378000FF7202EA032323438C7826F4405602EAB0
:1037900004241C438B7B24F4006402EA03232343A8
:1037A00023F480640B7902EA032323430C8A02EAA0
:1037B000041434434E8A02EA06122243828085832F
:1037C0008968C163038470BD828B22F008020A43BA
:1037D0008283704770B5028C22F480520284048C7C
:1037E0008688828B0B7822F4E6454FF6FF7202EA58
:1037F00003232B430D7B24F4005402EA05352543B3
:103800008C7802EA04342C4326F480450E8A02EABE
:1038100086122A438280838389680164048470BD90
:10382000828B4FF6FF7322F4006203EA01211143F9
:103830008183704700210180418081808160818186
:10384000C181018241827047334910B5884202D15B
:103850000121C41455E0B0F1804F09D02F498842AE
:103860000DD101210220FFF775F9002102202DE082
:1038700001210846FFF76EF90021012026E02849C2
:10388000884206D101210420FFF764F900210420B9
:103890001CE02449884206D101210820FFF75AF98B
:1038A0000021082012E02049884206D10121102081
:1038B000FFF750F90021102008E01C49884209D187
:1038C00001212020FFF746F900212020BDE810400B
:1038D000FFF740B91649884202D10121441410E093
:1038E0001449884202D10121CC040AE012498842DD
:1038F00002D101210C0504E0104988420AD10121BE
:103900004C052046FFF73EF92046BDE81040002157
:10391000FFF738B910BD0000002C01400004004042
:1039200000080040000C004000100040001400405F
:1039300000340140004C014000500140005401405F
:10394000C16270470288154B98420ED0B0F1804F8B
:103950000BD0134B984208D0124B984205D0124B13
:10396000984202D0114B984204D18B8822F0700209
:1039700013439AB20E4B984206D00E4B984203D096
:1039800022F440738A891A4302808A68C2620A88D4
:103990000285897B0186012181827047002C0140CC
:1039A00000080040000C00400034014000040040CA
:1039B0000010004000140040254A904201D1C0147C
:1039C00033E0B0F1804F04D0224A904203D102206C
:1039D0003BE0012039E0204A904201D1042034E04C
:1039E0001E4A904201D108202FE01D4A904201D189
:1039F00010202AE01B4A904201D1202025E01A4ADB
:103A0000904201D1401410E0184A904202D14FF484
:103A100000200AE0164A904202D14FF4801004E0E0
:103A2000144A904203D14FF40010FFF79FB8124A96
:103A3000904201D1402008E0104A904201D18020FC
:103A400003E00F4A904202D18015FFF777B8704724
:103A5000002C01400004004000080040000C004021
:103A6000001000400014004000340140004C0140B0
:103A7000005001400054014000180040001C00406C
:103A8000002000407FB5044620480D4616460168D8
:103A90001F48844226D0B4F1804F23D01D48844271
:103AA00020D01D4884421DD01C4884421AD01C4896
:103AB000844217D01B48844214D01B48844211D042
:103AC0001A4884420ED01A4884420BD019488442C6
:103AD00008D01948844205D01848844202D01848BA
:103AE000844212D1002D10D003AB02AA284600F068
:103AF0004BF903210020CDE900013346BDF80C202D
:103B0000BDF80810204600F01DF87FBD3C020020E3
:103B1000002C01400004004000080040000C004060
:103B2000001000400014004000340140004C0140EF
:103B3000005001400054014000180040001C0040AB
:103B4000002000402DE9FF4FDFF84481DFF844C139
:103B50005149524A524BDFF84CB1DFF84CE1534E19
:103B6000534FDFF85091DFF850A185B0044640452F
:103B700021D0B4F1804F1BD064451FD08C421DD0A2
:103B800094421BD09C4219D05C4517D0744515D087
:103B9000B44213D0BC4211D0DFF8208144450DD08F
:103BA0004C450BD0544509D045498C426DD137E086
:103BB00001201C2536E00020192504E0644502D1CF
:103BC00002201D2504E08C4202D103201E2504E0C2
:103BD000944202D10420322504E09C4202D1052007
:103BE000362504E05C4502D10620372504E0744503
:103BF00002D107202C2504E0B44202D10820182568
:103C000004E0BC4202D10920192504E04C4502D150
:103C10000B202B2506E0544502D10C202C2501E079
:103C2000002D32D0274A089942F820102046FFF78D
:103C30000BFE01212046FFF7BFFE06990020491E1A
:103C4000029107998DF80E00491EADF80010ADF8ED
:103C50000C00019069462046FFF774FE8DF8105065
:103C600012988DF8110013988DF8120001208DF82C
:103C7000130004A8FEF7A2FE01212046FFF7D2FCA4
:103C8000012211462046FFF7F7FC09B0BDE8F08F8E
:103C9000002C01400004004000080040000C0040DF
:103CA000001000400014004000340140004C01406E
:103CB0000050014000180040001C0040005401402A
:103CC0000020004024E102207CB5044620480D4637
:103CD00001682048844226D0B4F1804F23D01E488A
:103CE000844220D01D4884421DD01D4884421AD0F1
:103CF0001C48844217D01C48844214D01B4884427C
:103D000011D01B4884420ED01A4884420BD01A4866
:103D1000844208D01948844205D01948844202D010
:103D20001848844212D101AB6A46284600F02CF8AC
:103D3000BDF800102046491EFFF702FEBDF8040042
:103D40000122401E81B22046FFF787FC7CBD0000A7
:103D50003C020020002C014000040040000800400C
:103D6000000C0040001000400014004000340140EE
:103D7000004C014000500140005401400018004038
:103D8000001C00400020004010B50D4CB1FBF4F1C8
:103D90004843C1EB0111B0EB410F01D20A210AE007
:103DA0000849884202D24FF47A7101E044F620615A
:103DB000B0FBF1F189B2B0FBF1F01180188010BDB9
:103DC00040420F0018FCE703014802F0F3BE000078
:103DD000C8DB0220014802F0EDBE0000E4DD022055
:103DE00070470A0A01219140C943018070470029A8
:103DF000818902D041F4005101E021F40051818118
:103E000070470246002012880A4200D00120704705
:103E100030B501F01F0201240025C1F3421304FA5A
:103E200002F2012B0FD0022B0FD0838A4FEA11210F
:103E30000088134204FA01F400EA040001D000B142
:103E40000125284630BD8389F0E7038AEEE710B5E7
:103E5000C1F3421301F01F040121A140012B07D03F
:103E6000022B07D01430002A026805D00A4304E070
:103E70000C30F8E71030F6E78A43026010BD00000E
:103E800030B50446008A85B00D464CF6FF710840F7
:103E9000E98801432182A1894EF6F3100140A888E8
:103EA0002A8910436A890A431043A081A08A4FF6E9
:103EB000FF410840A9890143A1826846FEF774FECC
:103EC0001948844201D1039800E00298A1890904AD
:103ED00000EBC00101EB0010296801D5490000E0AA
:103EE0008900B0FBF1F06422B0FBF2F109010B098B
:103EF0006FF018056B4300EB8300A3891D044FF09E
:103F0000320306D503EBC000B0FBF2F000F007006F
:103F100005E003EB0010B0FBF2F000F00F000843E7
:103F2000208105B030BD0000003801408088C0F31A
:103F300008007047C1F30801818070477FB50024F5
:103F4000012500948DF800500BF058FC01236A46BF
:103F50000FA1001D09F097FF0094019402940394AF
:103F60008DF800500BF04AFC10236A460BA1001D8F
:103F700009F089FF032000948DF800000BF03EFC4F
:103F800004236A4607A1001D09F07DFF7FBD0000E4
:103F9000537973436F6E66696700000053746F72E4
:103FA000616765005265636F7264657200000000AE
:103FB00002498A6810448860704700008800002029
:103FC00000EB4100052902D2B0F8010070470B292F
:103FD00001D280887047112901D2C0887047002023
:103FE0007047A0F14101192900D82030C0B27047B4
:103FF00030B589B00D4624201EF03EF998B110F17D
:10400000080410D000208DF800008DF80100242253
:1040100069462046FDF7E8F80022294620460AF0C6
:104020006BFA18B106E0002009B030BD20461EF042
:10403000ADF900242046F7E770B5ACB014460D4644
:10404000684609F0F1FC02A80022294606460AF05B
:104050006CFFA8B180220BA930460AF0B4FE9DF88F
:10406000080010F0700F04D02F2020700BA9601CE6
:1040700001E00BA92046FCF790F930460AF0F8FC65
:104080006878002800D00C202CB070BD174810B5FF
:104090000078C0070CD115480DF0CAF940B10623CD
:1040A00004221021124803F033FB1048AFF30080C4
:1040B0000F4803F0A7F900210D4803F0C5F80021CF
:1040C0000B4803F081F80A4800F030FA1DF0B2FA0C
:1040D000074800F0E7FA21F0B1FD00F0A3F94FF432
:1040E0007A70BDE81040014606F0C4B8AC0000206C
:1040F000B405002010B5044606A109F023FF0849C5
:10410000204609F04FFE2046BDE810404FF47A717A
:1041100009F034BE4D75736963506C617965720046
:1041200061830008014908607047000038000020E2
:1041300001490860704700003C00002030BF704714
:1041400070B50D4606F03AF8A88106F03FF8A8735E
:10415000074D04462878844209D014B14FF4FA7010
:1041600001E04FF42F70142106F09CFA2C7070BD02
:10417000F801002070B50D4608460AF079FC08B138
:10418000002400E0022428461EF000F9204670BDFD
:1041900010B504465FF000001DF02CF9002803D094
:1041A00001680978A142F7D110BD000030B5064D75
:1041B00004466869844205D005F11C01204600F0E0
:1041C000E1FF6C6130BD0000880000202DE9F04F58
:1041D00087B03C200DF010F8002428B100235C4A81
:1041E0005CA1009409F0D5FE01903C200DF004F88C
:1041F00028B10023564A59A1009409F0CAFE029042
:104200003C200CF0F9FF28B13023514A55A100940D
:1042100009F0BFFE03903C200CF0EEFF28B1002314
:104220004B4A51A1009409F0B4FE04903C200CF0DC
:10423000E3FF28B13823464A4DA1009409F0A9FEB6
:1042400005903C200CF0D8FF28B10023404A4BA138
:10425000009409F09EFE83463C200CF0CDFF28B16F
:104260000E233B4A48A1009409F093FE82463C206D
:104270000CF0C2FF28B10623354A44A1009409F08E
:1042800088FE81463C200CF0B7FF28B10023304A5D
:104290003FA1009409F07DFE80463C200CF0ACFF6D
:1042A00038B100232A4A3DA1009409F072FE064667
:1042B00000E000263C200CF09FFF38B10023244A88
:1042C00039A1009409F065FE054600E000253C2078
:1042D0000CF092FF28B100231D4A35A1009409F08B
:1042E00058FE07463C200CF087FF28B10023184AEF
:1042F00032A1009409F04DFE0446019800F008F93F
:10430000029800F0C5F80398FFF7F4FE049800F057
:10431000D7F8059800F08CFA584600F03DF9504661
:10432000FFF700FF4846FFF703FF404600F002FAA0
:10433000304600F077FA284600F0DAF8384600F008
:1043400023FA07B02046BDE8F04F00F017BB00008D
:104350002003002053746F7261676500436C6F63C4
:104360006B00000047505300506F776572000000EB
:1043700053706F7274537461747573005265636F18
:104380007264657200000000494D55004D414700C0
:104390005374617475734261720000004D757369E6
:1043A00063506C6179657200547A436F6E760000D9
:1043B000537973436F6E66696700000054726163DE
:1043C0006B46696C74657200F8B51546134B02466E
:1043D000406BDA60B1F90430B1F90040B1F9067010
:1043E000B1F902201E1BB91A491C761C16FB01F1FB
:1043F0004E0000970168CF6C2146B8470848D0F8B6
:104400000021B0F80C115161B0F84C10006C016142
:1044100031462846BDE8F84000F01EB9E80100200A
:104420001418040810B50F481BF0D6FC0D482F21B6
:1044300001700D4941600D4981600D49C1600D4910
:1044400001610D4941610D4981610D49C1610D490C
:1044500081620D4901620D494162BDE810401BF0C7
:10446000BFBC000064DA02207F500008D74D00086E
:1044700061500008354E000883500008554E000872
:10448000854E000875410008F13F000839400008DA
:1044900010B5044606A109F055FD07A1204609F014
:1044A00051FD2046BDE81040044909F07BBC0000E6
:1044B000547A436F6E760000475053001D84000805
:1044C00010B5044606A109F03DFD0849204609F053
:1044D00069FC2046BDE810404FF4FA7109F04EBC6B
:1044E0004D75736963506C61796572007D84000855
:1044F00010B5044604A109F025FD2046BDE8104092
:10450000024909F04FBC0000475053009185000854
:1045100010B5044909F046FCBDE81040024805F01A
:10452000A3BE0000F98B0008718C000810B5104C78
:1045300010A215A1206016A012F02AFC012120680B
:1045400002F0AAF80121206802F0A2F820680022F7
:1045500001680B6D114698470021206802F051F95F
:104560002068BDE810401F224FF6FF7102F099B895
:10457000B000002076312E34204A756C2032342071
:10458000323032310000000076312E300000000061
:10459000582D545241434B0010B5044608A109F070
:1045A000D1FC08A1204609F0CDFC08A1204609F065
:1045B000C9FC2046BDE81040074909F0F3BB0000E4
:1045C00047505300436C6F636B000000547261638B
:1045D0006B46696C746572004D8F000810B501213F
:1045E0008CB00846FEF79EFA184C2046FDF7DEFB1D
:1045F0006846FDF797FB1020002102900891000209
:10460000CDE90901124800680190802005904FF61D
:10461000FF7003900F48079104910691009069463E
:104620002046FDF7A5FB0B48012202210C38FEF7BE
:1046300029FD4FF0E0214FF40050C1F800010122A4
:1046400002212046FDF78CFB0CB010BD300002406B
:10465000E80100200C30014070B50C460F490546BA
:10466000B4F5803F08D3486808B9281948604FF668
:10467000FF742819886002E0002088604860084EB6
:1046800000213046FDF736FB05483038C5634463EA
:104690003046BDE870400121FDF72CBBE801002049
:1046A0003000024010B50446FFF798FF0E484FF463
:1046B0006143002201680D4819F089FE0B4824303F
:1046C00019F094FE0949F0202431088048800848F8
:1046D000C8600848C86105484C634860BDE81040A0
:1046E000243019F0A3BE0000E8010020E8170120E3
:1046F000C94300083D41000810B50D4C0B486178D6
:1047000000EB01100168CA6880894240CA6023F04A
:10471000CDF9E168884207D92078002804D1607873
:10472000BDE8104000F012BB10BD000014180408D2
:104730002002002010B504460AA109F003FC0AA1DA
:10474000204609F0FFFB0AA1204609F0FBFB0AA165
:10475000204609F0F7FB0A49204609F023FB0948E7
:10476000446010BD47505300506F776572000000E1
:10477000436C6F636B00000053746F726167650078
:10478000B18B00084C0000207FB5054616A109F04A
:10479000D9FB1749284609F005FB16A00190012115
:1047A0001A48ADF80C10022402908DF80E108DF806
:1047B000004010236A460CA1284609F064FB14A0AF
:1047C000019012488DF80040401C02901020ADF876
:1047D0000C0004208DF80E0010236A4602A1284622
:1047E00009F051FB7FBD000053746F726167650073
:1047F00041940008737973436F6E6669672E736F17
:10480000756E6444697361626C6500005804002031
:10481000737973436F6E6669672E6C616E6775613D
:1048200067650000014909F0BDBA000015A700083E
:104830002DE9FF4107462FA109F084FB2EA1384640
:1048400009F080FB2EA00190022434480425029038
:10485000ADF80C508DF800408DF80E4010236A46DC
:1048600025A1384609F00FFB2DA001902B48ADF88B
:104870000C500838029001268DF800408DF80E602B
:1048800010236A461CA1384609F0FDFA2CA00190BD
:104890002248ADF80C50001F02908DF800408DF8B2
:1048A0000E6010236A4614A1384609F0ECFA2CA0D9
:1048B00001901A48ADF80C50143802908DF8004061
:1048C0008DF80E4010236A460BA1384609F0DBFA3A
:1048D0000AF098FF1149183908632749384609F04A
:1048E00061FA04B03846BDE8F0414FF4FA7109F0BE
:1048F00045BA00004750530053746F7261676500FA
:1049000073706F72745374617475732E746F746105
:104910006C44697374616E6365000000C803002015
:1049200073706F72745374617475732E746F7461E5
:104930006C54696D6555494E5433325B305D0000EF
:1049400073706F72745374617475732E746F7461C5
:104950006C54696D6555494E5433325B315D0000CE
:1049600073706F72745374617475732E73706565B0
:10497000644D61784B706800E9A7000838B50446BB
:1049800013A109F0DFFA1349204609F00BFA0F21B1
:1049900011480AF0C2FD114C2079C0070FD1201D2B
:1049A0000CF046FD58B10C486946103825F0BEFDA4
:1049B0000B4A0C49FBF728FD201DAFF30080064889
:1049C0009FED090B1038A060583003F02AF838BD6D
:1049D0004750530079A900088004002040000020BF
:1049E0000000000837A50208000000000000004099
:1049F000C9B2002220F0E7BF70B5384C06462068E7
:104A000001680A6C1F2190474FF6FF71206801F082
:104A100045FE3349206801F0F4FE0221206801F0D0
:104A200037FE2068222201680B6D002198472DA1D6
:104A3000206808F053FF0021206801F0E2FE012108
:104A4000206801F025FE256828460BF063FE00EB88
:104A5000D0706FF00C0101EB600002B228680021F9
:104A6000036D284698473146206808F077FF1EA15D
:104A7000206808F033FF256828460BF04BFE3038DD
:104A800002B228680021036D284698471CA12068BF
:104A900008F064FF1D4802681DA1206808F04AFF65
:104AA0001A48001D02681FA1206808F043FF17483C
:104AB0000C38026820A1206808F03CFF1348083831
:104AC000026822A1206808F035FF1048001F026824
:104AD0002068BDE8704022A108F02CBFB000002083
:104AE000ACA803083A2800005072657373204B4548
:104AF0005920746F207265626F6F742E2E00000053
:104B00004572726F7220636F64653A0034ED00E0A5
:104B10004D4D464152203D203078253038580D0A01
:104B2000000000004246415220203D2030782530D0
:104B300038580D0A000000004346535220203D2003
:104B40003078253038580D0A00000000484653528E
:104B500020203D203078253038580D0A0000000014
:104B60004446535220203D203078253038580D0AD5
:104B70000000000000B5FFF719FB0148007900BDF7
:104B8000A400002010B500F005F8BDE81040FFF7C4
:104B9000F1BF000070B5134C4FF47A7505E0A068C2
:104BA00001F57A71401CC4E9020122F07FFFE1683F
:104BB000401AA842F3D2A168206988420FD8A069A0
:104BC00068B1804710B100F07BF908E02546D5E9CF
:104BD000011008442061207800B101202070A068F5
:104BE00070BD00008800002000B5FFF7DFFA014823
:104BF000807800BDA400002010B5FFF7CBFFBDE812
:104C00001040FFF7F1BF000030B50D002DED028B15
:104C100083B002D023498D4206D903B0BDEC028B8C
:104C2000BDE8304000F092B81F4C9FED208A6070C4
:104C300001202070D4E9011088421ED0002100918B
:104C4000FF2201911A4B1146FEF77CFF00EE105A2D
:104C5000A068B8EE400AC8EE000ABCEEE00A10EE0A
:104C6000101AFFF731F80121A068FEF7E1FCA068F7
:104C7000606003B0BDEC028B30BD00EE105AB8EEA0
:104C8000400AC8EE000ABCEEE00A10EE101AFFF768
:104C90001BF8A06803B00121BDEC028BBDE83040D9
:104CA000FEF7C6BC20A10700200200200024F44823
:104CB000F946000810B5144669B1094A91420AD86C
:104CC0004CB1FFF7A1FF22F0F1FE01190548C160C8
:104CD0000021017010BDBDE8104000F037B80000A1
:104CE00020A107002002002000B5FFF75FFA02486C
:104CF000807900F2B27000BDA400002010B5FFF76B
:104D000049FFBDE81040FFF7EFBF000000B5FFF717
:104D10004DFA0148407900BDA400002010B5FFF70E
:104D200039FFBDE81040FFF7F1BF000000B5FFF705
:104D30003DFA0148407800BDA400002010B5FFF7FF
:104D400029FFBDE81040FFF7F1BF000070B5074C28
:104D500005460021A068FEF76BFC054800EB051036
:104D60008189006841610020207070BD2002002010
:104D70001418040800B5FFF719FA0148007800BDBF
:104D8000A400002010B5FFF705FFBDE81040FFF7B5
:104D9000F1BF00001FB51C4608F056FD04494968E4
:104DA00004B0204610BDAFF30080AFF30080F7E7FA
:104DB000B002002013B5002401200CF01DFA0446B7
:104DC00020460CF011FA4FF0FF301CBDAFF300800D
:104DD000AFF30080F4E7F0B500258BB00F46012A51
:104DE00004D0022A05D0032A02D002E0012500E007
:104DF00012252C201DF040FA040012D0684608F05D
:104E000013FE04F108002422064602A9FCF7ECF97F
:104E1000019860602A463946304609F06DFB18B1AA
:104E200006E000200BB0F0BD20461DF0AFFA0024D4
:104E30002046F7E770B5154608461A462946083059
:104E4000049C09F037FD002801DA022070BD2060C3
:104E5000002070BD10B501F108002BB1012B05D069
:104E6000022B06D00C2010BD114607E04169114409
:104E700004E00178C1F3C00111B1C1690AF00FF873
:104E8000002010BDC86910600020704770B5DDE9D2
:104E90000464632C02DDA4F2B27400E01E34074DFA
:104EA000AC716E712B71A87069702A70284600F081
:104EB000F7F8BDE8704000F003B80000A40000203F
:104EC00010B5054CA0606168084420610220207084
:104ED00022F0ECFDE06010BD880000207FB5FFF7F8
:104EE00075F919F01DFB19F059FB324A002120F029
:104EF00007FABDF80000002464F3020080B264F3F6
:104F0000C70080B264F30C2080B264F34F30ADF878
:104F1000000080B20090BDF8005019F001FB294656
:104F200019F068FB244801F01FFE19F0F9FA19F096
:104F30002DFB0BF0A1FB21A224A1274800F058FF74
:104F400026A22AA1244800F053FF2AA22DA122481C
:104F500000F04EFF2EA233A11F4800F049FF34A2FB
:104F600037A11D4800F044FF374B4FF4FA7203217C
:104F7000194800F09CFE00222DA1174800F003FF05
:104F800000940194029403948DF800400AF036FCDA
:104F900010236A462DA1001D08F075FF00948DF8BE
:104FA00000400AF02BFC01236A462AA1001D08F0EC
:104FB0006AFF7FBDFFFF0F00940500205061676509
:104FC000732F5F54656D706C6174650054656D700E
:104FD0006C61746500000000C802002050616765C4
:104FE000732F4C6976654D61700000004C697665E1
:104FF0004D61700050616765732F4469616C706C1E
:10500000617465004469616C706C617465000000D6
:1050100050616765732F53797374656D496E666F60
:105020007300000053797374656D496E666F730089
:1050300050616765732F537461727455700000007E
:10504000537461727455700009D6010853746F72FD
:1050500061676500537973436F6E6669670000008E
:1050600070B50C4601F1080009F002FD08B10025F9
:1050700000E0022520461DF089F9284670BD04F0A5
:105080008BBF10B5084611461A460830029C09F03D
:105090009FFD002801DA022010BD2060002010BD15
:1050A0002DE9F0438179334B0A46594300236424A8
:1050B000A500314F17E000BF03F2B276002E11DDDC
:1050C0004FEA837CBCF1004F0CD196FBF4FC04FB4F
:1050D0001C6CBCF1000F04D196FBF5FC05FB1C66B3
:1050E00006B939445B1C9A42E6DC0123DFF88C9058
:1050F000DFF88CC047791EE0022B11D19607B6F17C
:10510000004F0DD102F2B276B6FBF4F804FB18683A
:10511000B8F1000F2BD1B6FBF5F805FB186636B3D6
:105120000CEB030640F2A32816F8016C16FB08F6F8
:1051300001EBC6115B1C9F42DEDC027940F2A32327
:1051400012FB03F201EBC2110B4A52421144827866
:10515000C2EB4213C3EB022201EB0211427800784A
:10516000C2EB021201EB82010844BDE8F08349441E
:10517000E0E700008033E10180510100803B260020
:10518000F49F03083C22B0FBF2F32DE9F04302FB4D
:105190001303B0FBF2F00B70B0FBF2F302FB13034E
:1051A000B0FBF2F018224B70B0FBF2F3B0FBF2F45C
:1051B00002FB13038B70201D0722B0FBF2F302FBEE
:1051C0001300401CC8700020642205464FF4B77CD1
:1051D00040F26D19930001E0401CC0B28707B7F19F
:1051E000004F0DD100F2B276B6FBF2F802FB186860
:1051F000B8F1000F0ED1B6FBF3F803FB18664EB101
:105200004E463544A542E7D986078871B6F1004F6E
:1052100002D00FE06646F4E700F2B276B6FBF2F891
:1052200002FB1868B8F1000F05D1B6FBF3F803FBD9
:10523000186606B1CC46A5EB0C05651B0024DFF80B
:105240004CC000F2B27001E0012C0ED01CF80460DA
:10525000B54204D3641CAD1BE4B20C2CF4D3641C23
:105260004C716D1C0D71BDE8F083B7F1004F09D191
:10527000B0FBF2F602FB160636B9B0FBF3F603FB01
:1052800016060EB11C26E3E71D26E1E7F49F03088E
:1052900010B522F00BFC80B210BD000010B50C461A
:1052A00024A12046FBF75EF8A8B125A12046FBF714
:1052B00059F8C8B124A12046FBF754F8F0B125A154
:1052C0002046FBF74FF810B325A12046FBF74AF81C
:1052D00030B3002010BD44200BF08EFF0028F9D021
:1052E000BDE8104007F0AEBF4FF400700BF084FF34
:1052F0000028EFD0BDE8104007F076BED8200BF0B4
:105300007BFF0028E6D0BDE8104008F05BB9E02044
:105310000BF072FF0028DDD0BDE8104006F020B988
:1053200044200BF069FF0028D4D0BDE8104007F0FE
:10533000DFBE000054656D706C6174650000000094
:105340004C6976654D6170004469616C706C617484
:105350006500000053797374656D496E666F730064
:10536000537461727455700013B504460198211D81
:10537000884204D00168204600F01FF808B10020E0
:105380001CBD04F1400001AAD0E90113994206D0E6
:10539000091D4160091F04D00198086001E025F053
:1053A00056F901980168201D08F0CCFD01201CBDB4
:1053B0000A4600F1400100F019B80A4600F1400128
:1053C000AFF300802DE9F041D1E90046154606E033
:1053D000276828463968FAF7C5FF28B1241DB4426A
:1053E000F6D10020BDE8F0813846FBE730B50C6807
:1053F0004B68204600E0001D984202D005689542A7
:10540000F9D1834201D1002030BD9C420AD0021D57
:10541000934202D103E010CA10C09A42FBD14868FF
:10542000001F4860012030BD38B5002402460D46FB
:105430002346001D009408F0ACFDC463046444647A
:1054400040F8045D38BD10B500F14004006C62689E
:10545000014600E0091D9142FCD1A1680022091A11
:10546000891008F0F5F8A4F13C0008F0CEFD001F0B
:1054700010BD002101804160017270470021418010
:10548000704770B502690D46044672B36088218882
:10549000884220D26168A9421BD2E36800EB400039
:1054A000042101EB4001595A33F8100090476188FC
:1054B000E06801EB4102022303EB4202805A228999
:1054C0005043C21700EB126005EB2020491C6060BE
:1054D0006180012070BD08D16068A84205D200211A
:1054E000084690476088401C6080002070BDC368FB
:1054F0008B4202D0C160028042807047002101616E
:10550000C1604FF4807101817047C161704770B50F
:105510000446C0690D4600286FD0012675B1207978
:1055200080B92671267022F0C1FA2061E26901215A
:1055300020469047E26907212046904720790028BD
:105540005BD0DDB1E2690221204690472046216907
:1055500000F054F8E18888424FD302202071A07EE9
:10556000E8B32046E16800F049F82189884244D335
:1055700022F09CFAE0600421E2692FE00025257109
:105580002046616900F03AF86189884206D2208B92
:10559000401C2083E2690A2120469047A07E18B172
:1055A000E269052120469047A576667022F07EFAD2
:1055B00060612046216900F021F8E188884203D229
:1055C000E269092120469047E26908212046904778
:1055D000E2690621204690470721E26900E003E0E6
:1055E0002046BDE870401047E269032120469047FD
:1055F00022F05CFAE060A676A67070BD10B50C468D
:1056000022F054FA001B10BD2DE9F0410F4604466C
:105610001D4616461C21001DFAF768FEE78026810C
:105620006581002020616061E060A0762071E0610A
:105630002046BDE8F08108B56B46001D1AF066FCF7
:10564000009808BD10B5044600206060A060201DD1
:105650001AF002FC2070204610BD10B51030044630
:1056600024F0E6F908B1002010BD204624F047FDE3
:10567000006810BD70B50C460546002C29D094F882
:105680002400082825D2DFE800F02404090E1317AF
:105690001C252146284600F0FDF90AE0214628464F
:1056A00000F014FB1AE02146284600F008FB15E044
:1056B000052084F82400E0E72146284600F02BFB73
:1056C0000CE02146284600F012FB84F8240007284D
:1056D000D3D070BD2146284600F09AFA84F8240001
:1056E00070BD2DE9F041D0E901450E4606E027687E
:1056F0003046F968FAF736FE28B1241DAC42F6D1DF
:105700000020BDE8F0813846FBE7000010B50C46EC
:1057100000230122084920461CF0D4FF0023022266
:10572000054920461CF0CEFF20460023BDE810406E
:10573000082201491CF0C6BFFD58000810B5C26B15
:10574000002122B192F829200AB1012300E00023B0
:10575000026C92F829401C4304D1002180F84410C7
:105760000121C263084610BD70B504460D460846C7
:1057700017F0E2FE94F848000A2805D0B4F84A0071
:10578000A862E06CA86170BD0020F9E730B50D4655
:105790008BB000F11001684624F01DFD0CE000BF45
:1057A00024F0ADFC04682846E168FAF7DBFD002828
:1057B00068460CD024F058FD684624F039F90028DA
:1057C0006846EDD024F033FD00200BB030BD24F04E
:1057D0002EFD2046F9E700002DE9F04114460E4663
:1057E00018F09EFE18F0B4FE054618F099FE18F069
:1057F000EBFE01460020022201230B2E67D2DFE8D8
:1058000006F066060D15171F2A35404B5600237209
:105810006581A081E0812082608218E02372694264
:105820006181A081E081208260821BE0227201E020
:10583000227249426181A081E081208260821CE065
:1058400023726581A081E081694221826182A08208
:10585000E08225833DE0237269426181A081E0817D
:1058600025826582A082E082218332E022726181FA
:10587000A081E0814A4222826282A082E08221836A
:105880002BE022724A426281A081E0812182618202
:10589000A082E082228320E020726081FF21A1812A
:1058A000E18121826182A182E182208308E01C21C2
:1058B0002046FAF71BFD207A01280AD002280CD0D6
:1058C00008482060084860600120BDE8F0810020A1
:1058D000FBE7064820600648F5E7064820600648D2
:1058E000F1E700001384000805840008355B020816
:1058F000CF4402086D5B0208074502082DE9F0431A
:105900009FB004461AF05BF9064600695FEA00089A
:1059100040D020461AF02AF9D8F808500446284604
:1059200007AA95F84810FFF757FF002832D04FF02C
:105930000009012C20D0022C2FD0082C2AD195F858
:105940004400002826D1BDF82800BDF82610ADF887
:105950001890401A07B2ADF80C9003A906A800F001
:105960002DF90899304688479DF8241004460129EE
:1059700043D0022944D047E095F84400002809D1DB
:1059800095F84500002805D03046079917F092FD9C
:1059900085F845901FB0BDE8F083089930468847E8
:1059A0000446BDF93200BDF93410884201DD0546D8
:1059B00000E00D4601DA074600E00F461BF014FD3B
:1059C00002A91BF057FD9DF82400012802D00228EF
:1059D00003D006E0BDF8080001E0BDF80A0020444D
:1059E00004B2BC4201DA3C4602E0AC4200DD2C4687
:1059F000079A214630469047CCE7BDF8181001E0E1
:105A0000BDF80C10601800B2002F00DC7F420028A7
:105A100001DD014600E0414207EBD772B1EB620FB6
:105A200004DD41460E4818F001F8B3E7BDF928102F
:105A30008142AFD0012085F845000EA92846FFF726
:105A400093FEBDF928000E96CDE9164007980F90F9
:105A500004481190139515940EA817F029FE99E7A4
:105A6000B35B0008A95B000838B50546FFF7F5FDF4
:105A7000009000280DD005F11000044624F0F4FB3E
:105A80002846FFF7EAFD05462046694624F08CFBD0
:105A9000284638BDF0B587B00C46054618F040FDE5
:105AA00018F07CFD1DF048FA064618F039FD18F094
:105AB0008BFD074618F034FD18F04AFD01463A46C2
:105AC00030461FF063FE102130461DF0B8F93461F6
:105AD00066602068C1682046884795F8480001261E
:105AE000401E032813D82846FFF7BEFF78B1C07EBA
:105AF00068B128466A4695F84810FFF76DFE30B148
:105B00009DF8080018B128466168FFF7FFFD20687E
:105B1000016920468847A07E10B1207EE07600E033
:105B2000E67607B00220F0BD30B599B00C460546C8
:105B300011AA90F84810FFF74FFE00282FD06946B1
:105B40002846FFF711FE0594606800901548039001
:105B5000119801901299002009B16068884795F862
:105B60004610002994F8281008D021B1BDF94E0044
:105B7000BDF950100AE0BDF9541007E021B1BDF99C
:105B80005600BDF9581001E0BDF95C100790CDE951
:105B90000801684617F08CFD012084F8290019B02F
:105BA00030BD0000415C00084069002180F84510CC
:105BB00070470022406810211AF006B838B50C462C
:105BC00005461BF011FC69461BF054FC00231A46E5
:105BD000642108E0034400EB8000000190FBF1F039
:105BE0001BB2ADF80200BDF902000028F2D108E0B6
:105BF000024400EB8000000190FBF1F012B2ADF81E
:105C00000000BDF900000028F2D12A80238038BDB1
:105C100070B548680C4688B1E069002528B1216A52
:105C200019B11CF0B3FBE561256260681DF0BEF997
:105C30006560E5762068416A20468847002070BD8F
:105C400070B545692946AC682046FFF713FD002072
:105C500085F829002046FFF771FD94F846100029C9
:105C600007D1002805D02046216CBDE8704000F027
:105C70000BB870BD90F8441011B990F8450008B108
:105C8000002070470120704791F82C2052B10A2A59
:105C900003D9D0E91423C1E90B23D1E90B21C0E9D1
:105CA00012217047D0E91412C0E9121270470A2974
:105CB00000D90A2100F8501F42804360704710B598
:105CC0000846096889698847042010BD70B50546F3
:105CD00008680C46416920468847012160681DF02C
:105CE000AEF821462846FFF71FFF032070BD10B510
:105CF00090F848000C46092803D1012160681CF087
:105D00001DFD2068016A20468847E07E08B1022018
:105D100010BD072010BD70B5054608680C46C16966
:105D20002046884721462846FFF7FEFE062070BD24
:105D300070B50446FFF79EFF002823D02046FFF7EA
:105D40008CFC00281ED0817E09B90021C176216A11
:105D500004F11000091F2162216B491E2163226A90
:105D600002D041698A4201D124F0D8F82046FFF7D9
:105D700074FC050005D0002301461A46204600F0B9
:105D800079F8284670BD2DE9F04117460C460646C5
:105D9000FFF770FF002805D021463046FFF7F6FCDC
:105DA00010B10020BDE8F08121463046FFF799FC94
:105DB000051EF7D0687EA876306B06F1100418B186
:105DC000A1692069884202D1204624F0DDF82069CB
:105DD00000B1056020693B46001D2061206A012258
:105DE000401C20622946304600F044F82846D9E796
:105DF0002DE9F0410746006815460E4600281BD0E5
:105E000001680A6831469047041E15D00020606082
:105E10002082A06060611C2104F11800FAF766FA84
:105E2000206881682046884705B935462A462146BC
:105E3000384600F003F82046BDE8F08137B5154636
:105E400004461146FFF74DFC08B100203EBD019B02
:105E5000201D01AAC3E90245D0E90114A14205D0E1
:105E6000091D4160091F03D00B6001E024F076FC9E
:105E700001203EBD2DE9F0471E4691460D00044627
:105E800054D094F84400002850D14FF0010884F811
:105E900044806EB1EF6997B1286A7168884207D172
:105EA000D6E900123846FBF79FF9EF617068286267
:105EB0002564E87E48B1022085F8240007E0706878
:105EC0001CF0DAF90700EBD1F2E785F82480E06BEB
:105ED00010B1002180F82810216C5FEA090081F8D8
:105EE000288084F8460003D02046216CFFF7CCFEC2
:105EF0002046E16BFFF7BEFB2046216CFFF7BAFBA3
:105F000094F8460030B1E06B10B140681EF01EFE00
:105F1000206C06E0206C40681EF018FEE06B002844
:105F200004D04068BDE8F0471EF010BEBDE8F08721
:105F300070B58CB00024C0E900148460C46000F126
:105F400010066D4628460A9424F01CF9294630466E
:105F500024F041F9A0F11005684624F068F9EC63DB
:105F6000142105F144002C64FAF7C0F9044B4FF4F6
:105F7000FA7201212846FFF79AFE0CB0284670BD40
:105F800009D6010810B5103024F051F9A0F10C0425
:105F9000216860680B4600E01B1D8342FCD1A068AD
:105FA000401A8210204623F0B7FD201F10BD0021AB
:105FB0004170406842F21071B0FBF1F0C0B270471E
:105FC0000021417040686421B0FBF1F201FB120036
:105FD00000F5FA6080B2704700214170416864208A
:105FE000B1FBF0F1B1FBF0F200FB1210704710B5FD
:105FF00004468068606021F059FDE0600120607017
:10600000207010BD70B5054600782D280AD00026F6
:106010002846FAF7DBF9642100FB01F4FAF720F9CE
:10602000006803E001266D1CF2E76D1C2978415CD5
:106030002029FAD029782E290FD16978425C202AAC
:106040000BD101EB810104EB4104A978A4F5F074B4
:10605000405C202801D1303C0C440EB1604270BD40
:10606000204670BD2DE9F0410F460446FAF7AEF91F
:106070006421B0FBF1F201FB1205B0FBF1F0144E0C
:1060800038807543FAF7ECF8016800E0641C20786A
:10609000085C2028FAD020782E2807D00CE000BF1A
:1060A000B6FBF2F6303800FB065500E00A2214F881
:1060B000010F0B5C202BF3D005EB85000321401C66
:1060C000B0FBF1F0786000203872BDE8F08100008C
:1060D0008096980010B553EC132B2DED0E8BB0EE7F
:1060E00042AAF0EE62AAB0EE40BAF0EE60BA51EC0D
:1060F000110BFAF741FA9FED5A8B53EC182BFAF774
:1061000041FA41EC190BB0EE490AF0EE690A0BF0C6
:1061100083FEB0EE40EAF0EE60EAB0EE490AF0EE3F
:10612000690A0BF031FCB0EE40CAF0EE60CA53ECE5
:10613000182B51EC1B0BFAF725FA41EC190B53EC19
:10614000182B51EC1A0BFAF71DFA41EC180BB0EEB4
:10615000490AF0EE690A0BF05FFEB0EE40BAF0EECD
:1061600060BAB0EE490AF0EE690A0BF00DFCB0EE31
:1061700040AAF0EE60AAB0EE480AF0EE680A0BF012
:106180004BFEB0EE409AF0EE609AB0EE480AF0EEA8
:10619000680A0BF0F9FBB0EE408AF0EE608A53EC2F
:1061A000182B51EC1B0BFAF7EDF953EC1C2BFAF7FB
:1061B000E9F941EC1D0B53EC192B51EC1A0BFAF7D2
:1061C000E1F953EC1D2BFAF7D7F941EC100B53EC26
:1061D000102BFAF7D7F941EC1D0B53EC1E2B51ECA9
:1061E000180BFAF7CFF941EC110B53EC112BFAF71E
:1061F000C9F953EC1D2BFAF71EF941EC100B0BF00B
:1062000037FFB0EE40DAF0EE60DA53EC182B51ECC9
:106210001A0BFAF7B7F953EC1C2BFAF7B3F941EC68
:10622000180B53EC192B51EC1B0BFAF7ABF953EC91
:10623000182BFAF700F941EC110BB0EE4D0AF0EE15
:106240006D0A0BF0A9FA9FED081B51EC100B53ECF3
:10625000112BFAF797F9BDEC0E8B41EC100B10BD2A
:10626000000000A046DF913F000000C06E4F584183
:1062700070B5044690F8A900002864D094F8AB10DB
:10628000204600F084F9024694F8AA10204600F057
:106290007EF902EB001094F8A810C0B281424DD1F3
:1062A000D4F8D400401CC4F8D40094F8BC0020B149
:1062B000D4F8CC00401CC4F8CC0094F8B91004F118
:1062C00048000546A1B1012926D11038FFF78FFEFD
:1062D000284600F0B3F994F8BC00E8B1204601F07C
:1062E000F5FA04F1580000F054FF04F1680011E0E1
:1062F00000F0A4F994F8BC0030B1204601F0E6FAB1
:1063000004F1780000F045FF04F1880000F051FF2F
:1063100004F1980000F03DFFD4F8C45003E0284693
:1063200000F03AFC2D6B3DB1D4F8C400816AA86A34
:10633000FAF718F80028F2D0012070BD54F8D00FF9
:10634000401C2060BAE094F8BA2004F1AA05AAB172
:1063500094F8B910022954D094F8AA00002850D01B
:1063600042EA4111212948D03EDC0A2949D2DFE81E
:1063700001F08F4451565F647B7E848A51A1284688
:10638000F9F7F0FF0026A0B150A12846F9F7EAFF7F
:1063900078B150A12846F9F7E5FF60B14FA1284632
:1063A000F9F7E0FF38B1022084F8B900D4F8C00052
:1063B00005E00120F8E784F8B960F7E7006BC4F85E
:1063C000C40090B3806A2946F9F7CCFF0028D4F8BE
:1063D000C400F3DB48B3806A2946F9F7C3FF0028FD
:1063E0006CDDC4F8C46069E02239082950D2DFE8C6
:1063F00001F00911161F242C31362846FFF702FE42
:10640000206545E0412801D1012000E0002084F80A
:10641000BC003DE02946204601F0F8F938E0532859
:1064200004D0002084F8240032E047E00120F9E79E
:106430002946204601F0F0F92AE0572803D0002031
:1064400084F8300024E00120FAE72846FFF7DAFD5F
:1064500060661DE02846FFF7D5FD606718E0284616
:10646000F9F7B4FF206413E03028CFD9CCE72846F1
:10647000F9F7ACFFC4F894000AE02846FFF7C2FD24
:10648000C4F8A40004E02846FFF7BCFDC4F884006B
:10649000D4F8C46005E003D12946304600F079FB0A
:1064A000366B5EB1D4F8C400816AB06AF9F75AFF5E
:1064B00020B994F8BA10F06A8842ECDD4FF0000081
:1064C00070BD00004750524D43000000474E524DF2
:1064D000430000004750474741000000474E4747F0
:1064E0004100000070B50446D0F8C8000026401CEA
:1064F000C4F8C8000D4604F1AA00242936D004DCF3
:106500000A2D18D00D2D04D115E02A2D13D02C2DD5
:106510000CD094F8BB100E2904D20A46491C84F80A
:10652000BB10155494F8A90058B32EE094F8A810A5
:10653000694084F8A81094F8BB2000210F2A04D2E7
:1065400016542046FFF794FE014694F8BA00401C0A
:1065500084F8BA0084F8BB602A2D05D05FF00000F3
:1065600084F8A900084670BD0120F9E784F8BB60F3
:1065700084F8BA6004F8A86F02206074667026750B
:1065800003E014F8A80F68402070002070BDA1F14E
:106590004100052801D80A307047A1F161000528A3
:1065A00001D80A307047A1F13000704710B50024BF
:1065B00000F8014B00F8034BFEF75BFF0C30FEF7D1
:1065C00058FF0C30FEF755FF0C30FEF752FFA0F1DC
:1065D000280100F8104F4470446001F14800047035
:1065E00044701030CC6400F0DFFD103000F0DCFDB2
:1065F000103000F0D9FD00F8104F44708460103066
:1066000000F0D2FD00F8104F0221447041748474F0
:10661000C47404758461C461046244628462C462A7
:106620008470A83810BD0000002141704068024904
:10663000B0FBF1F0C0B2704740420F0010B5044605
:106640008068606021F032FAE060012060702070A4
:1066500010BD00214170406842F21071B0FBF1F0B2
:106660006421B0FBF1F201FB120070470021417080
:1066700041686420B1FBF0F1B1FBF0F200FB1210B5
:106680007047704730B40468E468A44630BC604783
:1066900001B901210176704781767047C1828182FC
:1066A00070478182C28270472DE9FC410446006830
:1066B0000E461F4601691546DDF8208020468847B2
:1066C000E919491E09B2CDE90018206833462A4667
:1066D000476A19462046B8472068816A02B02046BA
:1066E000BDE8F04108477CB5DDE90645CDE9004548
:1066F0000468E46BA0477CBD38B5049C0094046832
:10670000646BA04738BDFEB50446C0690022E8B3FB
:106710000A296DD00D2937D0037A994234D3457AAE
:106720008D4231D34568CB1A05EBC305AB78EE78C3
:106730001BB316B395F90570A67E86B1B4F910C0E7
:10674000267E3B4416FB03C3B4F90C70BB4206DD46
:106750002282B4F91220807A16FB00206082A08A7F
:10676000237EE28A8DE80D00B4F910000B46014645
:10677000B4F91220204600F051F8B4F9100029793C
:10678000227E11FB020020820120FEBDFFE70A29C4
:1067900028D00D29F8D0A07E78B1207EB4F9103031
:1067A00000EB400503EB4503B4F90C50AB4204DDAC
:1067B0002282628A02EBC0006082A08A237EE28A83
:1067C0008DE80D00B4F910000B460146B4F9122013
:1067D000204600F023F8217E208A01EB410100EBE6
:1067E0004100D0E72282608A217E00EBC10006E0F2
:1067F0002282B4F91210227E807A12FB001060828D
:10680000C2E7C26919B132B9428A921D02E012B1DF
:10681000428A921F4282C161704700002DE9F04F09
:1068200091B08946DDE91BA4C1691F469346054620
:1068300029B3087A4A68181AC0B202EBC000096886
:106840000A910188049181780891C178079190F9A3
:1068500005100D914FF0000890F90600CDF8148056
:10686000C246CDF818800F90012C02D90F980691DE
:10687000059028680169284688470020C0E0B5F9DE
:106880000C1049457ADDB5F90E10594576DD04EB5B
:10689000440109EB4100012870D40BEBC40001282E
:1068A0006CD4E87E18B9B02F01D35F1CFFB2286802
:1068B00001692846884707EB870000260390811965
:1068C0005E48002710F801805FEAC87016D0012CDE
:1068D00009D01A98CDE9004007FB04B002B206FBCC
:1068E000049001B217E00BEB070002B209EB0600BF
:1068F00001B228681A9BD0F814C028E01A98824583
:106900000FD0012C19D007FB04B002B206FB049093
:10691000CDE9004A01B228682346D0F818C02846BD
:10692000E0477F1C7FB24FEA5808082FCCDB761C6B
:1069300076B2052E0EDA0398C1E70BEB070002B220
:1069400009EB060001B228685346D0F814C0284667
:10695000E047E6E71A998A4556D0012C0FD0E100AE
:10696000CDE9001A04EB840101EB090001B22868AB
:1069700023465A4686692846B04745E05BE0CDF895
:1069800000A0286808235A46C46909F1050001B22D
:106990002846A04738E000262CE000BF5FEA4A7195
:1069A0000AF1010000F0FF0A06D10A99049811F8D3
:1069B0000080401C80B204905FEA086014D5012C6E
:1069C00029D01A982346CDE900400599039801443F
:1069D00001FB04B002B20698811901FB049001B2D8
:1069E000286887692846B8474FEA4860761C4FEA0E
:1069F0001068F6B208988642D0D30398401CC0B203
:106A0000079903908842C6D32868816A11B0284646
:106A1000BDE8F04F08470F990398594408440D9971
:106A200002B209EB0100304401B228681A9B4769A1
:106A30002846B847D8E711B0BDE8F08F34120408F3
:106A400070472DE9F843054600680C46DDE90887E4
:106A500001691E4691462846884726440AE0009769
:106A6000286843464A46D0F81CC021462846E047DD
:106A7000641C24B2A642F2DC2868816A01B0284670
:106A8000BDE8F043084700002DE9FF5F14460E986B
:106A90000E461D46021BA3EB060100D552420029FB
:106AA00000DA49428A4207DD3146264605464FF064
:106AB00001080C46184601E04FF00008AE4205DD23
:106AC00031462E460D46214604460846A91B0FFABC
:106AD00081F9011B00D549420FFA81FB09EBD971FD
:106AE0004F10844201DA012001E04FF0FF3082466E
:106AF0001CE000BF00980F9BB8F1000F0068D0F8B1
:106B000014C002D03246214601E0224631460098A8
:106B1000E047A7EB0B0007B2002F05DA04EB0A00F1
:106B200004B207EB090007B2761C36B2AE42E1DDD3
:106B3000BDE8FF9F10B500230A4CC0E90043018166
:106B4000428189B2818191B2C181437603824382BD
:106B5000012101764FF6FF72C28282828176C3766E
:106B6000C36110BD5422040810B5034900F00DFEA6
:106B7000BDE8104002F080BC0C0F040800F023BEFA
:106B800010B5103000F02FFEBDE81040103800F0B6
:106B90002ABE1022F9F7D3BB10B5044601461030C7
:106BA000F9F7FBFB20F082FF44F8200F0120607111
:106BB000207110BD70B5044640F225550069294684
:106BC000FDF726F998B12069FDF7B0F9C1B2208B25
:106BD000628B401CC0F30800824204D0238B04F176
:106BE0001C029954208329462069FDF7FAF8606950
:106BF000002802D0BDE87040004770BD018B428B79
:106C0000914202D14FF0FF307047428B00F11C01DE
:106C1000515C428B521CC2F3080242830846704703
:106C20000022AFF3008008B503230093012300F096
:106C300001F808BD2DE9F04F91468B463A4A0746C8
:106C400001691515394887B09A4691420BD1441510
:106C5000804601210420FBF789FF01218803FBF70F
:106C600085FF25261FE0324A91420CD1042480463C
:106C7000082501212046FBF779FF01214804FBF795
:106C80005DFF26260FE02B48814249D12C46C514D2
:106C9000DFF8A48001210820FBF768FF01218804A8
:106CA000FBF74CFF27262C43ADF8144002208DF84B
:106CB000160018208DF8170005A94046FBF78EFB3B
:106CC0008DF810608DF811A010988DF81200012039
:106CD0008DF8130004A8FBF771FE09F47040ADF8BD
:106CE000040009F47060ADF8060009F0F00000023D
:106CF000ADF808000020ADF80C000C20CDF800B075
:106D0000ADF80A0069463869FDF7BAF8012240F289
:106D100025513869FDF79BF801213869FDF767F8BF
:106D200007B0BDE8F08F00000038014000080140C6
:106D30000044004000480040000C014070B50D4682
:106D4000044680212069FDF75CF80028F9D0294627
:106D50002069FDF7EFF8012070BD018B408B081A08
:106D6000C0F308007047000000224FF47A73C0E9B6
:106D70000123034B0360C0E904124283028370477E
:106D8000A82204080FB410B50399049A059B069C29
:106D900000F1040C8CE81E009DF81C10017510BC5D
:106DA0005DF814FB2DE9F041D0E901450E4606E0FF
:106DB000276830463968F9F7D5FA28B1241DAC4266
:106DC000F6D10020BDE8F0813846FBE72DE9F84315
:106DD0001D4616460F460446DDF82080FFF7E2FF09
:106DE00010B10020BDE8F8830C200AF005FA0090ED
:106DF000C0E90076058180F80A80D4E90213241DD9
:106E00006A46994205D0091D6160091F04D00860D7
:106E100002E0204623F003FD0120E3E770B50446BD
:106E2000FFF7C0FF031E0CD06068A268014600E0B7
:106E3000091D914202D00D689D42F9D18A4201D1CB
:106E4000002070BD90420AD0081D824204D001E0AB
:106E500020C820C19042FBD1A068001FA060184646
:106E60000AF0C2F9012070BDF0B5ADF5117D044600
:106E7000016802228CA8FEF7E5FB9DF8300298B964
:106E8000684622F0A6FA68468CA90A2221F0BCFEC8
:106E9000C0B28F908FA98AA809F044FCDDE98A016D
:106EA00010B9C80707D031B18DA818F085FF0020B0
:106EB0000DF5117DF0BDD4E9016706AD60E03468E1
:106EC000A07A012806D0022818D003282AD0042846
:106ED00055D13BE09DF8202021682846C2F340129E
:106EE00012B122F08CFD00E0002022F0F1FA8A902D
:106EF00013E08AA96068FAF777F940E09DF820204E
:106F000021682846C2F3401212B122F078FD00E059
:106F1000002022F0D3FA8DED8A0A2289042AE8D3D0
:106F20000422E6E79DF8202021682846C2F340129B
:106F300012B122F064FD00E0002022F0B3FA8DEDE2
:106F40008A0B2289082AD4D30822D2E79DF8202070
:106F500021682846C2F3401212B122F050FD00E031
:106F6000002030B1017A01F07F0104290FD00529FA
:106F70000DD0002119B122896068F9F7E0F9361DBA
:106F8000BE429CD18DA818F017FF012090E7016840
:106F9000F0E700002DE9F047ADF5167D04460168E5
:106FA000032292A8FEF74EFB9DF8480200287DD1EF
:106FB000684622F00EFAD4E901564FF0000906ACFB
:106FC000ABE02F68B87A012806D002282FD003281A
:106FD00053D004282AD17FE0CDF840923A89042A80
:106FE00000D9042290A87968FAF7FEF89DF82000ED
:106FF0003F68E846400602D1204600F008FF9DF8B1
:107000002000800601D4002004E042463946204694
:1070100021F004FF909900287ED0884607460A2177
:1070200000F0E1FE4FEAE870C7E9008074E09FEDF0
:107030004A0A8DED900A3A89042A00D9042290A8C0
:107040007968FAF7D1F89DF820003F68E8464006D5
:1070500002D1204600F0DBFE9DF82000800601D41E
:10706000002004E042463946204621F0D7FE9DED3F
:10707000900A80B300F0BDFE4EE09FED380B8DED21
:10708000900B3A89082A00D9082290A87968FAF763
:10709000ABF89DF820003F68E846400602D1204644
:1070A00000F0B5FE9DF82000800600E04FE001D41E
:1070B000002004E042463946204621F0AFFE9DED17
:1070C000900B070028D051EC100BF9F719FC00EEDB
:1070D000100A3846CEE71FE0D7E9000807469DF8BA
:1070E0002000EA46400602D1204600F090FE9DF8BE
:1070F0002000800601D4002004E052463946204694
:1071000021F08CFE40B1B8F1000F1CD007460421DD
:1071100000F069FEC7F800802D1DB5427FF451AF25
:1071200092A88A90CDF82C928DF834928AA92046A4
:1071300022F052FB58B193A818F03EFE01200DF545
:10714000167DBDE8F087002100F04DFEE4E793A82E
:1071500018F032FE0020F2E70000000000000000FE
:1071600000000000002343608360C360016070473B
:1071700010B5041D40686268014600E0091D914297
:10718000FCD1A1680022091A891006F061FA201FBB
:1071900010BD10B50446C068A06020F087FC606098
:1071A00001206070207010BD00210170417081606D
:1071B000704710B50446C068A06020F077FC60609E
:1071C00001206070207010BDF8B50446C0890E46DD
:1071D000401E00B20090A089401E03B22068002229
:1071E0001146C56C2046A847A089E18910FB01F52E
:1071F00094F82500E0B1A16A208F4861E16A608FB0
:1072000008611048310A07E002899207FCD58181A4
:1072100002899207FCD586816D1EF5D20189890706
:10722000FCD501890906FCD4A16A208F0861F8BD4C
:10723000002704E03146204600F02EF87F1CAF42C4
:10724000F8D3F8BD0030014010B5044601F003004A
:1072500060763621204600F041F8617EF02069B169
:1072600001290FD0022911D0032913D1A081E08177
:10727000A0212046BDE8104000F032BAA081E08194
:107280000021F6E7A081E081C021F2E7A081E08142
:107290007021EEE710BD000070B504460D46A16AEE
:1072A000008F4861E16A608F086194F82500290A1F
:1072B00038B1094809F072FAE9B2074809F06EFAE4
:1072C00006E0204600F0C4F9E9B2204600F0C0F91B
:1072D000A16A208F086170BD00E0022010B504464D
:1072E000008FA26A5061E26A608F506194F82500B5
:1072F00018B1054809F052FA02E0204600F0A8F95A
:10730000A16A208F086110BD00E00220F8B5054693
:10731000B0F90C00069E1C46884222DDB5F90E002D
:1073200090421EDD012C1CDB13195B1E834201DB26
:10733000801A04B2002900DA0021002A00DA0022B3
:107340001019401E00B2009028680B46C76C2846F2
:10735000B84703E031462846FFF79EFF641E24B27B
:10736000F8D2F8BD2DE9F0418046407E069F1C46CC
:1073700015460E4630B101280DD0022802D0032850
:1073800023D128E02A214046FFF7A8FFB1B24046AA
:10739000FFF782FF29E02A214046FFF79FFFB1B2A5
:1073A0004046FFF779FFA1B24046FFF775FF2B215A
:1073B0004046FFF793FF5035A9B24046FFF76CFFF8
:1073C0005037B9B24046FFF767FF4046BDE8F0418D
:1073D0002C21FFF783BF2A214046FFF77FFF50365D
:1073E000B1B24046FFF758FF5034A1B24046FFF714
:1073F00053FF2B214046FFF771FFA9B24046FFF72C
:107400004BFFDEE710B5044690F8250038B18E48F2
:1074100008F010FB8D498C4808F06EFB09E094F8E9
:107420002300052120F0E0FB94F82400052120F042
:10743000DBFB94F821000521203420F0D5FBA07857
:10744000052120F0D1FB2078052120F0CDFB6078CC
:1074500001210FF035FE207800210FF031FE64206D
:107460000FF0F4FD14F8200901210FF029FE64202B
:107470000FF0ECFD11212046FFF730FF78200FF0D0
:10748000E5FD20680021C26A204690473A21204647
:10749000FFF724FF0521204600F022F9B221204603
:1074A000FFF71CFF0C21204600F01AF90C212046A2
:1074B00000F016F90021204600F012F93321204691
:1074C00000F00EF93321204600F00AF9B7212046DA
:1074D000FFF704FF3521204600F002F9BB212046CA
:1074E000FFF7FCFE3221204600F0FAF8C2212046C8
:1074F000FFF7F4FE0121204600F0F2F8C3212046F8
:10750000FFF7ECFE1521204600F0EAF8C4212046E2
:10751000FFF7E4FE2021204600F0E2F8C6212046D5
:10752000FFF7DCFE0F21204600F0DAF8D0212046DC
:10753000FFF7D4FEA421204600F0D2F8A121204676
:1075400000F0CEF8E0212046FFF7C8FED02120460B
:1075500000F0C6F80821204600F0C2F80E212046AF
:1075600000F0BEF80921204600F0BAF809212046B3
:1075700000F0B6F80521204600F0B2F8312120468F
:1075800000F0AEF83321204600F0AAF8482120464A
:1075900000F0A6F81721204600F0A2F8142120469A
:1075A00000F09EF81521204600F09AF8312120467F
:1075B00000F096F83421204600F092F8E1212046B0
:1075C000FFF78CFED021204600F08AF808212046E3
:1075D00000F086F80E21204600F082F809212046AE
:1075E00000F07EF80921204600F07AF815212046A7
:1075F00000F076F83121204600F072F83321204661
:1076000000F06EF84821204600F06AF81721204665
:1076100000F066F81421204600F062F8152120469B
:1076200000F05EF83121204600F05AF8342120465F
:1076300000F056F821212046FFF750FE2046BDE815
:1076400010402921FFF74ABE00E0022000C2EB0BE8
:1076500010B50022046B838F63610B06C38F446BEC
:1076600001D5236100E06361046B838F23614906C8
:10767000521C090ED2B2082AECD310BDF8B51D4633
:107680000446002915DBB4F90C00884211DD002AFC
:107690000FDBB4F90E0090420BDD009220680B4620
:1076A000C66C2046B04729462046BDE8F840FFF7A3
:1076B000F3BDF8BD38B50182428200290EDBB0F976
:1076C0000C308B420ADD002A08DBB0F90E30934201
:1076D00004DD00920368DC6C0B46A04738BD000057
:1076E00010B50446008FA26A5061E26A608F106193
:1076F00094F8250018B1054809F050F802E020463A
:10770000FFF7A6FFA16A208F086110BD00E00220EC
:1077100070B514460D46F0221E461146FFF70AFAD0
:107720000B4940F8081B0B494576847601EB05129E
:10773000067613680362928901EB041102860A68D7
:1077400042628989418601214177083870BD000075
:10775000CC220408141804082DE9F047D0E90046AB
:107760009046894608E000BFD4E900170D46484618
:10777000F8F7F8FD28B10834B442F5D10020BDE88F
:10778000F087C8E900570120F9E7C16070477CB570
:1077900015460E4604466A46FFF7DEFF08B1002094
:1077A0007CBDCDE9006520466A46D0E901139942C7
:1077B00005D008314160083922F0A7F901E022F034
:1077C000DDFD01207CBD1CB504466A46FFF7C4FF01
:1077D00008B101981CBDE0681CBD0021016041603A
:1077E0008160C160704710B5044600686268014658
:1077F00000E008319142FCD1A1680022091AC910A9
:1078000005F026FF204610BD06F020BA0A4600F11A
:107810001C011046FEF726BC0A4600F1280110465E
:10782000FEF720BC10B504462DED028B00206070E1
:10783000A068F8F7BDFF9FED0E1B53EC112BF8F776
:1078400013FF41EC180BA088F8F7B2FF53EC182B8C
:10785000F8F7F1FD41EC100B207B002805D051EC2E
:10786000100B81F0004141EC100BBDEC028B10BD00
:107870000000000065CDCD4110B504462DED028B12
:10788000002060706069F8F793FF9FED0E1B53ECCA
:10789000112BF8F7E9FE41EC180B208AF8F788FF66
:1078A00053EC182BF8F7C7FD41EC100B207E002895
:1078B00005D051EC100B81F0004141EC100BBDECF8
:1078C000028B10BD0000000065CDCD4110B504460F
:1078D00000F11C010922001DF9F786FC092204F1C0
:1078E000280104F11000F9F77FFC20F0DFF8606355
:1078F00001206070207010BD10B50269044602B10D
:107900009047606D401C606510BD00002DE9F0419E
:107910001F462DED088B15460C46012693ED020BF4
:1079200091ED029B53EC102B51EC190BF8F72AFE4A
:1079300097ED000B94ED008B41EC1A0B53EC102BE0
:1079400051EC180BF8F71EFE53EC1A2BF8F773FDE9
:1079500094ED04AB53EC1A2BF8F76DFD95ED020B8B
:1079600041EC1B0B53EC102B51EC190BF8F70AFEF2
:1079700095ED000B41EC190B53EC102B51EC180B4F
:10798000F8F700FE53EC192BF8F755FD53EC1A2BC2
:10799000F8F751FD53EC1B2BF8F7F4FD9FED061B98
:1079A00053EC112BF8F77CFF00D20026BDEC088BBE
:1079B0003046BDE8F0810000F168E388B5F8E43EA8
:1079C00070B50C462DED048B1E46154692ED020B4C
:1079D00051EC100B81F0004141EC190B84ED009B40
:1079E00095ED000B84ED020B96ED021B51EC100B94
:1079F00053EC112BF8F7C6FD96ED000B41EC180B7C
:107A000053EC102B51EC190BF8F7BCFD81F0004141
:107A100053EC182BF8F7B0FDC4E90401BDEC048B5E
:107A200070BD80ED020B7047016170470021016558
:107A3000416570472DE9F0470E462DED108B9FED07
:107A4000688B92ED00DB93ED009B92ED02CB93ED02
:107A500002EB012753EC192B51EC1D0BF8F78CFDB1
:107A6000894649EC100B044653EC182B51EC100BD3
:107A7000F8F72EFF02D249EC1A4B07E053EC1D2B0E
:107A800051EC190BF8F778FD41EC1A0B53EC1E2B57
:107A900051EC1C0BF8F770FD884648EC100B0546BE
:107AA00053EC182B51EC100BF8F712FF02D248ECF4
:107AB0001B5B07E053EC1C2B51EC1E0BF8F75CFD35
:107AC00041EC1B0BB0EE489AF0EE689AB0EE48FA23
:107AD000F0EE68FA9FED440B51EC1A0B53EC102BAF
:107AE000F8F7DEFE0DD251EC1B0B9FED3F0B53EC74
:107AF000102BF8F7EDFE04D251EC1D0B9FED3C8BE3
:107B000015E09FED390B51EC1A0B53EC102BF8F7E5
:107B1000DFFE0FD251EC1B0B9FED330B53EC102B00
:107B2000F8F7BEFE06D251EC1C0B9FED319B81F0A5
:107B3000004147E09FED2C0B51EC1A0B53EC102B3E
:107B4000F8F7C6FE41D251EC1B0B9FED270B53EC0F
:107B5000102BF8F7BDFE38D249EC184B53EC1C2B18
:107B600051EC1E0BF8F708FD884648EC100B054653
:107B700053EC182B51EC100BF8F776FD41EC180B79
:107B800049EC104B48EC195B53EC182B51EC100BE3
:107B9000F8F7F8FC53EC192BF8F766FD41EC190BDC
:107BA00053EC1C2BF8F7EEFC41EC1A0B53EC1D2B9D
:107BB00051EC180BF8F7E6FC81F0004153EC1A2B5E
:107BC000F8F7DAFC41EC1F0B00E0002786ED04FB20
:107BD000384686EC048BBDEC108BBDE8F0870000C6
:107BE0000000000000000000F168E388B5F8E43E02
:107BF000000000000000F03F70B515462DED068B2B
:107C00000C46064692ED020B91ED02AB53EC102BA5
:107C100051EC1A0BF8F7B6FC95ED000B94ED009BB8
:107C200041EC180B53EC102B51EC190BF8F7AAFC94
:107C300053EC182BF8F7FFFB94ED041B53EC112BBE
:107C4000F8F7F9FB41EC180B53EC1A2B51EC1A0B1B
:107C5000F8F798FC41EC1A0B53EC192B51EC190B6B
:107C6000F8F790FC53EC1A2BF8F7E5FB41EC100BFE
:107C7000304600F081F8B0EE409AF0EE609A9FED49
:107C80000D0B51EC180B53EC102BF8F721FE05D31C
:107C900051EC180B81F0004141EC180B53EC192BFF
:107CA00051EC180BF8F76EFCBDEC068B41EC100B99
:107CB00070BD000000000000000000002DE9F0434E
:107CC0000446006D8DB08846002688B304F138075D
:107CD00004F12805012831D00A4639462046FFF72D
:107CE0008BFF94ED021B51EC100B53EC112BF8F7AA
:107CF000EFFD16D304F118022B4691466946204643
:107D0000FFF798FE002834D02B466A4606A9204685
:107D1000FFF756FE43464A4606A92046FFF7F6FD02
:107D2000A0B1012629462046FFF7E6FD434606E0BE
:107D3000FFE701262046FFF7DFFD07E00B462A4656
:107D400039462046FFF776FE002812D004F12800BD
:107D500004F118050FC885E80F0098E80E00D8F860
:107D60000C00C4E90C30C4E90A12206D401C2065E7
:107D700030460DB0BDE8F08310B551EC100B2DED81
:107D8000028BB7EE088AF8F7BBFD00EE100AF6EE9C
:107D9000000A0F4960EE200AA1EB600000EE100A15
:107DA000B0EE481A60EE801A01EEC01A21EE000A09
:107DB00060EE800A00EEC08A28EE000A10EE100A7B
:107DC000F8F75BFDBDEC028B41EC100B10BD000021
:107DD000DF59375F10B5044650210830F8F786FAAE
:107DE000204610BD7047027A02F080020A430272F8
:107DF000704710B504462DED028BB0EE408A0C2181
:107E0000FFF7F1FF84ED008ABDEC028B10BD10B5C9
:107E100004462021FFF7E7FF002020606060204635
:107E200010BDB0F90A1011B100EB0110704700202D
:107E3000704700002DE9F047044600780026894687
:107E40002B2802D02D2801D10126641C2078A0F116
:107E500030010A2901D32E287CD100200146054695
:107E600082461AE04FF09937684B3F1AD2B28B41E5
:107E700017D30A27A0FB073801FB07814FF0000C3E
:107E800000FB0C111846D7436FEA0A033F1A8B41D7
:107E900007D3801841EB0A01641C2278303A092A82
:107EA000E0D92278EAB98EB14FF0004243428A41CC
:107EB00017D3C443C843641C4D4640F100060A2151
:107EC0004846FFF790FFC5E9004664E00E464D4680
:107ED00004460821F4E70A220023F8F78FF96D1C05
:107EE0006DB24B4B00221B1A8A41F4D302E06D1C89
:107EF0006DB2641C2278303A092AF8D922782E2AE9
:107F00001AD100BF14F8012F303A092A14D8414B76
:107F1000C31A71F10003F5D20A27A0FB07C801FBC1
:107F20000781002300FB0311D0B21CEB000041EBE2
:107F30000A016D1E6DB2E5E723780022652B01D0A2
:107F4000452B2FD114F8017F00232D2F03D02B2F89
:107F500002D002E029E00123641C6FF02F0C277887
:107F6000A7F13008B8F1090F1AD802EB82020CEB26
:107F700042023A445719262F10DD33B116B19FED56
:107F8000260A3EE09FED250A3BE04FF0FF4000EE61
:107F9000100AA6BB35E00120BDE8F087641CDEE7CF
:107FA00003B15242154422780AB10020F4E7F8F7F1
:107FB000E0FB00EE100A002D0FDD19490020EA0752
:107FC00005D001EB8002D2ED000A20EE800A00F11C
:107FD00001006D10C0B2F2D110E069420020114AD8
:107FE0000AE0CB0705D002EB8003D3ED000A20EEB8
:107FF000800A4910401CC0B20029F2D10EB1B1EE86
:10800000400A4846FFF7F5FEC5E70000999999191F
:10801000FFFF7F00CCCC0C000000008000000000BF
:108020004C2504083425040801684A6842608A68BF
:108030004968511AC160002181607047F0B5056838
:108040008668D5E90001814211D904460A4602E05A
:10805000401C53B1521C037817789F42F8D000BFE0
:1080600010F8012B002AFBD1EDE7200002D10846D1
:1080700031446960F0BD10B54368002B08D0D0E9E9
:108080000224A24205D3002141600068012101744D
:1080900010BD541C8460995410BD30B50246D1E91E
:1080A0000140002301251034844208D8103888602C
:1080B00006D0516831B1441A24114C8103E00D748B
:1080C000002030BD1060506043810372C36030BD3A
:1080D00000B1022001490844704700008C250408C3
:1080E0002DE9F0479A462DED0A8BB0EE419AF0EE5D
:1080F000619A91460E46044690ED042B90ED021BCA
:1081000000F0D2F8B0EE408AF0EE608A94ED082BD1
:1081100094ED061BB0EE490AF0EE690A204600F025
:10812000C3F89FED559B51EC100B53EC192BF8F74E
:1081300082F99FED531B53EC112BF8F795FA94ED50
:108140000A0B41EC1B0B53EC102B51EC180BF8F7FE
:1081500019FA53EC192BF8F787FA41EC100B09F0D8
:108160005BFEB0EE40AAF0EE60AA94ED0A0B9FED24
:10817000461B51EC100B53EC112BF8F703FA53ECA0
:108180001A2B41EC180B9FED42CB51EC1C0BF8F76E
:10819000F3F941EC190B53EC1C2B51EC1A0BF8F7CB
:1081A0004AF953EC192BF8F75FFA41EC100B09F080
:1081B0004FFC53EC182B51EC100BF8F755FA9FEDD0
:1081C000369B53EC192BF8F7DAF94FF4807541EC34
:1081D0001A0BB540681EF8F7EBFA8846064648ECDD
:1081E000180B2846F8F7E4FA0F4647EC100B054643
:1081F00053EC1B2B51EC100BF8F7C4F953EC192B73
:10820000F8F719F99FED26BB41EC100BB0EE482AA8
:10821000F0EE682AB0EE4B1AF0EE6B1A204600F032
:1082200043F851EC100BF8F7F0FA47EC105BC9F883
:10823000000048EC186B53EC1A2B51EC100BF8F7BC
:10824000A1F953EC192BF8F7F6F841EC100BB0EE4E
:10825000482AF0EE682AB0EE4B1AF0EE6B1A204670
:1082600000F022F851EC100BF8F7CFFACAF8000032
:10827000BDEC0A8BBDE8F08700000000008066407E
:108280000000000000807640000000000000104068
:10829000000000000000F03F000000000000E03F90
:1082A000000000000000000031B52DED060B6D460A
:1082B00002AC9DEC040B51EC100B53EC112BF8F7B6
:1082C000EFFA00D32C469DED040B94ED001B04AD9A
:1082D00053EC112B51EC100BF8F7E2FA00D22C46BC
:1082E00094ED000B07B030BD9FED0C0B80ED000B43
:1082F0009FED0C0B80ED020B9FED0C0B80ED040B42
:108300009FED0C0B80ED060B9FED0C0B80ED080B29
:108310009FED0C0B80ED0A0B704700000000004041
:10832000A6545841007FA5B1454355C0007FA5B173
:108330004543554000000000008066C0000000007A
:1083400000806640182D4454FB210940704710B549
:1083500001F052FE01F0ECFEBDE8104001F022BE3B
:1083600010B50A78042A04D0022A05D06FF0020062
:1083700010BD00F00DF808E00869302802D06FF059
:10838000010010BDC86801F08FFD002010BD000085
:10839000F0B593B0074606A801F086FDBDF93C5044
:1083A0000024062D01DD022402E0032D00DB012460
:1083B0000F4E307884420FD00E4A02AB07CA83E8D2
:1083C000070002A8042350F82400059005AA0AA17A
:1083D000384605F058FD3470032D07DB302206A91E
:1083E000384605F038FD384605F07BFD13B0F0BD8A
:1083F00004000020ACAC02084D75736963506C61D9
:108400007965720010B5002121221BF066FFC0B211
:1084100010BDC9B200221DF0D6BA00003EB5044618
:108420000878012804D0022817D06FF002003EBD62
:10843000086930280FD1C9682046097859B10A2344
:108440006A460BA105F0C2FC684601F023FE0AA1B2
:10845000204605F079FC00203EBD08690A2802D0BC
:108460006FF001003EBDC86801F0FCFDF3E70000BD
:10847000547A436F6E760000475053002DE9FF4158
:10848000344C06460D46207A4FF00107C0070ED146
:1084900004F1080008F0CCFF48B12F482F4A022110
:1084A00002608771018104F10800AFF30080207938
:1084B000C0070FD12748001D08F0BAFF50B1264869
:1084C00000210C308771C161254901602148001DE0
:1084D000AFF300802878042806D002281ED06FF061
:1084E000020004B0BDE8F081684601F0DFFD9DF8B0
:1084F0000300217888420FD010F0FF0F01D019A09F
:1085000000E01CA00190042301AA1EA1304605F042
:10851000BAFC9DF8030020700020E2E728690428D7
:1085200002D06FF00100DCE702A801F0BFFD9DF86A
:108530000A10094821F0B4F8014607480C3021F030
:10854000BDF88DF80A00D5E9030202A9F8F74CFE40
:10855000E2E70000080000206C0300204824040823
:108560005C240408426174744368617267655374E3
:108570006172740042617474436861726765456E2C
:10858000640000004D75736963506C617965720019
:1085900010B50C4609788EB0022903D06FF00200A6
:1085A0000EB010BD21690A2902D06FF00100F7E773
:1085B000302302AA15A105F009FCBDF82E109DF884
:1085C0003000CDE900019DF831309DF835209DF84F
:1085D00034109DF83300FCF759FC4FF4E140FBF7F1
:1085E000E7FCE468FCF78AFB2080FCF797FBA070AF
:1085F000FCF7C8FAE070FCF7FFFA6071FCF79EFB2D
:10860000A071FCF7BFFBE0710020C9E747505300A1
:108610004FF0FF3102F046B810B5012186B0480294
:10862000FAF7A4FA4FF44040FAF770FA1E4C2046CD
:10863000F9F7E0FA6846F9F713FB00214FF46020E0
:10864000CDE902018DF80410012000918DF805108C
:108650008DF8100069462046F9F76EFA022120468F
:10866000F9F7CCF901224FF408712046F9F75BFACB
:108670004FF0E0214FF48020C1F800010121204695
:10868000F9F7C3F92046F9F7D7FA2046F9F744FA83
:108690000028FAD12046F9F7DEFA2046F9F724FA45
:1086A0000028FAD106B010BD0024014018B54C09CD
:1086B000BDF80030D20864F30203ADF80030C308FF
:1086C000BDF80000890863F3C70080B262F30C2094
:1086D00080B261F34F30ADF8000080B218BD0022C7
:1086E00008B511461046FFF7E1FF0090BDF8000005
:1086F00008BDFF2208B511461046FFF7D7FF0090CE
:10870000BDF8000008BD00002DE9FC471AF014FC7C
:10871000DFF878820646424600211CF0F1FD15F094
:10872000FFFE15F015FF0146162230461DF02EF80B
:108730006FF0150130461DF019FA0022114630463F
:108740001DF041F9332210460146FFF7AFFF0090BC
:108750000027BDF800103A4630461DF023F94FF4CB
:1087600080542246992130461DF02DF9FFF7B7FFBE
:108770000146224630461DF015F9FFF7B0FF0146CD
:10878000224630461DF083F922460A2130461DF06C
:108790008AF90097C8237E4A7E497F4801971EF0D8
:1087A000DFF922467C4930461DF096F97A4C7B4829
:1087B000143426601EF012F8FFF79BFF014677483D
:1087C0001EF0B3F9764877A1FEF7FDFF0146734826
:1087D0001EF0B7F9304617F0B9FE0546704875A18E
:1087E00010308146FEF7EFFF0146284618F008FDDD
:1087F00000230E22072128461AF020F83046656033
:1088000018F078FF05460022644919F0C1FF00976F
:1088100005231422284661681AF01EF868A128462C
:1088200019F0C0FB3046A56017F090FE054665A123
:108830004846FEF7C8FF0146284618F0E1FC7B1EBB
:1088400032220721284619F0F9FF0121284619F0A4
:1088500075FF3046E56018F04DFF054600224F4990
:1088600019F096FF59A1284619F09CFB00232846D1
:108870001A46092119F0E2FF3046256118F03AFF47
:1088800005460022454919F083FF00236FF03102AD
:108890000821284619F0D2FF4EA1284619F082FB84
:1088A0000121284619F04AFF3046656117F04EFE57
:1088B000054649A14846FEF786FF0146284618F0BE
:1088C0009FFC00236FF01D020821284619F0B6FF17
:1088D000B5F92E20B5F92C1028461CF057FF284674
:1088E000A5611AF029FB0546424600211CF008FD4F
:1088F000FFF7FFFE0146002228461DF053F8002234
:10890000FF2128461DF05FF80022FF2128461DF0B8
:10891000A7F80021A06900F013F9801F0FFA80F872
:1089200041F201023946A0691BF0D7FC001F01B2D9
:10893000424628461CF02AFFBB1E0022052128467D
:1089400019F07CFF3046E56118F0D4FE05460022A0
:10895000124919F01DFF0097052314222846A1692A
:1089600019F07AFF1EA1284619F01CFB0020256291
:1089700007F0B4FE00224FF47A711B481EF030F964
:108980001EF009FA2068BDE8FC870000FFFF0F0019
:1089900009D60108B8AC02082005002054000020C8
:1089A000940500206261686E736368726966745F23
:1089B00031330000736174656C6C6974650000008C
:1089C0003000000073645F636172640030303A30DD
:1089D000300000000000000062617474657279006C
:1089E0003130302500000000ED89000870B5344CAE
:1089F00096B0302306AA31A1606805F0E7F9314D41
:108A0000BDF93C2030A1A86819F006FB0C2312AA7E
:108A10002EA1606805F0DAF99DF848004FF00101D9
:108A20000028E86802D01AF00AFA01E019F086FE80
:108A30000A2302AA27A1606805F0C8F99DF80E3044
:108A40009DF80D2025A1286919F0E6FA042305AA4E
:108A500025A1606805F0BAF99DF816201AA1286AC8
:108A600019F0DAFA9DF81700EE690028207808D08E
:108A7000002804D1304600F03BF80120207016B0E9
:108A800070BD48B10021304614F014FDFF2130467E
:108A900000F052F8002020700021A86900F050F882
:108AA000801F009000239DF816006422194619F0DB
:108AB000D0FB01B230461CF01FFEE0E747505300E8
:108AC0004C000020340500202564000053746F72B0
:108AD00061676500436C6F636B0000002530326492
:108AE0003A25303264000000506F77657200000054
:108AF00010B592B00446684614F01EFD0B48CDE94F
:108B000000400B4800242146806900F019F8801FBE
:108B1000CDE908404FF47A700A9006480390079414
:108B2000684614F0C5FD12B010BD000081110108A7
:108B300034050020658B0008C9B200221CF090BFEC
:108B400010B541F204021BF0C8FB00B210BD10B515
:108B50000468FF212046FFF7EFFF2046BDE81040E4
:108B6000FFF7C6BF10B592B00446684614F0E4FCA7
:108B7000206800900C4801900C480390FF200021D1
:108B8000CDE9080107909DF83E10012060F3000137
:108B90008DF83E104FF4FA704142CDE90A01684663
:108BA00014F086FD12B010BD398B00084F8B000801
:108BB00070B50878032802D06FF0020070BD086914
:108BC000082802D06FF0010070BDCD68094C2978EB
:108BD000606900294FF0010107D01AF030F9696887
:108BE00029B1606919F0DEF901E019F0A7FD002054
:108BF00070BD00003405002038B50A786FF0010020
:108C0000022A04D0032A0DD06FF0020038BD0A6991
:108C10000C2AFBD1CC6801F0BFF920700020606005
:108C2000A06021E00A69102AF0D1C868017831B14A
:108C3000012908D002290AD0032915D110E00B48D8
:108C4000FEF712F910E00948FEF7A4F90CE0817B69
:108C50000091D0E9011283890448FEF7B7F803E0D8
:108C600041680248FEF7DAF8002038BD48040020C9
:108C7000002802D00148FEF7F7B8704748040020EA
:108C80000EB51349002008701249684600F076FEC0
:108C9000009800F04DF9684605F021F80D49684646
:108CA00000F05AFE009800F043F9684605F017F806
:108CB0000849684600F0ACFF009800F039F96846B2
:108CC00005F00DF80248083017F076F80EBD0000E8
:108CD00028000020E803002030B59FB00C46402358
:108CE00001AA22A100F0FEF894ED060A022111A8C3
:108CF00004F0D6FF0146254800F01AFF11A804F041
:108D0000EEFF01A911A804F091FF01461F4800F0F1
:108D10007BFF11A804F0E3FF94ED040B06211BA8D0
:108D200004F09FFF054694ED020B062118A804F0FD
:108D300098FF044616A111A804F078FF02462346C6
:108D4000124915A8009500F023FE11A804F0C7FFF2
:108D500018A804F0C4FF1BA804F0C1FF159800F088
:108D6000E7F815A804F0BBFF1FB030BD25642D2522
:108D70003032642D2530326454253032643A253047
:108D800032643A253032645A00000000E8030020C3
:108D900074726B707400000000B5A3B080236A4643
:108DA00036A100F09FF8032269463E4817F054F8B8
:108DB000002861D13CA120A804F038FF01463E48BC
:108DC00000F0C7FD20A804F08AFF3CA120A804F011
:108DD0002DFF0146384800F0B9FD20A804F07FFFC0
:108DE000694620A804F022FF0146334800F009FF3D
:108DF00020A804F074FF2FA120A804F017FF01465B
:108E00002D4800F0FBFE20A804F069FF2A4920A8A5
:108E100000F0EEFE209800F08BF820A804F05FFF31
:108E2000254920A800F0B0FC209800F081F820A887
:108E300004F055FF204920A800F080FD209800F0A4
:108E400077F820A804F04BFF1B4920A800F074FE1F
:108E5000209800F06DF820A804F041FF164920A8E2
:108E600000F082FD209800F063F820A804F037FF9E
:108E70000C4901200839087023B000BD2F547261DD
:108E8000636B2F54524B5F2564253032642530329A
:108E9000645F2530326425303264253032642E67B9
:108EA0007078000030000020582D545241434B2070
:108EB00076312E3400000000E803002068747470DE
:108EC000733A2F2F6769746875622E636F6D2F4632
:108ED00041535453484946542F582D545241434B03
:108EE0000000000070B588B01D4616460C460A23E7
:108EF00005AA0DA104F06AFF9DF817000DF1040CFE
:108F00009DF81B309DF81A209DF819108CE80F0071
:108F10009DF816000090BDF81430224629463046D0
:108F200008F0AAF908B070BD436C6F636B000000D5
:108F300010B50446F7F70FFA21460246BDE8104087
:108F40000023014816F0E2BF300000207FB505463F
:108F50004FF0FF340B78254A6000012B04D0022B20
:108F60000DD0032B18D113E00B69302B13D11078DF
:108F700018B1C9682846FFF7AFFE00240CE00A6963
:108F8000042A08D1C8681949891CF8F72DF903E0AB
:108F90000B69042B03D0044604B0204670BD0020AA
:108FA000CC6800900190029003902178064631B180
:108FB000012909D0022909D003290CD108E06188D0
:108FC0002846FFF7E9FE06E0107004E00120FBE709
:108FD0002846FFF755FE20788DF8000010236A46DA
:108FE00003A1284604F04FFF3446D5E728000020AF
:108FF000547261636B46696C7465720070B50546A6
:109000001EF054FD134CA168401AB0F57A7F02D9C6
:109010004FF4FA6014E0002D03DD608800F1640075
:1090200003E003DA6088A0F164006080608864284F
:1090300001D2642004E044F62061884200D9084649
:1090400060801EF033FDA0606088BDE8704005219F
:1090500001F028BBEC00002010B5084801290BD016
:10906000062908D0032908D105A001F07DF8BDE844
:10907000104001F069B80021417010BDEC000020E3
:1090800053687574646F776E0000000010B50A4C69
:109090002078617888430ED015200EF001F838B1A1
:1090A0000120616801446160BDE81040FFF7A6BF80
:1090B0004FF0FF30F5E710BDEC000020F0B589B0AF
:1090C00000251449044602468DF8005001260F463B
:1090D0008DF801502B46684605F09EFBB0B922463C
:1090E0000DA1154804F026FC8DF8005022460123FE
:1090F0008DF801503946684605F01DFD060001D087
:109100000EA100E00FA10C4804F028FC09B0304685
:10911000F0BD0000180B002053443A204175746FD5
:109120002063726561746520706174682022257304
:10913000222E2E2E00000000C8DB02207375636310
:10914000657373006661696C656400003EB5054631
:109150000C46684600F086FFBDF800209DF802101E
:10916000520244239DF8030002EB432242EA4112DB
:1091700002432A809DF805209DF806009DF80710FF
:10918000D20242EA401040EA510020803EBD000079
:1091900010B50B4C68B101F0A9F828B1616809B1AC
:1091A0000120884707A000E00AA0BDE8104000F0B9
:1091B000DBBF00202070616801B1884707A0F4E799
:1091C000D8000020446576696365496E73657274E2
:1091D000000000004572726F7200000044657669FD
:1091E000636550756C6C6F757400000018B54C09A0
:1091F000BDF80030D20864F30203ADF80030C308B4
:10920000BDF80000890863F3C70080B262F30C2048
:1092100080B261F34F30ADF8000080B218BD00227B
:1092200008B511461046FFF7E1FF0090BDF80000B9
:1092300008BDFF2208B511461046FFF7D7FF009082
:10924000BDF8000008BD10B541F201021BF045F861
:1092500000B210BD014A00211CF052B8FFFF0F0000
:1092600018B54C09BDF80030D20864F30203ADF81C
:109270000030C308BDF80000890863F3C70080B25E
:1092800062F30C2080B261F34F30ADF8000080B281
:1092900018BD00231A46092119F0D0BA2DE9F04172
:1092A0001F4690460D00064601D00C4600E04024C3
:1092B0001EB9204607F09CFF06463B464246214623
:1092C00008F006F8002802DA0020307010E084422E
:1092D00002DA00F1010402E00AD14FEA44041DB1B0
:1092E0004FF00000BDE8F081304607F079FFE0E77D
:1092F0003046F7E72DE9FF4F484D002789B0286831
:109300009B469246002857D145A0002000BF04008C
:1093100001D105F10C0420463A21F7F747F868B16E
:109320003E4A00F8017B121D40A1F7F703FD01281A
:1093300002D16868002801DC012068603C491420E3
:109340008946084600BF06001BD04FF40070C6E9EE
:1093500001073848F760306006F1100807A8AFF33E
:1093600000800246344904A820F018FD014640461A
:1093700020F038FDA0F1100604A820F052FD2F487F
:1093800030602B4E06A8AFF30080024621466846A7
:1093900020F004FD074601A807F084FE024630686D
:1093A0003946C36830469847A86001A807F08AFE8E
:1093B000684620F036FD2C60AC68601C26D06F68D3
:1093C0000DF108081A4E554605A8AFF30080024675
:1093D00015A103A820F0E2FCCDE9005030683B461F
:1093E0002246056931464046A84703A820F019FDEA
:1093F000029A52F8040C60B1DDE909015B46FFF7FF
:109400004DFF044602A820F00CFD20460DB0BDE83B
:10941000F08F02A820F005FD0020F7E750020020A1
:109420005257535444455252000000002564000036
:1094300070E1022070240408D725040800250408E0
:1094400010B50878032802D06FF0020010BD08693B
:10945000012802D06FF0010010BDC868007828B95B
:109460000448007820B1002000F05CFE002010BD10
:109470000120F9E75804002010B5434A43A14748AA
:10948000FEF785F9464A47A14448FEF780F9494A64
:1094900049A14248FEF77BF94B4A4CA13F48FEF7F1
:1094A00076F94E4A4EA13D48FEF771F93B484F4AC6
:1094B00010304FA10446FEF76AF94F4A4FA12046EB
:1094C000FEF765F94F4A50A12046FEF760F9524A6F
:1094D00052A12046FEF75BF9524A53A12046FEF7FF
:1094E00056F9534A53A12046FEF751F9544A55A163
:1094F0002046FEF74CF9554A55A12046FEF747F99C
:10950000564A57A12046FEF742F9574A57A120462E
:10951000FEF73DF9594A5AA12046FEF738F95A4A52
:109520005AA12046FEF733F95C4A5DA12046FEF7BA
:109530002EF95D4A5DA12046FEF729F95E4A5FA13A
:109540002046FEF724F95F4A5FA12046FEF71FF987
:109550005F4A60A12046FEF71AF9604A60A12046E2
:10956000FEF715F9604A61A12046FEF710F9624A3C
:1095700062A12046FEF70BF92046BDE81040624A82
:1095800062A1FEF704B9000064C402086261686E5B
:10959000736368726966745F31330000940500205C
:1095A000F8DF02086261686E736368726966745FEF
:1095B00031370000DCE702086261686E736368722D
:1095C0006966745F33320000580303086261686E95
:1095D000736368726966745F363500003809030882
:1095E0006167656E6379625F333600009414030827
:1095F000616C61726D00000008160308626174748A
:109600006572790098350308626174746572795FD8
:10961000696E666F000000002C410308626963797F
:10962000636C650068500308636F6D70617373004D
:10963000100D03086770735F6172726F770000002E
:10964000581003086770735F70696E00C06103088B
:109650006779726F73636F70650000009C18030870
:109660006C6F636174650000D47103086D61705F95
:109670006C6F636174696F6E00000000481B030823
:109680006D656E7500000000C01C03086F7269678D
:10969000696E5F706F696E74000000007C250308BE
:1096A0007061757365000000C81E030873617465FE
:1096B0006C6C697465000000D89F030873645F6375
:1096C00061726400D427030873746172740000002F
:1096D0008420030873746F7000000000CC7F0308BF
:1096E00073746F7261676500088F03087379737410
:1096F000656D5F696E666F00449E030874696D65F1
:109700005F696E666F000000C023030874726970A1
:109710000000000008B5C2B2C0F30721C0F3074043
:1097200000F004F80090BDF8000008BD18B54C0921
:10973000BDF80030D20864F30203ADF80030C3086E
:10974000BDF80000890863F3C70080B262F30C2003
:1097500080B261F34F30ADF8000080B218BDFF2237
:1097600008B511461046FFF7E1FF0090BDF8000074
:1097700008BD0000014A00211BF0C2BDFFFF0F0021
:1097800008B200F043BD000070B50C4690B05AA17D
:1097900004F04CFA0546A068002848D059A103A857
:1097A00004F044FA064629466846FEF72DF831468D
:1097B00007F048FD0146284604F0A9FA684604F07F
:1097C0008EFA03A804F08BFA21460CA804F03EFAA6
:1097D0000246214603A800F023FA29466846FEF710
:1097E00013F803A907F02EFD0146284604F08FFA6E
:1097F000684604F074FA03A804F071FA0CA804F0A7
:109800006EFA42A10CA804F011FA064629466846F1
:10981000FDF7FAFF314607F015FD0146284604F032
:1098200076FA684604F05BFA0CA804F058FA60690E
:10983000002849D038A103A804F0F8F906462946C3
:109840006846FDF7E1FF314607F0FCFC014628467B
:1098500004F05DFA684604F042FA03A804F03FFA07
:1098600004F10C010DA804F0F1F90246214603A809
:1098700000F0D6F929466846FDF7C6FF03A907F0B0
:10988000E1FC0146284604F042FA684604F027FA53
:1098900003A804F024FA0DA804F021FA20A10DA8D1
:1098A00004F0C4F9044629466846FDF7ADFF214699
:1098B00007F0C8FC0146284604F029FA684604F07F
:1098C0000EFA0DA804F00BFA18A109A804F0AEF9DD
:1098D0000446294606A8FDF797FF214607F0B2FC8B
:1098E0000146284604F013FA06A804F0F8F909A87E
:1098F00004F0F5F910B070BD3C6D6574616461747D
:10990000613E00003C6E616D653E00003C2F6E6163
:109910006D653E0A000000003C646573633E000014
:109920003C2F646573633E0A000000003C2F6D65A8
:109930007461646174613E0A0000000001A104F0DA
:1099400075B900003C74726B3E0000000C3004F0EE
:10995000DEB904F0DCB9000001A104F067B9000031
:109960003C2F74726B3E0A0001A104F05FB9000045
:109970003C74726B7365673E0000000001A104F047
:1099800055B900003C2F74726B7365673E0A000086
:109990002DE9F04190B00C461E46174648A1169D91
:1099A00004F044F9804649A1684604F03FF90146B5
:1099B0003A46404604F0A0F8684604F090F929467B
:1099C00003A8FDF721FF43A107F02AFC014640460A
:1099D00004F0B4F903A804F082F9314603A8FDF7B6
:1099E00013FF3EA107F01CFC0146404604F0A6F917
:1099F00003A804F074F9A06B60B139A1404604F0EB
:109A000097F904F13001404604F098F936A1404638
:109A100004F08EF9E06D60B135A1404604F088F99C
:109A200004F15401404604F089F933A1404604F0A2
:109A30007FF9606C60B133A1404604F079F904F11C
:109A40003C01404604F07AF930A1404604F070F938
:109A5000206DD8B12FA1404604F06AF904F1480105
:109A60000CA804F0F3F80246214609A800F0D8F843
:109A700009A9404604F062F909A804F030F90CA8DD
:109A800004F02DF925A1404604F052F925A106A8BD
:109A900004F0CCF80DA1684604F0C8F801463A4637
:109AA00006A804F029F8684604F019F906A940460A
:109AB00004F044F906A804F012F910B0BDE8F081F2
:109AC0003C54595045206C61743D22005459504516
:109AD0000000000022206C6F6E3D2200223E00003C
:109AE0003C656C653E0000003C2F656C653E0A00DD
:109AF0003C74696D653E00003C2F74696D653E0ADB
:109B0000000000003C73796D3E0000003C2F73792B
:109B10006D3E0A003C7372633E0000003C2F73727E
:109B2000633E0A003C2F545950453E0A0000000095
:109B3000303004F0ECB8000030B50C4687B021A1FD
:109B400004F074F80546206AD8B11FA1284604F035
:109B5000EFF804F1180103A804F078F80246214652
:109B6000684600F05DF86946284604F0E7F8684664
:109B700004F0B5F803A804F0B2F815A1284604F0E3
:109B8000D7F8E06A00281BD014A1284604F0D0F8CA
:109B900004F1240103A804F059F80246214668465E
:109BA00000F03EF86946284604F0C8F8684604F01C
:109BB00096F803A804F093F80AA1284604F0B8F830
:109BC00007B030BD000000003C6E616D653E0000D6
:109BD0003C2F6E616D653E0A000000003C646573B9
:109BE000633E00003C2F646573633E0A0000000082
:109BF000014904F01BB8000014260408243004F0C6
:109C000086B8183004F083B8543004F080B80000EF
:109C100001A104F00BB800003C2F6770783E0A00E9
:109C200070B5144605A104F001F80546214604F07C
:109C300085F805A1284604F07BF870BD3C215B4304
:109C4000444154415B0000005D5D3E0010B510A131
:109C500003F0ECFF0EA10C3003F0E8FF0CA10C3078
:109C600003F0E4FF0AA10C3003F0E0FF08A10C3080
:109C700003F0DCFF06A10C3003F0D8FF04A10C3088
:109C800003F0D4FF02A10C3003F0D0FF543810BD14
:109C90000000000010B5543004F021F80C3804F036
:109CA0001EF80C3804F01BF80C3804F018F80C38C7
:109CB00004F015F80C3804F012F80C3804F00FF822
:109CC000BDE810400C3804F00AB800000249014811
:109CD0000861704711860008840B002000B589B028
:109CE000F9F7E4F805A800F0BDF99DF8180000F0B8
:109CF000A7FA9DF819309DF81B209DF81A10CDE9A0
:109D00000103CDE903129DF8170000909DF816306D
:109D1000BDF8142002A10D4803F00CFE09B000BDEF
:109D2000436C6F636B3A20253034642D25303264E8
:109D30002D2530326420257320253032643A2530B9
:109D400032643A253032640D0A000000C8DB02207C
:109D500010B506E00648FCF751FFC1B20548FCF714
:109D6000C1FB0348FCF7F9FF0028F3DC10BD00003D
:109D7000E4DD0220F405002010B51DF097FE144C20
:109D80002168401AB0F5FA7F04D300F0A1FC1DF061
:109D90008DFE20601DF08AFE6168401AB0F57A7F62
:109DA00006D300F017F800F031F81DF07FFE606078
:109DB0001DF07CFEA168401AC82804D3FFF7C8FF35
:109DC0001DF074FEA060BDE8104000F02DBA000048
:109DD000B400002000B587B00DF11600021F05A9E0
:109DE000CDE9002103AA0290131D03A906488A1C8D
:109DF00005F0DAF9044805F004FAADF8180003A8F4
:109E000005F0EAFC07B000BDC00000201CB5084802
:109E100005F03CF906480188ADF800104188ADF81E
:109E200002108088ADF80400684605F0DDFC1CBD1A
:109E3000CC06002010B513A1174803F08FFD0521B3
:109E40000C201DF0D1FE00210C200DF039F94FF44B
:109E50007A700DF0FBF801210C200DF031F90FA103
:109E60000D4803F07BFDFEF7D7FB032101201DF019
:109E7000BBFE02210B201DF0B7FEBDE81040002004
:109E800000F02EBA506F7765723A20576169746995
:109E90006E672E2E2E000000C8DB0220506F776503
:109EA000723A204F4E00000070B504462DED028B33
:109EB0003021F6F71BFA3348007804F8100B3148CC
:109EC000FDF7DAFC04ED020B2E48FDF7ABFC2D4844
:109ED00084ED000B002580F87950D0F88000F6F76B
:109EE00056FC9FED298B53EC182BF6F7BDFBF6F7CC
:109EF00007FDA060234880F85950006EF6F747FC34
:109F00009FED231B53EC112BF6F73CFB53EC182B66
:109F1000F6F7AAFBF6F7F4FC20611A4880F86950BE
:109F2000006FF6F734FC53EC182BF6F79DFBF6F7B1
:109F3000E7FCE060134838300646FCF741F8E08261
:109F40003046FCF749F820763046FCF730F860766A
:109F50000C4848300646FCF767FBE0763046FCF7D5
:109F600078FB20773046FCF781FB6077054880F866
:109F70008950B0F89000A08214F8100CBDEC028B50
:109F800070BD0000F40500200000000000005940F2
:109F90006F1283C0CAA1FD3F0148007870470000DE
:109FA000D800002010B51DF081FD0146BDE810402D
:109FB0000148FBF766BA0000840B002010B50121B0
:109FC00014201DF011FE012115201DF00DFE0121B0
:109FD00013201DF009FE0C22044914200BF0B8FFD9
:109FE000BDE8104002490348FBF78FBA8D90000886
:109FF00059900008640B002070B51DF057FD164CF9
:10A000002169401AB0F57A7F0ED31448144D042309
:10A01000C17F01222846F7F7B3FD01212846F7F753
:10A0200010FE1DF043FD20612078002812D06088CA
:10A0300000280FD01DF03AFDA168401A618801EB9D
:10A040004102C2EBC111B0EBC10F03D3BDE87040B8
:10A0500000F07AB870BD0000C40000201418040895
:10A060000024014010B50446F8F784FE08488188B2
:10A0700021808179A170C179E170017A2171017823
:10A0800061714178A1718078E0710020208110BD5C
:10A0900060E102201CB5C2798179CDE900124379D3
:10A0A000C27881780088F8F74BFF1CBDF8B50546EB
:10A0B000144840F6E4460023009640F6FF72194625
:10A0C00080881DF0E9F9440041F20402B44201DA4B
:10A0D000344602E0944200DD1446642000900023E0
:10A0E000314620461DF0D8F9A870642805D00B2011
:10A0F0000CF0D6FF08B1012000E00020E8702C80B1
:10A10000F8BD0000C400002010B544F620624FF4F2
:10A110007A711120F8F78EFCBDE81040002000F0A5
:10A1200075B800000149087070470000E800002081
:10A1300010B500F04BF80146BDE810400148FBF7B0
:10A14000E6B90000640B002010B54FF4FA7100204E
:10A1500000F090F800210C200CF0B2FF0149012022
:10A16000487010BDC40000202DE9F0410025114EBB
:10A1700007462C4604EB440006EB80008168384615
:10A18000F6F7F0F828B1641C0B2CF3D32846BDE891
:10A19000F08104EB4400084D56F8201006EB8000D7
:10A1A00082882846FBF7A3F92846FBF767F90125C3
:10A1B000ECE70000A0A90308840B002002494868CE
:10A1C00000224A6070470000EC000020064810B5ED
:10A1D0000078002804D013200CF062FF08B10020A2
:10A1E00010BD012010BD0000EC00002001490870E6
:10A1F00070470000EC000020034890F81E11D0F8D2
:10A2000014011EF085BA000014180408002801DAB1
:10A21000002004E04FF47A71884200DD084681B2E4
:10A2200011200BF0ABBD000004484178002903D099
:10A23000C068002800D0004770470000C40000201C
:10A2400010B588B004461C2205496846F6F7CCFFD5
:10A25000072C03D25DF8240008B010BD01A0FBE775
:10A26000B8A80308000000000149486070470000DA
:10A27000D800002030B591B005460C46684613F072
:10A280005BF907480190FFF7B7FFCDE90805079094
:10A29000044806900A94684613F00AFA11B030BDDB
:10A2A0008197000809D60108B0EE412AF0EE612A34
:10A2B000B0EE403AF0EE603A90ED021B90ED040BE8
:10A2C000FBF708BF10B51DF0F1FB0149886010BD18
:10A2D000C40000200149C86070470000C40000208D
:10A2E00001490870FFF7EEBFC40000203EB5012110
:10A2F00008201DF079FC08200CF0D2FE18B114A142
:10A30000194803F02BFB0124002164F30F0061F3D3
:10A310001740CDE900500B46144A1C210296144800
:10A3200003F03CFB04000AD013491248086013A054
:10A33000FEF7C4FE13A0FEF7C1FE13A100E017A1B3
:10A34000094803F00BFB1948047020463EBD00008D
:10A3500053443A204341524420776173206E6F7416
:10A3600020696E7365727400C8DB022080C3C90166
:10A37000DC0600204D910008040200205472616345
:10A380006B0000004D41500053443A20496E6974FF
:10A3900020737563636573730000000053443A20B3
:10A3A00043415244204552524F520000D8000020F1
:10A3B00010B54FF416510848FCF732FC07A10E48BF
:10A3C00003F08CFA0D490C4803F088FABDE8104000
:10A3D0000BA1094803F0C2BAE4DD02204750533A0A
:10A3E0002054696E794750532B2B206C696272613F
:10A3F000727920762E200000C8DB02202C2504086C
:10A40000206279204D696B616C2048617274000094
:10A4100010B54FF4E1311B48FCF702FC1AA11948B2
:10A4200003F09CFA1AA1174803F098FA1CA11548EA
:10A4300003F094FA1FA1134803F090FAFFF7FAFC17
:10A44000FFF762FEFFF7BAFDFFF748FC00F03CF9AA
:10A45000FFF7AEFF012000F049F800F0D3F800F05C
:10A46000F7F8FFF733FCFFF741FF1F4C1D4A42F29C
:10A4700010712046F9F706FB2046BDE81040012187
:10A48000F9F7D6B8C8DB0220582D545241434B008F
:10A4900056657273696F6E3A2076312E3400000073
:10A4A000417574686F723A205F5649464558546545
:10A4B0006368000050726F6A6563743A2068747450
:10A4C00070733A2F2F6769746875622E636F6D2FF2
:10A4D0004641535453484946542F582D54524143F2
:10A4E0004B0000004F8300080008004070B5044690
:10A4F0000021234805F0ADF8002C3FD021A12748CA
:10A5000003F02CFA0025012421461D4805F0DDFB4F
:10A510001B4805F0CAFB10B1042815D023E020A188
:10A520001E4803F0DBF9102C03D225A11B4803F0D1
:10A53000D5F910222146194803F0D6F921A1174870
:10A5400003F00CFA6D1C0EE01FA1144803F0C6F9CD
:10A55000102C03D21AA1114803F0C0F91022214691
:10A560000E4803F005FA641CE4B27F2CCCD32A46D3
:10A57000BDE870401CA1094803F0DCB970BD0000C3
:10A5800054E002204932433A2064657669636520CD
:10A590007363616E6E696E672E2E2E00C8DB02201B
:10A5A0004932433A2064657669636520666F756E4B
:10A5B0006420617420616464726573732030780074
:10A5C00030000000202100004932433A20756E6BB4
:10A5D0006E6F77206572726F72206174206164649F
:10A5E00072657373203078004932433A2025642025
:10A5F000646576696365732077617320666F756E35
:10A60000640D0A0010B508A10B4803F067F96A2130
:10A610000A4804F060FE08B109A100E00AA1BDE803
:10A620001040054803F09AB9494D553A20696E69C2
:10A63000742E2E2E00000000C8DB0220C000002077
:10A6400073756363657373006661696C65640000AC
:10A6500010B50AA10D4803F041F9022201210C486E
:10A6600004F0E0FC08B10BA100E00CA1074803F0E6
:10A6700075F9BDE81040064804F0B8BC4D41473AB2
:10A6800020696E69742E2E2E00000000C8DB0220A7
:10A69000CC06002073756363657373006661696C33
:10A6A00065640000074A1278002A0AD0002904DBFA
:10A6B0000A4601460020FAF7FDBA01460020FAF7E3
:10A6C000A3BA7047E8000020052100201DF08CBAD5
:10A6D00070B508200CF0E4FC28B100240C4D287A59
:10A6E000C00702D00BE00124F8E70948083006F063
:10A6F0009FFE20B10648EC600830AFF30080E868A8
:10A70000A04203D02046FEF743FDEC6070BD000080
:10A71000D800002010B50878032802D06FF002009E
:10A7200010BD0869042802D06FF0010010BDC86890
:10A730000068FFF719FD002010BD000070B5254C22
:10A7400005462DED048BB0EE409AF0EE609A94EC45
:10A75000040BFFF7A9FDB0EE408AF0EE608A95ED9C
:10A76000020B53EC192B84ED000B95ED040B51EC0F
:10A77000180B84ED020BF5F7FFFE0D4645EC100BB0
:10A780009FED151B044653EC112B51EC100BF6F703
:10A790009FF802D245EC104B07E053EC182B51EC1C
:10A7A000190BF5F7E9FE41EC100B9FED0D1B51EC79
:10A7B000100B53EC112BF6F773F803D3B0EE498A64
:10A7C000F0EE698AB0EE480AF0EE680ABDEC048B40
:10A7D00070BD000018000020000000000000000014
:10A7E000000000000000594010B50A78042A04D087
:10A7F000022A05D06FF0020010BD00F00FF809E04A
:10A800000A69382A02D06FF0010010BDC8680249F9
:10A81000F6F7EAFC002010BDB003002070B5064634
:10A820002DED048B8CB030236A464BA103F0CEFA99
:10A830004A4D286B04F0E0FF04469FED490ABDF93C
:10A840002400B0EE408A032808DB9DED088A18EE4C
:10A85000100AB0F17E5F01DCB0EE408AB5EEC08A2E
:10A86000F1EE10FA66DD00EE104A9FED3E9ADFED44
:10A870003E8AB8EE400AC8EE090AD5E90821002050
:10A8800012194141C5E90821D5E9042112194141B4
:10A89000C5E9042160EE800A80EEA80A10EE100AD5
:10A8A000F5F7EBFF41EC100B6846FFF747FF51EC63
:10A8B000100BF6F725F800EE100AD5ED0A0A70EE37
:10A8C000809AC5ED0A9AD5ED060A30EE800A85ED2C
:10A8D000060A95ED010AB4EEC80AF1EE10FA01D2AB
:10A8E00085ED018AD5E90801F5F743FF29EEA81A9D
:10A8F00000EE900A81EE200ADFED1D0A9FED1D1A81
:10A9000020EE090A85ED020A9FED180A28EE000ADA
:10A9100060EE200A00EE104AB8EE400A20EE800AEF
:10A92000C0EE280A80EE810AD5ED0B0A30EE800ACF
:10A9300085ED0B0A85ED008A04F064FF2863382258
:10A940000649304603F087FA304603F0CAFA0CB0E5
:10A95000BDEC048B70BD000047505300B0030020D5
:10A96000000000006666664000007A4400008242F3
:10A970006666863F0000614570B503460A78184C4C
:10A9800008694FF0FF36012A01D1302804D0102881
:10A990000AD06FF0010070BD607818B1C968184620
:10A9A00000F04CF8002070BD022A02D0032A14D116
:10A9B0000EE0CD68A0681FF04AF808B1A0680068F2
:10A9C0006860A0681FF043F8A8602078287304E04E
:10A9D000C968184600F006F80646304670BD00000B
:10A9E000400000207FB500260978124C012539B1BE
:10A9F000002001290AD002290AD0032917D109E031
:10AA00000D48FDF713F86570257010E060700EE0DA
:10AA100065700CE02070607003A968461FF086FD29
:10AA20006946A0681FF075FD68461FF084FD04B0FC
:10AA3000304670BD40000020C8040020F0B587B04B
:10AA40000C4691ED041B91ED020B01AA69461B48CF
:10AA500004F040FD194F00984837F5F7A9FE054668
:10AA60000E460198F5F7A4FECDE90401CDE90256A2
:10AA700002A93846FDF722F9002819D094ED020BFF
:10AA800051EC100BF5F73CFF029094ED040B51ECE8
:10AA9000100BF5F735FF0390094802AA8068D0E94A
:10AAA0000113994206D00831416008391DF0E6FFD4
:10AAB00007B0F0BD1FF0C8FCFAE7000080040020DA
:10AAC0004000002008B5C2B2C0F30721C0F3074020
:10AAD00000F004F80090BDF8000008BD18B54C095E
:10AAE000BDF80030D20864F30203ADF80030C308AB
:10AAF000BDF80000890863F3C70080B262F30C2040
:10AB000080B261F34F30ADF8000080B218BD002272
:10AB100008B511461046FFF7E1FF0090BDF80000B0
:10AB200008BDFF2208B511461046FFF7D7FF009079
:10AB3000BDF8000008BD00002DE9F04105461646AD
:10AB4000084618F0F9F90746FEF784FBB000EF61FC
:10AB500017F092FBC5E90906002409E0384615F014
:10AB6000F5FC8046FEF776FB696A41F82480641C98
:10AB7000B442F3D33946284600F026FA384615F099
:10AB8000E5FC044609480AA1FCF71DFE01462046E3
:10AB900016F036FBE18DA08D49420AB2404201B267
:10ABA00020461AF0D4FD2C62BDE8F081A4050020F7
:10ABB0006770735F6172726F770000002DE9F04774
:10ABC0001646D0F828808146B8FBF6F00D4668435B
:10ABD000714302B209B2D9F81C001AF0D7FD002463
:10ABE0002FB216E0D9F824003A46114650F8240056
:10ABF00082461AF0CBFDB4FBF6F006FB104068432A
:10AC000001B2B4FBF6F0684302B250461AF09FFD61
:10AC1000641C4445E6D3BDE8F08770B50446D4E92A
:10AC20000F02904213D013461546014603E053F835
:10AC3000046B41F8046BAB42F9D1236C00E0091DB1
:10AC40009942FCD1101A20F00300181A2064002247
:10AC50001146E06A17F0F2FA206BBDE8704000225E
:10AC6000114617F0EBBA000038B50446001D1BF082
:10AC7000B5FDFEF7D4FA0146201D1BF09CFE99217C
:10AC8000201D1BF0A3FE0621201D1BF03AFF0A2108
:10AC9000201D1BF045FFFEF7C2FA0146201D1BF0E8
:10ACA00034FF04F10C0005461BF098FD15A119486E
:10ACB000FBF764FF014628461BF043FFFEF7B9FA95
:10ACC000014628461BF031FF04F1140004461BF036
:10ACD00085FD1E229321FF20FEF788FA0090BDF823
:10ACE000001020461BF08AFE052120461BF099FE2D
:10ACF000FF2120461BF08DFE2046BDE83840012193
:10AD00001BF08BBE6261686E736368726966745F04
:10AD1000313700009405002008B5ADF80010ADF8FB
:10AD20000220D0E910133C306A46994206D0091D32
:10AD30004160091F01D00098086008BD1FF0A3FA08
:10AD400008BD00002DE9F84305461F469046894698
:10AD50000846089E15F0FAFB0446414616F050FAE4
:10AD6000334600220221204617F068FD484616F0BF
:10AD7000C1FC064609A117F015F9002205F10C01E6
:10AD8000304617F005FD002000903B461422214676
:10AD9000304617F061FD3046BDE8F8832D2D0000E8
:10ADA0002DE9FC4104460F46084618F0C5F8054653
:10ADB000FEF750FA0022211D284617F0E9FC002278
:10ADC000FF2128461AF04CFE1E222D2128461AF09B
:10ADD000DDFC00213846FEF736FA283801B2282279
:10ADE00028461AF0B4FC0026A5640096C823254A1C
:10ADF0002549264801961BF0B3FE00213846FEF790
:10AE000022FA01464FF480573A4628461AF06FFE60
:10AE10003A46002128461AF023FE3946284617F004
:10AE2000B0FC3A46194928461AF056FE0022174946
:10AE300028461AF051FE284616F05CFC0746002210
:10AE400004F10C0117F0A4FC00239A1E09213846D6
:10AE500017F0F4FC0EA1384617F0A4F82846E76472
:10AE60001BF00EFA0546FEF7F5F9284603210F22DE
:10AE700012F0D6FE28460F21324612F01AFF256541
:10AE8000BDE8FC8109D6010818AE02086C05002057
:10AE90002D2D0000F8B50446084618F04DF805467B
:10AEA000FEF7D8F90022211D284617F071FC422236
:10AEB0009F2128461AF06AFC0A235F423A46042181
:10AEC000284617F0BBFC00220A2128461AF0DAFDBA
:10AED0002846A56516F00EFC06462BA117F062F871
:10AEE0002AA12E48FBF74AFE0146002230461AF0FE
:10AEF000EDFDFEF79EF90146002230461AF0D9FD1D
:10AF00003B4614220721304617F098FC2846E66598
:10AF100016F0F0FB064622A117F044F822A11F48C4
:10AF2000FBF72CFE0146002230461AF0CFFDFEF75B
:10AF300080F90146002230461AF0BBFD0320009044
:10AF400000230E223046E16D17F086FC13481AA14B
:10AF500010300646FCF737FC02460A200090052315
:10AF600029462046FFF7EEFE206615A13046FCF785
:10AF70002AFC02461E200090052329462046FFF7A2
:10AF8000E1FE6066F8BD0000303000006261686E6E
:10AF9000736368726966745F333200009405002041
:10AFA0006B6D2F68000000006261686E73636872E9
:10AFB0006966745F313300007472697000000000CC
:10AFC000616C61726D0000002DE9F04104460F468E
:10AFD000084617F06BF80546FEF73CF904F114013A
:10AFE00000220E46284617F0D3FB3846E56217F0DC
:10AFF0005DF80546FEF72EF900223146284617F087
:10B00000C7FB2563BDE8F0812DE9F04104463C30E3
:10B0100015460E4607461EF011FD38B138461EF0A3
:10B020000DFD82B2E16BE06A17F008F9206C04F1C3
:10B030003401022250F8040C606326876587206B78
:10B04000BDE8F04117F0FAB82DE9F0410546174682
:10B050000E460846FEF7FEF813F062FA13F0B4FA53
:10B06000044613F05DFA13F073FA014622463046A7
:10B070001AF08CFBFEF7DDF80146002230461AF08C
:10B0800091FC0022FF2130461AF09DFC304616F05C
:10B0900031FB002304461A46092117F0CFFB10A10B
:10B0A0001348FBF76BFD0146002220461AF00EFD07
:10B0B00010A1204616F076FF28462C60FFF7D4FD3D
:10B0C0003A4631462846FFF737FD31462846FFF716
:10B0D00067FE31462846BDE8F041FFF7DBBE0000C1
:10B0E0006261686E736368726966745F313700000D
:10B0F000940500204C4F4144494E472E2E2E00000F
:10B100003EB50446406A002510B117F03FF965626C
:10B1100000950195694604F13C0002951FF014F971
:10B12000201D1BF036FC04F10C001BF032FC04F176
:10B1300014001BF02EFC68461FF013F93EBD000002
:10B14000F0B50446444E0D46084699B032460021FB
:10B150001AF0D6F813F0E4F913F036FA074613F0B4
:10B16000DFF913F0F5F901463A4628461AF00EFBCE
:10B17000284617F0E1FE0546324600211AF0C0F8D5
:10B1800032226E2128461AF001FB1E229321FF2055
:10B19000FEF766F818900026BDF860103246284683
:10B1A0001AF016FC0022012128461AF022FC002287
:10B1B000032128461AF022FC0022012128461AF019
:10B1C00013FC2846FEF765F82846256016F092FA2B
:10B1D0000546224822A1FCF7F6FA0146002228463D
:10B1E0001AF074FCFF2211461046FEF739F8189049
:10B1F000BDF86010002228461AF05BFC1BA128460F
:10B2000016F0D0FE2846FEF744F8656012F0DEFA2C
:10B21000A060602217496846F5F7E6FF20680190B4
:10B2200041F201023146206819F057F800B204904B
:10B230006068099041F204023146206819F04DF827
:10B2400000B20B90606819F05EF90C906946A06836
:10B2500012F092FA19B0F0BDFFFF0F009405002024
:10B260006167656E6379625F33360000582D545212
:10B2700041434B00C0AC020810B50446806800286A
:10B2800003D012F0AEFA0020A06010BD10B5044645
:10B29000D83001F0A1FB04F13400616800F0DEFF5A
:10B2A0002046616800F026F82046A16B00F022F8E5
:10B2B0002046A16C00F01EF82046A16E00F01AF89E
:10B2C0002046A16D00F016F82046A16F00F012F89C
:10B2D0002046D4F8881000F00DF82046D4F89810D5
:10B2E00000F008F82046D4F8A810BDE8104000F09F
:10B2F00001B8000030B40C4608610346204630BC5B
:10B300000022014917F0DEB921B50008C06800F03D
:10B3100049B87047D0F8B40001F08BB910B50446B5
:10B32000343001F0F7F804F1D800BDE8104001F026
:10B33000A3BB000010B504460420F8F729FFD4F899
:10B34000B41016F06EF9012005F0C8F922464FF44A
:10B350007A710D481BF044FCC4F8DC001BF01BFDA7
:10B3600013F0DEF813F030F9404202B2002304F18A
:10B370003400616800F061FF6068BDE810400022A1
:10B380004FF4967118F0CCB80DB300087047D0F8A0
:10B39000DC001BF047BC406800224FF4967118F0A7
:10B3A000DDB80000F0B5A5B0044622A8009004F175
:10B3B000D800402304AA21A9064601F067FA04F147
:10B3C0003400DDED220A04A99DED210A054601F0B5
:10B3D00043F919A818A9CDE90210402704ACCDE91A
:10B3E000004717AB16AA15A9304601F07BF915AA3C
:10B3F0009DED192ADDED181A04A992EC030A2846DE
:10B4000001F094F81DA800901CAB1BAA1AA93046A5
:10B4100001F0EAF91BA89DED1A0A90E80E002846F3
:10B4200001F0E6F8402304AA1EA9304601F0AAF96B
:10B4300004AA28461E9901F0D1F8402204A93046FA
:10B4400001F0F2F904A9284601F0F0F804AB20AAB3
:10B450001FA93046009701F041FA04AA9DED200A89
:10B4600028461F9900F086FD402304AA23A93046F0
:10B4700001F06AFA9DF88C0008B10EA100E00EA15F
:10B480000EA312A2284600F08DFD1BF0A6FB0021A2
:10B49000402304AA04F0B8F90DA013A10094CDE94B
:10B4A000011015A317A21AA1284601F003F925B02F
:10B4B000F0BD0000594553004E4F00005344464133
:10B4C0005420763130313032000000002D00000071
:10B4D0004A756C20323420323032310A32333A35F8
:10B4E000353A35330000000041524D43430A76356A
:10B4F000303630373530000076382E312E3020642B
:10B50000657600005F5649464558546563680000FB
:10B51000582D545241434B2076312E340000000008
:10B5200070B5044614F04BFB0546204614F01EFB94
:10B530002C690646012807D10221284619F00BF88C
:10B5400010B1A068FAF7F4FB6068A84206D1102E8B
:10B5500004D1A068BDE87040FAF7EABB70BD0000F6
:10B56000014901607047000058230408F0B4D0E995
:10B570004D318B4216D00C460D461A4604E000BFF2
:10B58000F4E80267E2E80267AC42F9D1D0F838414A
:10B5900000E00832A242FCD1C91A21F00701611A69
:10B5A000C0F83811F0BCA030FCF740BA10B50C461A
:10B5B0000A46D0F83001302307A102F007FC2078BA
:10B5C000002807D19FED050B84ED020B9FED050BC5
:10B5D00084ED040B10BD00004750530036785F9592
:10B5E0000B195D402E73BA2C26F443402DE9F04729
:10B5F00082462DED028BA0B0D0F8300110231CAA9A
:10B6000026A102F0E3FB9DF87C00002840D05046C4
:10B61000FFF7ACFF6846FCF7DDFB9FED230B6846A8
:10B62000FCF7FFF9DDE91D9700242CE009EBC405C8
:10B630006868F5F722F941EC180B2868F5F71DF951
:10B6400041EC100B17AA16A9B0EE481AF0EE681AD2
:10B65000504603F03FFFE8461698F5F7A9F805466F
:10B660000E461798F5F7A4F8CDE91A01CDE918565A
:10B6700018A94046FCF722FB20B1DDE9161250461E
:10B6800000F016F8641CBC42D0D36846FCF7AAFB55
:10B6900020B0BDEC028BBDE8F087000054726163FE
:10B6A0006B46696C74657200000000000000004089
:10B6B0001CB5CDE90012D0E94E136A4600F59A7028
:10B6C000994205D00831416008391DF0DEF91CBDF2
:10B6D0001EF03EFF1CBD000038B5044613A02064D8
:10B6E00016A060643C2005F087FD051E08D004F01C
:10B6F00085F80246002313A12846009402F049FC75
:10B70000C4F8300113A104F5987402F01BFC12A1D7
:10B71000206802F017FC13A1206802F013FC2068D7
:10B72000BDE83840124902F03DBB00002F4D4150AA
:10B730002F4D6170496E666F730000006D61702E51
:10B7400062696E004C6976654D61704D6F64656C21
:10B75000000000004750530053706F7274537461BF
:10B7600074757300547261636B46696C7465720022
:10B77000A5B700083EB50446D0F83001002528B131
:10B7800002F043FC05F030FDC4F8305100950195FE
:10B79000694604F59A7002951EF03FFF68461EF058
:10B7A00049FF3EBD70B5054608780C46012802D019
:10B7B0006FF0020070BD606808A10068F4F7D2FD68
:10B7C00010B92269382A02D04FF0FF3070BDA86846
:10B7D000E168F830F5F708FD002070BD53706F7216
:10B7E000745374617475730038B504463C2005F0D9
:10B7F00003FD051E08D004F001F80246002305A150
:10B800002846009402F0C5FB2060BDE8384005A141
:10B8100002F098BB537461727455704D6F64656C1F
:10B82000000000004D75736963506C6179657200AA
:10B8300010B504460068002805D002F0E6FB05F0CC
:10B84000D3FC0020206010BD08B5042300910068DF
:10B850006A4602A102F017FB08BD00004D7573692E
:10B8600063506C617965720070B505460E460846F6
:10B8700015F040FF044614230022022116F0DEFFDB
:10B8800009A1204616F08EFB30462C6015F032FFE1
:10B89000044605A116F086FB002320461A4609211E
:10B8A00016F0CCFF6C6070BD000000007CB51D463A
:10B8B0001646084617F040FB0446FDF75BFF1F22C3
:10B8C0002821204619F062FF00232A46092120463C
:10B8D00016F0B4FF0022314620461AF06FF800221D
:10B8E000FF2120461AF06FF820222D2120461AF061
:10B8F000F8F82022192120461AF0A6F81A48FDF778
:10B9000009FF0146002220461AF04CF81748FDF7BF
:10B9100001FF0146202220461AF044F81448FDF7A2
:10B92000F9FE0146022220461AF03CF800220921C5
:10B9300020461AF0A7F8002000900190C8230D4A75
:10B940000D490E481BF00CF920220C4920461AF034
:10B95000C3F80222094920461AF0BEF820461AF020
:10B9600027F920467CBD000066666600BBBBBB00B5
:10B970001E93FF0009D6010820AD020858050020DB
:10B98000F8B50446084617F0D7FA0546FDF7F2FE6B
:10B9900012F0C6FD12F0DCFD01462822284619F0FF
:10B9A000F5FE0020009003460E222846E16816F0BE
:10B9B00053FF124812A106462564FBF704FF024616
:10B9C0006FF04F0329462046FFF770FF60640EA119
:10B9D0003046FBF7F8FE0246002329462046FFF7D3
:10B9E00065FFA0640AA13046FBF7EDFE0246502336
:10B9F00029462046FFF75AFFE064F8BDA405002061
:10BA00006C6F636174650000737461727400000090
:10BA10006D656E7500000000F8B50446084617F025
:10BA20008BFA0546FDF7A6FE12F07AFD12F090FDA6
:10BA300001468E22284619F0A9FE0022FF21284641
:10BA400019F0C1FF2948FDF765FE0146002228468E
:10BA500019F0A8FF00221B2128461AF013F86FF0F6
:10BA6000230128461AF082F82846256015F042FE88
:10BA700006461FA12248FBF781F801460022304606
:10BA80001AF024F8FDF76BFE0146002230461AF04A
:10BA900010F81CA1304616F085FA3F23002202213F
:10BAA000304616F0CBFE2846666015F023FE0546AC
:10BAB00015A11348FBF762F80146002228461AF048
:10BAC00005F8FDF74CFE01460022284619F0F1FF6B
:10BAD00011A1284616F066FA0820009000230E22D5
:10BAE0002846616816F0B8FEA560F8BD3333330010
:10BAF0006261686E736368726966745F36350000F0
:10BB000094050020303000006261686E73636872D3
:10BB10006966745F313700006B6D2F6800000000AC
:10BB200010B50446006D11F091FE206DBDE8104087
:10BB300011F08EBEF0B5064685B0084617F0FCF948
:10BB40000546FDF717FE002211461046FDF7EEFDF3
:10BB50000490BDF810100022284619F023FF12F0BF
:10BB6000DFFC12F0F5FC01465A22284619F00EFEC1
:10BB70006A2300220221284616F060FE042128468E
:10BB800019F0AAFD02231A460321284619F088FD60
:10BB90000B4BF56000240FCB8DE80F006F4600BF04
:10BBA00004EB440006EB800257F824302946304667
:10BBB000103200F007F8641C042CF1D305B0F0BD7E
:10BBC00008AE02082DE9F0411F461446084617F05A
:10BBD000B3F90546FDF7CEFD27225D21284619F071
:10BBE000D5FD0121284619F077FD02231A460421CC
:10BBF000284619F055FD284615F07CFD064617A18C
:10BC00001A48FAF7BBFF01460022304619F05EFFE2
:10BC1000FDF7A5FD01460022304619F04AFF2846EF
:10BC2000666015F067FD064611A11048FAF7A6FFF9
:10BC300001460022304619F049FF1148FDF76AFD20
:10BC400001460022304619F034FF3946304616F0DE
:10BC5000A9F9A6602560BDE8F08100006261686E08
:10BC6000736368726966745F313700009405002061
:10BC70006261686E736368726966745F3133000075
:10BC8000B3B3B300F0B50446B9B00E460846FDF7AD
:10BC900071FD12F045FC12F097FC054612F040FCD5
:10BCA00012F056FC01462A46304619F06FFD314627
:10BCB0002046FFF73FFF31462046FFF7ADFE3146F5
:10BCC0002046FFF75DFE11F081FD2065206818F029
:10BCD0001AFC0646E06818F016FC0546A06C17F042
:10BCE00042FD0746E02212496846F5F77DFA2068D2
:10BCF0000190206817F037FD4042CDE90306E06867
:10BD00000990E06817F02FFD4042CDE90B05E0688F
:10BD10001190606C1C971990A06C24972190E06C96
:10BD20002C9729906946206D11F026FD39B0F0BDA1
:10BD300028AD020810B50446006D11F052FD002038
:10BD4000206510BD1AF049BF00B58DB0806B30235F
:10BD50006A4606A102F03AF8BDF92400002802DD87
:10BD600001200DB000BD0020FBE70000475053004C
:10BD70003EB505468DF808104FF47A700C46ADF8C4
:10BD80000A00042302AA10A1A86B02F07CF801208B
:10BD900034B1012C08D0022C02D0032C0CD108E0C5
:10BDA0008DF800000BA002E08DF800000AA00190C1
:10BDB00002E000208DF8000008236A4608A1A86B65
:10BDC00002F061F83EBD00005265636F72646572F7
:10BDD000000000005245430050415553450000000B
:10BDE00053746174757342617200000038B5044683
:10BDF0003C2005F001FA051E08D003F0FFFC0246C6
:10BE000000230FA12846009402F0C3F810A1A063FC
:10BE100002F098F811A1A06B02F094F812A1A06BA7
:10BE200002F090F813A1A06B02F08CF812A1A06BA5
:10BE300002F088F8A06BBDE83840124901F0B2BFAB
:10BE40004469616C706C6174654D6F64656C000071
:10BE500053706F7274537461747573005265636FBD
:10BE600072646572000000005374617475734261FE
:10BE700072000000475053004D75736963506C6148
:10BE800079657200A1BE000810B50446806B0028D9
:10BE900005D002F0BAF805F0A7F90020A06310BDA4
:10BEA00070B5054608780C46012802D06FF00200F4
:10BEB00070BD606808A10068F4F754FA10B92269EF
:10BEC000382A02D04FF0FF3070BDA868E168F5F75E
:10BED0008BF9002070BD000053706F727453746151
:10BEE0007475730008B504230091806B6A4602A143
:10BEF00001F0C9FF08BD00004D75736963506C61A6
:10BF00007965720010B5044614F090F8C4F880000A
:10BF10001749241D14F0CEF90420F8F739F9E16F20
:10BF200015F07FFB216FE06F14F04CF8216EE06F8D
:10BF300014F048F8216DE06F14F044F8216CE06FC4
:10BF400014F040F8216BE06F14F03CF8216AE06FC8
:10BF500014F038F82169E06F14F034F82168E06FCC
:10BF600014F030F82068BDE8104014F0B1B80000BB
:10BF700033C60008FEB5064614460D4610EE100AFC
:10BF8000F4F77BFC8DE813002A4602A1F06D16F051
:10BF900043F8FEBD256425250A25302E3266560A53
:10BFA0002573000008B5009313460A46C06E02A12F
:10BFB00016F032F808BD000025730A25730A2573B0
:10BFC000000000007CB50446843005461AF006FCEB
:10BFD000DC2128461AF0BEFDFEF799FD01462846F1
:10BFE0001AF0E9FCFF2128461AF0F0FC2F4830A196
:10BFF000FBF7E9FB014628461AF0A3FDFEF791FD89
:10C00000014628461AF091FD04F18C0006461AF00C
:10C01000E5FB462130461AF09DFD082130461AF016
:10C02000E4FC022130461AF0E4FC2548FEF74AFD04
:10C03000014630461AF0CEFC002000900190C82343
:10C04000204A214921481AF08BFD204930461AF038
:10C050007DFD1E4928461AF079FD04F1940005463D
:10C060001AF0BCFB11481AA1FBF7ADFB01462846AC
:10C070001AF067FD1A48FEF725FD014628461AF01A
:10C0800054FD04F19C0004461AF0A8FB074810A1D7
:10C09000FBF799FB014620461AF053FDFEF741FDE0
:10C0A00001462046BDE87C401AF03FBD94050020C3
:10C0B0006261686E736368726966745F313700002D
:10C0C0001E93FF0061D601081EAE02088005002005
:10C0D0006261686E736368726966745F3133000011
:10C0E000999999002DE9F05F0546DDE90A9A9B468A
:10C0F0000C46104616F020FFDFF80C81074642463A
:10C10000002119F0FDF8DC21384619F0FCFC102163
:10C11000384616F094FE3846276016F00DFF0646A6
:10C120004246002119F0ECF8002205F18401304666
:10C1300016F02EFB022205F18C01304616F028FB8A
:10C1400000220721304619F027FC0121304619F062
:10C15000C3FA02231A460421304619F0A1FA3046E8
:10C1600014F0F4F9804629484946FBF72CFB0146B8
:10C17000404615F045F8304615F0BCFA594615F022
:10C1800011FF3846666015F0B5FA8046514615F045
:10C1900009FF002205F19401404616F0F9FA002348
:10C1A0004B220721404616F049FB3846C4F8088068
:10C1B00015F0A0FA804616A115F0F4FE002205F154
:10C1C0009C01404616F0E4FA00233C220921404637
:10C1D00016F034FB3046C4F80C8018F0B7FCA068A9
:10C1E00019F0E6FCA06817F0BEFA642800DC6420B1
:10C1F00004460146384619F07FFA21463046BDE82C
:10C20000F05F19F079BA0000FFFF0F00A4050020CD
:10C210002D00000010B5044684301AF0BAFB04F17A
:10C2200094001AF0B6FB04F19C001AF0B2FB04F182
:10C230008C00BDE810401AF0ACBB70B51E46144629
:10C240000D46084617F0F2FB001B02B233462846A3
:10C25000BDE87040002119F0D1B800002DE9FC4183
:10C2600004460D4608464D4A002119F049F812F0DF
:10C2700057F912F0A9F9064612F052F912F068F9CE
:10C2800001463246284619F081FAFEF740FC014685
:10C290000022284619F086FB0022FF21284619F0CB
:10C2A00092FB12F03DF912F08FF9643800EBD07078
:10C2B00040F34F07002632463946284619F0DCFB8A
:10C2C00032463946284619F0D1FB0121284619F09B
:10C2D00003FA002202231146284619F0E1F920460C
:10C2E000FFF770FE2EA136A0CDE90001214636A34E
:10C2F0002A460846FFF7F6FE35A142A0CDE9000127
:10C3000044A32A4604F110012046FFF7EBFE42A1A8
:10C3100045A0CDE9000146A32A4604F120012046AC
:10C32000FFF7E0FE43A149A0CDE900014AA32A4658
:10C3300004F130012046FFF7D5FE48A14AA0CDE91F
:10C3400000014CA32A4604F140012046FFF7CAFE33
:10C3500049A14FA0CDE9000151A32A4604F15001A3
:10C360002046FFF7BFFE50A155A0CDE9000156A31E
:10C370002A4604F160012046FFF7B4FE54A160A0F4
:10C38000CDE9000161A32A4604F170012046FFF7C0
:10C39000A9FE2046BDE8FC41FFF7B4BDFFFF0F003A
:10C3A000546F74616C20747269700A546F74616C9C
:10C3B0002074696D650A4D6178207370656564004D
:10C3C00062696379636C650053706F72740000007A
:10C3D0004C617469747564650A4C6F6E6769747535
:10C3E00064650A416C7469747564650A5554432028
:10C3F00054696D650A0A436F757273650A537065F7
:10C40000656400006D61705F6C6F636174696F6E6D
:10C410000000000047505300436F6D706173730A52
:10C42000580A590A5A000000636F6D7061737300F7
:10C430004D414700537465700A41780A41790A41B9
:10C440007A0A47780A47790A477A00006779726F53
:10C4500073636F7065000000494D55004461746559
:10C460000A54696D6500000074696D655F696E66E8
:10C470006F0000005254430055736167650A566FA0
:10C480006C746167650A5374617475730000000011
:10C49000626174746572795F696E666F0000000096
:10C4A00042617474657279004465746563740A55F9
:10C4B000736167650A56657273696F6E00000000EC
:10C4C00073746F726167650053746F7261676500A2
:10C4D0004669726D776172650A417574686F720A98
:10C4E0004C56474C0A5379735469636B0A436F6D1A
:10C4F00070696C65720A0A4275696C640A00000012
:10C5000073797374656D5F696E666F0053797374C8
:10C51000656D000010B50446D0F8800013F0A0FD52
:10C520002046BDE81040FFF775BE00002DE9F34F2F
:10C5300012EE100A2DED060B2DED048B8BB0B0EE34
:10C54000618AF0EE418AB0EE609AF0EE409AF4F71C
:10C5500094F906460F4618EE100AF4F78EF90446D1
:10C560000D4618EE900AF4F788F982468B4619EECC
:10C57000100AF4F782F98046894619EE900AF4F71A
:10C580007CF941EC100B06A853EC102B80E8F0006E
:10C59000169807A1CDE903B08DE800071598C0698A
:10C5A00015F03AFD0BB0BDEC048B08B0BDE8F08F80
:10C5B00025302E36660A25302E36660A25302E3274
:10C5C000666D0A25730A25302E3166206465670A78
:10C5D00025302E31666B6D2F6800000013460A4629
:10C5E000C06B01A115F018BD25640A257300000079
:10C5F000FEB507461E4615460C4610EE100AF4F727
:10C600003CF941EC100B8DE8700053EC102B02A1AB
:10C61000F86A15F001FDFEBD25302E3166206465F7
:10C62000670A25640A25640A25640000C06C15F0B9
:10C63000B9BC70B513F0A8FD17F0BCF8054617F0AB
:10C6400062FF0446284617F0B5F82146BDE8704061
:10C65000012218F0CFBF0000F0B507462DED028B88
:10C6600085B00E46B0EE408A10EE900AF4F705F958
:10C6700004460D4618EE100AF4F7FFF841EC100BD3
:10C680000096CDE9024553EC102B04A1F86815F093
:10C69000C3FC05B0BDEC028BF0BD000025302E328E
:10C6A000666B6D0A25730A25302E31666B6D2F6817
:10C6B000000000007FB50DF1200C9CE870008DE8B3
:10C6C000780013460A46C06F01A115F0A5FC7FBD96
:10C6D00025730A25730A25730A25730A25730A250B
:10C6E000730000002DE9F04792B00E461AA91C46CF
:10C6F00091E8800715460068302306AA1AA101F0C8
:10C7000065FB9DED0A0B51EC100BF4F7F9F8306066
:10C710009DED080B51EC100BF4F7F2F828609DED3D
:10C720000C0A0DF1040C84ED000A9DF841009DF8FF
:10C7300045309DF844209DF843108CE80F009DF88B
:10C7400040000090BDF83E3008A24146384604F053
:10C7500093FD9DED0D0A89ED000A9DED0E0A8AED0F
:10C76000000A12B0BDE8F0874750530025642D251C
:10C77000642D25640A253032643A253032643A2526
:10C780003032640070B58AB01D4616460C4600680B
:10C790000E2305AA0EA101F019FBBDF920002060AF
:10C7A000BDF918000DF1040CBDF91E30BDF91C20B7
:10C7B000BDF91A108CE80F00BDF916000090BDF904
:10C7C000143004A22946304604F056FD0AB070BD6C
:10C7D000494D550025640A25640A25640A25640A22
:10C7E00025640A25640000002DE9FC411C4615461D
:10C7F0000E46089F006806236A4609A101F0E6FA82
:10C800009FED080A86ED000ABDF900002860BDF919
:10C8100002002060BDF904003860BDE8FC81000022
:10C820004D4147000000000030B589B014460D4668
:10C8300000680A2305AA0DA101F0C8FA9DF81700A7
:10C840000DF1040C9DF81B309DF81A209DF819106D
:10C850008CE80F009DF816000090BDF8143005A27A
:10C860002146284604F008FD09B030BD436C6F63D3
:10C870006B00000025642D25642D25640A253032C7
:10C88000643A253032643A2530326400F0B58FB016
:10C890001E4615460F46149C006838236A460BA1B5
:10C8A00001F094FA9DED060ADFED0B0AB3B22A46B9
:10C8B00080EE201A87ED001ADDE9040102F0A4FFE2
:10C8C0009DED010A84ED000A0FB0F0BD53706F7248
:10C8D000745374617475730000007A44F8B51E4691
:10C8E00014460D46069F006804236A460EA101F017
:10C8F0006DFA9DF802002860BDF80000DFED0C0A1B
:10C9000000EE100AB8EE400A80EE201A84ED001AFC
:10C910009DF8030008B107A100E008A13A4630469F
:10C92000F3F70DFDF8BD0000506F77657200000051
:10C9300000007A444348415247450000444953436C
:10C940004841524745000000F0B52DED028B87B0FD
:10C950001E4617460C4600680C2304AA17A101F0D6
:10C9600035FA9DF8100020709DED060A9FED158A9E
:10C97000B8EE400A20EE080A20EE080A10EE100A6F
:10C98000F3F77BFF04460D46DDE90501401A00EE92
:10C99000100AB8EE400A20EE080A20EE080A10EE4F
:10C9A000100AF3F76AFF8DE8330007A231463846D4
:10C9B00004F062FC07B0BDEC028BF0BD53746F72E3
:10C9C000616765000000803A25302E31662F2530E2
:10C9D0002E3166204742000038B504463C2004F062
:10C9E0000BFC051E08D002F009FF0246002311A12E
:10C9F0002846009401F0CDFA13A1206001F0A2FABC
:10CA000014A1206801F09EFA13A1206801F09AFA9F
:10CA100012A1206801F096FA11A1206801F092FAA3
:10CA200011A1206801F08EFA2068BDE8384010A1FD
:10CA300001F088BA53797374656D496E666F734DF2
:10CA40006F64656C0000000053706F727453746102
:10CA500074757300475053004D414700494D5500D0
:10CA6000436C6F636B000000506F776572000000CD
:10CA700053746F726167650010B504460068002842
:10CA800005D001F0C2FA04F0AFFB0020206010BD19
:10CA90007FB54FF4807500F1E804C0F8F05011F054
:10CAA0003FFD11F055FD064611F03AFD11F08CFDE9
:10CAB000C4E900602046002211460646E83C03F027
:10CAC0005FF86946304603F096F8024604F13400F8
:10CAD00006466168FEF7B8FA02982946020A30460F
:10CAE000FEF76CF82046616800F04CF82046D4F858
:10CAF000841000F047F82046D4F88C1000F042F87B
:10CB000013F094FAC4F8EC010420F7F741FBD4F8D1
:10CB1000EC1114F086FDD4F88410D4F8EC0113F075
:10CB200051FAD4F8840008B1012100E00021D4F8C2
:10CB3000EC0113F09EFB0F4D0022D4F884002988ED
:10CB400011F0B7F8298804F1A00002F0E6FC0121F9
:10CB5000206D15F0F3FD04F5A0709FED070B054661
:10CB6000FAF75FFF06492846FAF75EFFC4F840412E
:10CB70007FBD00005C0000200000000000000040BD
:10CB80008711010830B40C4608610346204630BCCA
:10CB90000022014915F096BDBDCD000870B50C46C8
:10CBA00005461AF01AF82044A0F57A70C5F8E0019D
:10CBB00070BD70471FB590ED660A044612A1BDEE28
:10CBC000C00A54F8900F10EE102A15F025FAD4ED93
:10CBD0004C0A9FED0F1A80EE810A10EE100AF3F74F
:10CBE0004CFE41EC100B0BA153EC102B606815F0C0
:10CBF00013FAD4E94A0110236A4602F005FE014601
:10CC0000A06815F0CFF91FBD253032640000000088
:10CC100000007A4425302E3166206B6D0000000044
:10CC200070B504460C482246642119F0D9FF00254E
:10CC3000C4F8E051C4F8E8010121206D16F0FFF8B6
:10CC40000121606B15F07AFDC4F8F0510120C4F8A1
:10CC5000F45184F8F90170BDDB11010810B50446E8
:10CC60003430FEF74DFAD4F8EC01BDE8104013F073
:10CC7000F7B900001FB50446A030FEF72DFD1023C4
:10CC80006A460D49D4F8D00101F0A0F89DF80C00D7
:10CC900084F8F801012003F021FD2046FFF78AFF08
:10CCA0000121606B16F0CBF8606804B00022BDE88B
:10CCB0001040FA2116F034BCC82504087047A03093
:10CCC000FEF758BD2DE9F0410746D7E97540001B36
:10CCD000C51000D1002407F13400FDF79EFF0026A7
:10CCE00009E000BF04EBC60054F83610426838462D
:10CCF00000F005F8761CAE42F4D3BDE8F0811FB514
:10CD00000446CDE900126A4602A9E83002F098FF15
:10CD1000039802B2029801B204F13400FDF7FCFF5F
:10CD20001FBD10B50446D0F8E80119F07BFF0121C2
:10CD3000206D15F003FD6068FA22BDE81040114631
:10CD400016F00CBC1CB504466A460021E83002F01F
:10CD500001FF0098D4F8F011884204D10198D4F86A
:10CD6000F411884201D0012000E00020DDE900122A
:10CD7000C4E97C121CBD10B50446D0F8E00119F0DE
:10CD800026FFB0F57A7F0AD3204600F059F82046F6
:10CD9000FFF710FF19F021FFC4F8E00110BDD4F82F
:10CDA000E40119F014FF40F6B8318842F6D3E06F81
:10CDB000BDE810404FF4805115F0E3BC70B5044657
:10CDC00012F0FDFE0546204612F0D0FE2C69064604
:10CDD00010282AD0D4F88400A84220D11C2E02D0DA
:10CDE000012E19D01BE0284610F00CFF024612A1BC
:10CDF000921ED4F8800015F00FF94FF48051E06FC7
:10CE000016F044F819F0E9FEC4F8E4012046BDE844
:10CE10007040C821FFF7C2BEA068F8F789FFD4F8B8
:10CE20008C00A84206D1012E04D1A068BDE8704054
:10CE3000F8F77EBF70BD000025642F31330000007D
:10CE40002DE9F04304462DED028BA9B0A03018A9BE
:10CE50008146FEF7ABFBD4F8840010F0D3FE81B21C
:10CE600060480180D4F8DC00884202D0012084F8B8
:10CE7000F901484602F051FB9DED1C1B9DED1A0B7C
:10CE800007AA06A9484602F025FBDDE9061204F1CF
:10CE9000E800804602F074FE0698249007982590DA
:10CEA00024AA02A9404602F0CBFE94F8F80148B348
:10CEB00094F8F90128B14846FEF798FB002084F861
:10CEC000F9012046FFF73EFF10B12046FFF7FAFEBA
:10CED00004F5A0770698F3F76BFC05460E46079815
:10CEE000F3F766FCCDE90A01CDE9085608A93846F2
:10CEF000FAF7E4FE039802B2029801B204F134009A
:10CF0000FEF782F802A94046666D02F070FE3046D8
:10CF100017F0D7FA029900EBD070A1EB600005B2D0
:10CF2000304616F020FC039900EBD070A1EB6000B6
:10CF30002946656D02B29DED1F8A284618F007FC50
:10CF4000B2EE040A28EE000ABDEEC00A10EE100A86
:10CF500001B2284614F0DAF802A9404602F05FFE5A
:10CF600011F0DEFA11F0F4FA054611F0D9FA11F0D9
:10CF7000EFFA281A00EBD070451011F0D1FA11F039
:10CF800023FB064611F0CCFA11F01EFB301A039970
:10CF900000EBD070C1EB600002B20298281A01B217
:10CFA000206D18F0D4FB0025402612E026AA294661
:10CFB000404602F0CFFDDDE92612009608AB484658
:10CFC00002F06EFAA06D08A950F8250014F018F9C7
:10CFD0006D1CE06DA842E9D829B0BDEC028BBDE81C
:10CFE000F08300005C00002010B500240467446753
:10CFF0000D4984670160A03002F098FA01231A46B7
:10D000001946483002F026FE5830FAF7E3FE00F1E8
:10D0100094010C604C608C60A0F5A0741C21A030C1
:10D02000F3F764F9204610BD8823040810B50446C0
:10D030004030FEF7D9FB0020FDF7D8F804F13400AA
:10D040006168FEF77DF822464FF4FA61034819F053
:10D05000C7FDBDE81040012119F0A9BED5D00008D8
:10D06000406840F2DC524FF4FA7116F077BA70471C
:10D0700010B504463430FEF7FFF80120FDF7B6F88E
:10D0800004F14000BDE81040FEF7D2BB10B50446E5
:10D0900004A14030FEF7D8FBE06BBDE8104010F073
:10D0A000D7BB0000537461727455700001220021D7
:10D0B000427601760A224FF4FA7380F82C20024956
:10D0C000C38501637047000009D60108012003F001
:10D0D000D5BA7047C068002201A18068F8F753BE36
:10D0E00050616765732F4469616C706C6174650091
:10D0F0000149016070470000B823040810B50446D8
:10D1000041683430FEF7B0FBE168606B14F04AFF11
:10D110002046616800F006F804F13C00FEF712FEBC
:10D12000E06310BD30B40C4608610346204630BCB5
:10D130000022014915F0C6BA19D20008C06800F0F3
:10D1400053B87047704770471CB50446BDF80010CF
:10D15000072060F30201ADF80010BDF800201F2188
:10D1600061F3C70292B261F30C2291B260F34F31C6
:10D17000ADF8001088B20090BDF800000090BDF836
:10D180000000ADF806004FF47A70ADF80400E169D4
:10D1900001A821B1226A042A01D1F4F725F8BDF8CB
:10D1A0000600ADF8000000226068009918F0FAFB54
:10D1B000BDF804102246024819F012FD20641CBD7F
:10D1C0003DD1000801214176017604224FF47A73A3
:10D1D00080F82C200149C385016370476DD5010893
:10D1E000006C19F01FBD704710B504463C30FEF7C7
:10D1F000A9FD0246D4E90E03BDE8104001A114F0D8
:10D200000BBF00007469636B203D202564207361AF
:10D210007665203D2025640070B5054612F0CFFCF0
:10D220000446284612F0A2FC21694A68A24208D1AD
:10D23000042801D0102804D18868BDE87040F8F7B0
:10D2400077BD70BD0149016070470000E823040804
:10D2500010B504468830FEF7C9FD04F1340061685A
:10D26000FEF710FD12F0E2FEC4F8C80054F8781F73
:10D2700012F0A8FE6168206D12F0A4FEA168206D76
:10D2800012F0A0FE606812F023FF54F878192046CF
:10D2900000F00CF82046E16F00F008F82046D4F8C2
:10D2A0008010BDE8104000F001B8000030B40C461A
:10D2B0000346204630BC0022014915F003BA0000A5
:10D2C00069D40008826F8A4203D18068002206A1D7
:10D2D00006E0D0F880208A4204D18068002206A1AE
:10D2E000F8F751BD7047000050616765732F4C69B6
:10D2F00076654D617000000050616765732F53794A
:10D300007374656D496E666F73000000C06800F04D
:10D3100055B8704710B504460448FAF754FA014668
:10D32000E06FBDE81040002218F048BBA4050020C3
:10D3300010B5044602464FF47A71034819F050FCC8
:10D34000C4F8CC0010BD00000DD3000810B5044691
:10D350008830FEF799FD04F13400FEF7EBFCD4F8B9
:10D36000C800BDE8104012F07BBE10B50446002096
:10D3700003F0B4F90420F6F70BFFD4F8C81014F04A
:10D3800050F9204600F01AF804F13400BDE81040CE
:10D390000021FEF7C5BB00000A224FF4FA7380F8A3
:10D3A0002C200249C38501637047000009D601089B
:10D3B0007047D0F8CC0019F035BC00001FB590EDD7
:10D3C000220A04461DA1BDEEC00A54F8380F10EE23
:10D3D000102A14F021FEA06DF3F74FFA41EC100B68
:10D3E00018A153EC102B206914F016FED4E91C018F
:10D3F00010236A4602F008FA0146E06914F0D2FDF3
:10D40000D4ED1E0A9FED121A80EE810A10EE100A6A
:10D41000F3F733FA41EC100B0EA153EC102BA06A7A
:10D4200014F0FAFD94ED1F0A0DA1606BBDEEC00A69
:10D4300010EE102A14F0F0FD1FBD000025303264FC
:10D440000000000025302E3166206B6D2F68000033
:10D4500000007A4425302E3166206B6D00000000FC
:10D4600025642063616C000070B5044612F0A9FBCE
:10D470000646204612F0A3FB0546204612F076FB36
:10D480000446042803D129463046FFF71BFFF06FFE
:10D49000A8420BD1042C07D0052C07D1012130461E
:10D4A000BDE8704000F004B80021F8E770BD00004E
:10D4B00070B5044690F8D000012604F18805A8B1A3
:10D4C000012825D0022833D003283DD1002946D099
:10D4D00026A12846FEF706FD03212846FEF748FC54
:10D4E00025A12046FFF716FF00202BE000292BD0B6
:10D4F0002846FEF729FC28B121A12846FEF7F2FCB8
:10D50000002122E02846BDE870401FA1FEF7EABCDA
:10D51000002919D11EA12846FEF7E4FC0121284666
:10D52000FEF726FC14A12046FFF7F4FE022009E0D6
:10D53000A9B11BA12846FEF7D5FC1EA12046FFF786
:10D54000E9FE032084F8D00070BD2846FEF710FCE9
:10D550001AA12046FFF7DEFE84F8D06070BD08A156
:10D560002846FEF7BFFC0221EFE700004469736321
:10D570006F6E6E65637400007374617274000000F6
:10D58000436F6E6E656374004572726F72000000C7
:10D59000556E737461626C65436F6E6E6563740083
:10D5A0004E6F4F7065726174696F6E5761726E690C
:10D5B0006E67000073746F70000000007061757317
:10D5C0006500000002490160002180F8D01070471A
:10D5D000182404080FB47FB5144D2A68002A04D01B
:10D5E0000898032804DC002190477FBC5DF814FBF9
:10D5F00009AE69460820084600BF18B103F070FB69
:10D60000044600E0002432462046089903F026FB39
:10D61000206881682046884701462A680898904714
:10D620002068016820468847DFE70000A802002044
:10D6300013B5002403F0E0FD044614B90320FFF7FE
:10D64000C9FF20461CBDAFF30080AFF30080F4E7B4
:10D6500003F0CABD704700002DE9FC4707464FF0B4
:10D660000008C7F800809A46894600F10805C0F80E
:10D6700004801400464608D0B4F1804F01D3AFF3C4
:10D680000080A00003F0B4FD00E00020C5E9000424
:10D6900003E02868641E40F82460002CF9D1A5F14D
:10D6A0000804C5F80880C5F80C80C4E9068AB9F1F9
:10D6B00000000AD0F2F74FFE401C054603F098FD2B
:10D6C0002A464946F3F790FDA061062701A8AFF36B
:10D6D0000080014668461CF07DFB82463946174BA8
:10D6E000174A042003F09AFE65688046062D00D391
:10D6F0003D46C146266806E0314648461CF0BEFB62
:10D7000009F10409361D206800EB8500B042F3D111
:10D7100005E008EB850051466D1C1CF0AFFBBD42D7
:10D72000F7D306492068F3F7B6FAC4E900876846DC
:10D730001CF077FB2046BDE8FC870000239E020812
:10D74000B319000810B50446806903F049FD04F1DF
:10D7500008001BF03FFF08381BF04AFF10BD2DE901
:10D76000F04104460D461646104600212260002076
:10D7700000BF606048B1F2F7EEFD401C03F038FDD9
:10D7800007466168F2F709FE6760294630460020C7
:10D7900000BF2046BDE8F08110B54168044629B1BC
:10D7A0002068002000BF606803F01AFD204610BD0D
:10D7B0000C0008D00A460DA1104803F04FFD20468A
:10D7C00003F00EFD09E050B101280AD002280AD06A
:10D7D0000BA206A1094803F041FDAFF300800AA2A5
:10D7E000F7E70CA2F5E711A2F3E7000045786365BF
:10D7F0007074696F6E3A2025732E0A00AC02002007
:10D80000756E6B6E6F776E20657863657074696F87
:10D810006E000000756E65787065637465642065E0
:10D820007863657074696F6E000000006261645F08
:10D83000616C6C6F633A206F7574206F66206D6544
:10D840006D6F72790000000010B50A49044600208F
:10D85000D1E9003200E0401C824204D953F8201084
:10D8600009B1A142F7D153F82010002900D1104688
:10D8700010BD0000B00200202DE9F04190B000245E
:10D8800019468046169F944626466D4652EA010088
:10D890000FD13021404600F024F8012010B0BDE83F
:10D8A000F0813A4600236046F2F7A8FC2A558446E8
:10D8B000641C5CEA0100F4D174B1281910F8010C61
:10D8C0000A2801D2303000E03730C1B2404600F0C3
:10D8D00008F80644641EEFE73046DFE70268526846
:10D8E000104702681268104708B5002300920A46E4
:10D8F00000F001F808BD08B5029921B1C9B2009144
:10D90000FFF7BAFF08BDD1B20268126801B05DF836
:10D9100004EB104770B50C460646002505E030685C
:10D92000641C0268304690476D1C21780029F6D1AE
:10D93000284670BD0FB4802130B5A1B0054626AB96
:10D940006846259A03F0C4FC044669462846FFF75A
:10D95000C5FF21B0204630BC5DF814FB70B505460C
:10D96000FFF7BCFF0446284600F00CF8204470BDC9
:10D9700070B50546FFF7B8FF0446284600F002F8E8
:10D98000204470BD70B505460D21FFF7AAFF04467F
:10D990000A212846FFF7A5FF204470BD0FB470B5DB
:10D9A0008AB004461098119A129B139D04AE86E823
:10D9B0002D009DF850008DF8200010461A462B4689
:10D9C000089D8DE82D000A4604F58C6004F26C4138
:10D9D0000646049B02F062FC08B3254604F23C4074
:10D9E0002660044601F044F80121284602F0F4F9CB
:10D9F00020B90021284602F0EFF980B120462946DF
:10DA000001F0D6FA58B154B1207810F0700F06D05A
:10DA10000448046001200AB070BC5DF814FB0020CB
:10DA2000F9E700000002002000220272427202495F
:10DA3000C0E90012704700003423040810B5044602
:10DA4000006808B103F00CFD00202060A060606059
:10DA500010BD70B50D4604460068491C1AF0E2F985
:10DA6000002802D0C4E90005012070BD70B50E4643
:10DA700015460446114600F0C6F830B1A56031469F
:10DA80002068F2F78AFC204670BD2046FFF7D6FFDB
:10DA9000F9E70021016041608160704770B505467B
:10DAA0000C0009D00846F2F756FC024621462846EB
:10DAB000BDE8704000F002B8002070BD70B50446AB
:10DAC00080680E0000EB02050FD062B129462046A7
:10DAD00000F099F8002807D0A16820680844314672
:10DAE000F2F75BFCA560012070BD002070BD8A6864
:10DAF0000968FFF7E3BF00002DE9F05F0446806886
:10DB000015460F46002818D0B968002915D0AA6814
:10DB10002668A2EB0109B9F1000F08D036DAB04649
:10DB200027E0AA682968F3F75FFBA8680619304662
:10DB3000396803F023FB0400F3D1BDE8F09F00BF78
:10DB4000AAEB06008346024631464046F3F74CFBFB
:10DB500008EB0B063046AA682968F3F745FBA8686E
:10DB6000B96800EB060801EB0A06A16801EB0900A1
:10DB7000A0603046396803F001FB5FEA000ADFD19C
:10DB800031464046BDE8F05FF2F707BC80463046BC
:10DB9000396803F0F3FA20B1B9680E1808EB0900F0
:10DBA000F4E7A16840464145C7D06168414505D2C8
:10DBB00001462046FFF74DFF0028BED0A268521E46
:10DBC00018E02068B968A26801443144081A121AA2
:10DBD00001EB0900F3F708FBA16801EB0900A06065
:10DBE0002268002111542068AA6829683044F3F79C
:10DBF000FBFA721E002AA0DB3946204602F0A0FD87
:10DC00000600DED599E710B50446006810B16068DB
:10DC1000884209D22046FFF71CFF002805D0A068E3
:10DC200010B9216800200870012010BD70B50C46A5
:10DC30000546FFF72EFF3CB12046F2F78CFB02466B
:10DC400021462846FFF712FF284670BD70B50C46E6
:10DC50000546FFF71EFF2146284600F058F82846E3
:10DC600070BD30B50C462DED028B89B0B0EE408A08
:10DC7000F0EE608A0546FFF70CFFA01C6A462146BD
:10DC800040B2B0EE480AF0EE680A0CF085FC01469E
:10DC9000284600F02BF809B02846BDEC028B30BDB9
:10DCA00030B50C462DED028B89B0B0EE408A0546AA
:10DCB000FFF7EFFE18EE100AF2F7DFFD41EC100B54
:10DCC000A01C6A46214640B20CF066FC014628467C
:10DCD00000F00CF809B02846BDEC028B30BD10B541
:10DCE0000446006803F0BCFB204610BD70B50C0074
:10DCF000054608D00846F2F72EFB02462146284684
:10DD0000FFF7B4FE01E0FFF799FE284670BD10B59D
:10DD1000044688420BD0086828B18A68014620462C
:10DD2000FFF7A4FE02E02046FFF788FE204610BD64
:10DD300010B50446FFF7B2FE204610BD10B50446EC
:10DD4000FFF7D5FE204610BD70B504460A4604F123
:10DD50000C0140680E46F7F735FB05000CD02A464B
:10DD600031466068F7F742FB224605F1180160680A
:10DD7000F7F73CFB012070BD002070BD70B5044674
:10DD8000806A0D4618B118F04DFF0020A062002DEA
:10DD900005D022462946024818F022FFA06270BD35
:10DDA000A9DD00084162704700B5C06885B0426ACD
:10DDB000002A09D004218DF800100021CDE90201CC
:10DDC000049101906946904705B000BD70B51646B4
:10DDD00004460A461D46406804F10C01F7F7F2FAC2
:10DDE000010006D02B4632462046BDE8704000F0C8
:10DDF00003B86FF0060070BDF0B5164685B01D463D
:10DE00000A004FF0FF340DD0536A7BB102218DF828
:10DE1000001001AC049584E8450069461046984717
:10DE2000044616E06FF0060005B0F0BD906BA84206
:10DE30000FD102F12C0069460746F4F733FE40B1DA
:10DE40002A4630460099F3F7CFF93846F4F74DFEED
:10DE500000242046E8E7F8B514000D4602D0816B97
:10DE6000A14201D00020F8BD2C3069460646F4F7E7
:10DE700029FE224629460098F3F7B6F93046F4F712
:10DE800039FE0120F8BD70B5164604460A461D4607
:10DE9000406804F10C01F7F795FA010006D02B4613
:10DEA00032462046BDE8704000F003B86FF006002F
:10DEB00070BD30B585B00C000DD0656A75B1032119
:10DEC0008DF80010CDE9010469462046CDE9032311
:10DED000A84705B030BD6FF00600FAE76FF0030009
:10DEE000F7E7F0B50446806B87B04FF0FF3698B186
:10DEF00004F12C0005A90746F4F7D4FD80B10120F8
:10DF00008DF800000020CDE9014005980390A06B3A
:10DF10000490D4E906540EE06FF0040007B0F0BDA1
:10DF20006FF00500FAE72868426A1AB16946029064
:10DF3000904706462D1DA542F5D13846F4F7D5FD8C
:10DF40003046EBE77CB50D46044601682846F2F7FB
:10DF500009FA002809D004F10C012A460E4660682F
:10DF6000F7F730FA009008B100207CBD29466068C0
:10DF7000F7F723FA00900028F7D0694630461CF0E6
:10DF8000C7FB009801A9019418301CF0C1FB009850
:10DF90007CBD2DE9FC410E461D46174669460C30F6
:10DFA000DDF820801CF0C4FB01A90C301CF0C0FB84
:10DFB000A0F1180418210C30F2F798F984E8C00198
:10DFC000C5B1284603F014F907001BD0284603F01A
:10DFD0000FF9060013D029463846F2F787F929468B
:10DFE0003046F2F783F93246394604F12C00F4F753
:10DFF00078FDA56321466068F7F7B6F902E0384678
:10E0000003F0EEF82046BDE8FC812DE9F04104461E
:10E01000806B28B1E06A03F0E7F8206B03F0E4F8C6
:10E02000A06A08B118F0FEFDD4E9065704F1180003
:10E03000064604E028682168FFF786FE2D1DBD42D4
:10E04000F8D104F10C00D0E9005706E02968224617
:10E0500018316068F7F7CAF92D1DBD42F6D1214687
:10E060006068F7F7A5F930461CF067FB0C381CF028
:10E0700064FB0C38BDE8F081817800F1100241F0BA
:10E080000401817083680169184601F070BE024680
:10E0900000200146C30143EA5000535C491C184468
:10E0A000C9B2C0B20B29F5D3704770B50446C86831
:10E0B0000D4668B124212046F2F718F9102020708F
:10E0C0000120A070A868A060E8682062012070BDEF
:10E0D00089682046BDE8704000F06ABF2DE9F0472E
:10E0E0000D4607460E7B022406E0022C04D204F102
:10E0F000300088F80E0027E06A68AB68101980B21B
:10E10000002107E013F801C000EB401080EA0C008A
:10E1100080B2491C9142F5D3032E00D90326311D4C
:10E120000BE000BF00F00F020A2A01D2303200E0FB
:10E1300037326B1800095A73491EC9B2B142F1D87F
:10E1400005EB06084FF07E0A88F80DA0384600213E
:10E1500000F0A5FE05F10D090121384600F01BF87D
:10E16000010013D00878A0B1C87A40F3C000401C69
:10E17000F2D00B224846F2F703F90028ECD1641CD8
:10E18000E4B2642CB1D30020BDE8F0877878002891
:10E19000F9D10120F8E738B5044640694942C0F397
:10E1A00043150D420BD101226946204600F082FB47
:10E1B00040B28DF80000012803D0002038BD203087
:10E1C00001E060691F3060613021A06801EB4511FA
:10E1D000084438BD2DE9F0410446007880062CD46F
:10E1E00017496069884228D22046FFF745FF20B3CF
:10E1F0002169A06802F0E2FA074605223946A068C4
:10E2000001F0B2FD060018D04FF40071F2F76EF87D
:10E21000012506E07919324601F09DFD68B16D1CBB
:10E22000EDB2A0680179A942F4D8C8B2616901EBE6
:10E23000402060610120BDE8F0810020FBE7000084
:10E2400000FE1F0010B50A4604468169806801F08F
:10E250008BFD002804D0217901F00F0100EB411063
:10E2600010BD2DE9F84F08230026B146B2464FF005
:10E27000070B009300E0401C0378202BFBD0002309
:10E280004FF0010E8860C45CB4B12F2C14D05C2C0C
:10E290007CD0222C7AD02A2C78D03A2C76D03C2CE8
:10E2A00074D03E2C72D03F2C70D07C2C6ED0203C91
:10E2B0005F2C6BD25B1CE6E71C4600E0641C055D2E
:10E2C000202DFBD02F2DF9D00444146014E0C21887
:10E2D00012F8012C2E2A0ED0202A0CD0FF2B55DC50
:10E2E000002220244B608D18521CD2B26C730B2A72
:10E2F000F9D3002204E05B1E002BE8D1F0E7521CAA
:10E30000845C2E2CFBD0202CF9D012B100275D1E8E
:10E3100002E00127FBE76D1E002D6BDB445D2E2C18
:10E32000F9D167E0845C202C11D02E2C0DD0222C4A
:10E330001ED07C2C1CD0A4F12A0CBCF1050FA446E5
:10E3400007D8BCF12D0F13D116E0954210D000274D
:10E350004FE0ACF13A0CBCF1050F09D9A4F15B0C0C
:10E36000BCF1020F04D9A4F1210CBCF15E0F03D360
:10E37000AA4201D000275F24AA4201D0DA4516D96B
:10E38000BBF10A0F0FD0AA4203D000E03EE04FF0ED
:10E39000000731DC4FF010042A464FF00A0B4FF013
:10E3A000080A009425E0487B20282FD031E0A4F112
:10E3B000610CBCF1190F06D8DDF800C0203CE4B2B6
:10E3C00046EA0C0608E0A4F1410CBCF1190F03D891
:10E3D000DDF8008049EA080901EB0A0C8CF80D40D1
:10E3E0000AF1010404F0FF0ABAF1070F01D281F823
:10E3F0000CA0521C9A4295DB487B202806D047B1DE
:10E4000016EA090F00D002260E700CE00020BDE8CD
:10E41000F88F01F80CEB481C0B787E221A5411F887
:10E42000022B312050540120F1E72DE9F0410F4635
:10E430001D46164604462421DDF81880F1F756FFE4
:10E44000B868A060A680396AE16000F1300106F08A
:10E450000F0201EB4212D17A41F3C0035B1C48D09A
:10E4600001F017012170D37A13F0180F02D141F097
:10E470000801217084F8038015F0030104D00129FC
:10E4800010D0022935D10BE0A90632D40121A170A8
:10E49000C9B28B070BD52378C3F300164EBB03E03C
:10E4A0000321F4E70221F2E713F0010F21D105F077
:10E4B00088031943A170C16AA161518B938A41EA13
:10E4C0000341AB0608D511B101F0DDFD88B1A0789C
:10E4D00040F00400A07002E02162D069E0616807AA
:10E4E00004D52046E16900F0DAFC10B10120BDE856
:10E4F000F08100202070FAE713460A4601490968B6
:10E5000000F08AB9000200202DE9FF4F8DB04FF0D6
:10E5100000000C9002900B900A90D2F80490904664
:10E520000D008246044648D0287810F0700FFAD0CB
:10E530000D980078002840D198F80000800706D098
:10E5400009F10C000D21B0FBF1F0401C00E00120AE
:10E55000C7B22846002100F0A2FC08F10D0003908C
:10E5600068690121C0F34F162846FFF714FE030027
:10E5700007D01878E52808D038B1BC420ED2002464
:10E580000CE068780028D6D178E004B90A96BC423D
:10E5900001D2641CE4B298B3E5284BD02E2849D0B0
:10E5A000D97A0F290AD041F3C000401C42D0BAF1F9
:10E5B000000F51D00298012846D028E10793BAF104
:10E5C000000F1ED00299491EC9B20291884231D172
:10E5D000597B0B9881422DD10298401E00EB80019F
:10E5E00001EBC00BCB4525D20020089001460798CF
:10E5F000F5F7E6FC0146CB450CD10029B0D019E077
:10E600003CE04106ACD500F01F0082460290587BEA
:10E610000B90E1E7FF290DD8C8B2F5F7E2FCD8F876
:10E620000810064611F80B000BF1010BF5F7D9FCA9
:10E63000864202D04FF0000A92E70898401CC0B210
:10E6400008900D28D2D38BE71846FFF720FD01462E
:10E650000B9881420ED0DAE00B2218460399F1F7AD
:10E660008FFE0028E8D198F80000C00702D00120F2
:10E670000C9075E71098400666D4BBE01098C00671
:10E6800062D5109800F00300012801D002285BD168
:10E6900044B90A9606E000212846FFF77CFD20B128
:10E6A000641CE4B2BC42F6D30EE0687800284BD17B
:10E6B0000AE02846FFF78EFD002845D0A8680079BB
:10E6C000012803D81034E4B2BC42F2D30C9820B134
:10E6D00041462846FFF702FDB0B30A98410128469B
:10E6E00000F0DDFB80B37F1EFEB2B2464CE000219D
:10E6F0002846FFF750FD040026D0A868564510F8BC
:10E70000241F41F00101017002D146F0400000E0F9
:10E71000304620700F20E072002727730398FFF720
:10E72000B6FC607367832078D8F808B000F01F004B
:10E73000401E00EB800101EBC0014B4600209942D6
:10E7400003D21BF8012006E061E002D14FF0000285
:10E7500001E04FF6FF72052804D204EB4007A7F84A
:10E7600001200AE00B2803D204EB4007BA8004E042
:10E77000112802D204EB4007FA80401CC0B2491CA9
:10E780000D28DCD3761EF6B2002EB0D168690021C8
:10E79000C0F34F162846FFF7FEFC040037D02021B7
:10E7A000F1F7A4FD404650F80D1F216041686160FB
:10E7B00001892181807AA07298F8000000F0180089
:10E7C00020731448026822B104F10E01881C90479E
:10E7D00005E042F6210020824FF40060E081208AAB
:10E7E00060822083E089E082A86810F8241F41F04D
:10E7F00001010170CDF800A032462946109B0D980A
:10E80000FFF713FE18B1012011B0BDE8F08F002012
:10E81000FAE70000040200207FB590B005461E46CE
:10E820000C46684600F0DEFB284601F0B2FF401EB1
:10E8300020423DD0204601F0A6FF88B31298007810
:10E840002F280ED11298401C129000782F28F9D052
:10E850001298A1680078F0B1684600F0A9FBF8B101
:10E860006C4612AA09A91298FFF7FBFCC0B11298D6
:10E870000078B0B1002309AA21462846FFF744FEDC
:10E8800070B1242229466846F2F7AEFC6C46284651
:10E8900000F0EEF8E5E7284600F08AFB14B070BD02
:10E8A00006E0334609AA21462846FFF72DFEF5E784
:10E8B0000020F3E72DE9F05F0446007815464FF09D
:10E8C00000098B46002835D0A178C90732D001074E
:10E8D00005D56169E069401A85420AD20AE08006DE
:10E8E00008D5A168A08A0989C0EB411080B2854291
:10E8F00000D905462E4672E0227861699006A0682C
:10E90000C1F3080803D5006A00EB51201FE04379EA
:10E9100003EA512958EA090714D161B104F1100240
:10E92000216901F0DAFA002864DB0BD1207810F0BD
:10E93000700F56D15EE0C2F3801109B1006A00E0A9
:10E94000206A20612169A06801F038FF48448246AE
:10E95000B8F1000F08D14FF40077BE4204D3A2688B
:10E960005146D06A504511D1C8F50077B74200D959
:10E97000374600225146A06801F0F6F9A0B300EB3B
:10E9800008013A465846F2F72FFC23E0B6F5806FAF
:10E990002BD321784FEA5628890606D41379A3EBA6
:10E9A0000901C9B2414500D288464FEA482750457F
:10E9B00008D800EB0801514504D902F1240000F009
:10E9C0006BFF88B1A06851465A464346006801F083
:10E9D0008DFB48B16069BB443844F61B6061002E72
:10E9E0008AD1A81BBDE8F09F04E010685A4601F0E8
:10E9F000B0FDEEE7607840F0020060704FF0FF304D
:10EA0000F0E7000070B50446007830B3A078400706
:10EA10001FD501212046FFF715FC05001FD02878DF
:10EA2000E5281CD02078000701D5E069E861208C3A
:10EA30006883206A000CA8820C4842682AB105F15C
:10EA40001601881C9047288B6882A07820F004006B
:10EA5000A070A06801F004FB08B1012070BD6078CF
:10EA600040F001006070002070BD00000002002036
:10EA700010B50446FFF7C6FF0021217010BDF0B5A8
:10EA800089B00D00044654D0287810F0700F50D093
:10EA900052232046FFF738FDE8B30120A07010266E
:10EAA00026702046FFF796FBA8B320692062204617
:10EAB00000F063F92046FFF7A5FF60B3012120466F
:10EAC000FFF7C0FB010034D0CE7220226846F2F777
:10EAD0008BFB2E2601208DF80060694620220A5407
:10EAE000401CC0B20B28FAD3216AA06801F066FE70
:10EAF00001460122A06801F037F9070019D0202251
:10EB00006946F2F771FB8DF80160288CADF81A00A8
:10EB1000286A000C00E00CE0ADF8140020226946E1
:10EB200007F12000F2F760FBA06801F099FA09B044
:10EB3000F0BD0020FBE77FB590B006461D460C46B1
:10EB4000684600F04FFA304601F023FE401E204296
:10EB50003CD0204601F017FE80B3129800782F2891
:10EB60000BD11298401C129000782F28F9D06846DB
:10EB7000A16800F01DFA08B36C4612AA09A9129800
:10EB8000FFF76FFBD0B112980078C0B1002309AA3B
:10EB900021463046FFF7B8FC30B97DB109AA2146BD
:10EBA0003046FFF76CFF48B1242231466846F2F741
:10EBB0001BFB6C463046FFF75BFFDEE706E009AA69
:10EBC00021463046FFF75BFF14B070BD0020FBE725
:10EBD0002DE9F05F04460078904689461646000706
:10EBE0004FF0FF3B7ED5A07881077BD5000705D588
:10EBF0002046E16900F053F9002873D060694FF4B2
:10EC0000007AC14341456DD36FE0A36860695979CB
:10EC1000C0F3080701EA502555EA070012D121691F
:10EC200069B104F11002184601F057F9002859DBC8
:10EC300008D12046FFF720FA00287ED002E0206AA3
:10EC400038B120612169A06801F0B8FD411957B9B8
:10EC500007E02046FFF710FA00286ED020692062F6
:10EC6000F0E756451DD2C7F50075B54200D93546C7
:10EC70002FB9E2696069904201D3052200E00122C8
:10EC8000A06801F071F868B338442A464946F2F7A3
:10EC9000ABFAE819504521D1A068243000F0FCFD02
:10ECA0001BE0B6F5806F28D3A268730A1079401B69
:10ECB000C0B2834200D90346D06A5D02884207D8B9
:10ECC0001844884204D9002082F82400C2F82CB0ED
:10ECD000A0684A46006801F0C2FA18B16069A94408
:10ECE000284400E029E0761B6061002E8DD1E169A7
:10ECF0006069884210D9E06111E0A0685546C26A97
:10ED00008A4204D1002280F82420C0F82CB04A4660
:10ED1000A06801F020F8E0E70B48406818B1A0783F
:10ED200040F00400A070A078000603D52046FFF74D
:10ED300069FE10B14046BDE8F09F607840F00100E8
:10ED400060705846F7E700000002002010B50C463E
:10ED5000017881B111F0600F04D02F2020700020C5
:10ED6000607006E00021FFF76DFA20B1214600F047
:10ED700007F8012010BD002010BD002100F08FB861
:10ED8000F0B504460020082502462E26A35C202B61
:10ED900012D0082A03D110250E54401CC0B2A35C27
:10EDA000A3F14107192F04D8277B2F4201D020332C
:10EDB000DBB20B54401CC0B2521CD2B20B2AE5D3BA
:10EDC00000220A54F0BD2DE9F04F89B04FF0000940
:10EDD0008DF8009006468DF801900078924688469E
:10EDE000E8B3BAF10D0F56D3F07830B1314668462A
:10EDF000FFF75BF998B301244AE03046FFF7A6FF1E
:10EE000009B0BDE8F08FB088001B4101684600F0F2
:10EE100046F820B300216846FFF7BDF95FEA000B12
:10EE200039D09BF80B000F2835D19BF8000000F07B
:10EE30001F00A0422FD1401E00EB800101EBC00556
:10EE4000002739465846F5F7BBF868B155450BD24F
:10EE50007F2800D33F2008F805007F1C00E01AE05F
:10EE6000FFB26D1C0D2FECD3554505D29BF8000069
:10EE7000400601D508F8059008EB0A0101F8019C4D
:10EE80009BF80000400601D50120B9E7641CE4B2FC
:10EE9000F078A042B7D288F800900020B0E72DE9C2
:10EEA000F041027807690D460446CAB36169A94278
:10EEB00002D10120BDE8F0812DB1100706D5E0692F
:10EEC000A8422DD30AE0002020612CE0900605D551
:10EED000A0680089B5EB401F25D921E0A368481E32
:10EEE00093F806C00CF1090C20FA0CF06E1E26FAFD
:10EEF0000CF6864202D309B1361A06E0C2F380103E
:10EF000008B1186A00E0206A206104F11008761E3A
:10EF100009D342462169A06800F0DFFF0028F6DC33
:10EF200000202761C6E76561C3E72DE9F8430026A5
:10EF300090460D468146344601F02BFC401E284287
:10EF400034D0284601F01FFC78B3287DC0062DD1AF
:10EF500068690021C0F34F172846FFF71CF920B35A
:10EF6000017811B32E2916D0E52914D0C27A42F3C4
:10EF7000C0035B1C11D01CB1FFF789F8B04215D15A
:10EF800043463A46294648460094FFF74EFA60B198
:10EF90000120BDE8F8830024DAE70F2AFBD14A06F6
:10EFA000D6D501F01F04467BD2E7FFE70020F0E74B
:10EFB00070B5044600780D4658B924212046F1F773
:10EFC00095F9A560E8790C2805D0102803D02028F1
:10EFD00003D0002070BD202000E0402020700120E0
:10EFE000A07070BD002101704170704710B50446DB
:10EFF000C079002815D170222021204600F0B6F8F3
:10F0000000222121204600F0B1F8002222212046D2
:10F0100000F0ACF820460C22BDE81040232100F09F
:10F02000A5B810BD70B515460C460646012902D09C
:10F03000022D02D01CE00DB908E0E4B90F221E2118
:10F0400000F072F83D280DD0012D06D00F221C21B2
:10F05000304600F069F83D2806D0012C0BD0022D77
:10F0600009D005E0012500E00025012C00D1002495
:10F07000F47134B901E0002070BD012D03D01C20D3
:10F080003072012070BD1E20FAE700002DE9F04724
:10F090000446017A234800F018FEA821214800F018
:10F0A00050FE204800F001FE217A06221D4800F0A3
:10F0B000DFFD18F0FBFC85B20CE0608950B118F060
:10F0C000F5FC80B26189401B884203DD012020737A
:10F0D000BDE8F087134800F037FE0628EDD311484D
:10F0E00000F0FEFD80460F4800F0FAFD07460D488F
:10F0F00000F0F6FD06460B4800F0F2FD0546094813
:10F1000000F0EEFD8146074800F0EAFD014648EABE
:10F110000720208046EA0520608049EA0120A0807F
:10F12000D6E7000054E0022070B514460D460E48A4
:10F1300000F0CBFD21460C4800F0EFFD0A4800F03E
:10F14000B4FD4FF0FF3468B901222946064800F0AB
:10F150008FFD054800F0F8FD20B1BDE87040024881
:10F1600000F0BEBD204670BD54E0022070B50D46D3
:10F170000446017A1646084800F0A7FD29460648CD
:10F1800000F0CBFD3146044800F0C7FD024800F016
:10F190008CFDA07170BD000054E002200121C171FE
:10F1A00000214181017370472DE9FE430E460AA9F3
:10F1B0001C4691E8800315460C236A46222100F084
:10F1C000D5F8BDF8021039809DF801009DF80010B7
:10F1D000000240420843A8F80000BDF80410A9F856
:10F1E0000010BDF8080030809DF807009DF806105B
:10F1F0000002404208432880BDF80A002080BDE894
:10F20000FE8370B505464B2100F092F804464C2170
:10F21000284600F08DF844EA002070BD70B5144611
:10F220000D4606468022012100F0C6F88E220F21ED
:10F23000304600F0C1F85020B5FBF0F0C0B260F3EA
:10F24000DF04E2B21421304600F0B6F800220121BA
:10F25000304600F0B1F83046BDE87040012310227E
:10F260001921AFF300802DE9F0411D4614460E46EA
:10F27000074600F05DF80DB1204300E0A0430246D0
:10F2800031463846BDE8F04100F096B8012304222B
:10F290001921FFF7E8BF10B5044601238222582147
:10F2A000FFF7E1FF01238C2259212046FFF7DBFF06
:10F2B0007F225A21204600F07FF8012380225B2123
:10F2C0002046FFF7D0FF204601230822BDE810406A
:10F2D0005E21FFF7C8BF10B50446017000F0DAF8F0
:10F2E000322007F0B3FE08223021204600F07AF8E1
:10F2F00004220021204600F079F864220A212046E9
:10F3000000F078F82046FFF7C6FF06224FF482612E
:10F310002046FFF783FF2046FFF7B8FF0F21204666
:10F3200000F006F86A2801D0002010BD012010BDB1
:10F3300070B50D46044601780B4800F0C6FC29461E
:10F34000094800F0EAFC084800F0AFFC21780122EF
:10F35000054800F08DFC044800F0C2FC0446024859
:10F3600000F0A3FC204670BD54E002202DE9F041DE
:10F370000F46044601781D4616460E4800F0A5FCCF
:10F3800039460C4800F0C9FC0A4800F08EFC217890
:10F390002A46084800F06CFC002403E000F0A0FCC2
:10F3A0003055641C0348AC42F8DBBDE8F04100F086
:10F3B0007CBC000054E0022070B50C460178154674
:10F3C000074800F082FC2146054800F0A6FC2946CB
:10F3D000034800F0A2FCBDE87040014800F065BCA5
:10F3E00054E002200A431021FFF7E6BF0A4311212F
:10F3F000FFF7E2BF00EE101ADFED230A9FED231A9C
:10F40000B8EEC00A70B560EE200A0646282092FBCE
:10F41000F0F080EE810AC5B202F062FDDFED1C0A59
:10F42000FF2D20EE200ABCEEC00A10EE100AC4B276
:10F4300000DDFF25FF2C00DDFF24A0220121304646
:10F44000FFF7BAFF2A4650213046FFF7B5FF2246A4
:10F4500054213046FFF7B0FF402259213046FFF7D4
:10F46000ABFF002201213046FFF7A6FF01238022D7
:10F4700019213046FFF7F7FE3046BDE87040012302
:10F480001A460B21FFF7EFBEDB0F49400000344363
:10F490000000804201231A461221FFF7E4BE00005B
:10F4A000FEB5048F1D46B1FBF4F1B2FBF4F2089EE9
:10F4B000436C8DE80E00036C02A23146284601F031
:10F4C000DBFEFEBD25732F256C582F256C582F258C
:10F4D0007300000070B586B0B0EE412AF0EE612AEC
:10F4E0000E460446B0EE401AF0EE601A154602A928
:10F4F0006846B0EE420AF0EE620AF3F723FA9DEC9A
:10F50000040B05AB04AA2046E16BF8F7E9FD04986B
:10F5100030600598286006B070BD426B8A4202DCFC
:10F52000026B8A4200DA1146C163704710B5F8F7E2
:10F53000DBFE0F210322C0E90C124FF48072028718
:10F54000C16302A1016405A1416410BD4D41502F6A
:10F550004D6170496E666F73000000006D61702E22
:10F5600062696E00F8F7F2BE70B50446002100F043
:10F57000E1F80121204600F0F2F80121204600F0D8
:10F58000D9F894F8560007F08BFD30B10025002122
:10F59000204600F0CFF8284670BD0125F7E710B5EA
:10F5A0000446002100F0DBF80121204600F0C2F8FB
:10F5B0002046BDE81040002100F0BCB870B50646FA
:10F5C0000025012100F0CBF800240121304600F095
:10F5D000B1F896F8560007F063FDC4F107018840C2
:10F5E0002843C5B20021304600F0A4F8641C082C62
:10F5F000EBDB284670BD10B50446012100F0AFF8E2
:10F600000121204600F096F82046BDE81040002178
:10F6100000F090B82DE9F04100240E460746012580
:10F62000C4F1070105FA01F0304201D0012100E0E8
:10F630000021384600F093F80121384600F07AF8AE
:10F640000021384600F076F8641C082CE8DBBDE8A1
:10F65000F08110B50446002004F8520F06216070B6
:10F6600004F8220C04F8210CE07818F0BDFA207997
:10F670000621523C18F0B8FA0121204600F05AF851
:10F680002046BDE81040012100F069B870B504467D
:10F690000020608120794006050EE088012801D114
:10F6A00045F00105204600F076F829462046FFF790
:10F6B000B1FF2046FFF758FF20B1E088012819D09C
:10F6C00000252AE0204600F057F8022070BD2046B1
:10F6D000FFF774FF02466089E368411C61811A5498
:10F6E000608921898842204602D2FFF758FF01E055
:10F6F000FFF781FF608921898842E8D310E0E06844
:10F70000415D2046FFF786FF2046FFF72DFF60B1E1
:10F710006089401C6D1C6081EDB22089A842EED842
:10F72000204600F029F8002070BD204600F024F8A3
:10F73000032070BD70B504460D4690F8540007F0E4
:10F740008FFC94F85500294607F0BAFC002D05D02F
:10F7500094F8550007F0A4FC0028F9D070BD70B5EE
:10F7600004460D4614F8540F07F07AFCA078294699
:10F77000BDE8704007F0A4BC10B504460021FFF7B7
:10F78000EEFF01212046FFF7D5FF2046BDE81040DF
:10F790000121FFF7E4BF10B504460021FFF7DFFFAA
:10F7A0002046BDE810400021FFF7C4BF10B5044C4F
:10F7B000046080F8543080F8551080F8562010BD51
:10F7C0004823040803490160002180F8551080F89F
:10F7D0005610704748230408014602480E2200686C
:10F7E000FEF739BB380000200146024806220068B7
:10F7F000FEF731BB3C00002017F0E9B90048704724
:10F800002003002017F0E9B97CB51D4616464FF4D9
:10F810007A720023F0F7F2FC3C220023F0F7EEFCB2
:10F8200014463C220023F0F7E9FCCDE9002403460E
:10F8300003A22946304616F07FFF30467CBD00000B
:10F8400025643A253032643A2530326400000000E5
:10F850002DE9F041044680680E46174604F10C0578
:10F86000B0420FD0204600F017F898B1780706D4C0
:10F87000606831462A46006800F06BFE50B10020F7
:10F880002070A660207807F0030108432070284606
:10F89000BDE8F0810020FBE770B504460078C007A2
:10F8A00016D0D4E9010104F10C02154600F053FA18
:10F8B00080B12078800707D5D4E90101026911449D
:10F8C0002A4600F048FA28B1207820F00100207084
:10F8D000012070BD002070BD10B5044601290BD079
:10F8E00080206082211D2068F3F704FC2068BDE8B9
:10F8F00010400121F3F7BCBB0020F2E72DE9F041F5
:10F900000F46044600680021F3F7B2FB37B1012F20
:10F9100006D0022F06D0032F09D106E0002602E010
:10F92000002603E00226002501E00226012566816B
:10F93000A581211D2068F3F7DDFB2068BDE8F041BB
:10F940000121F3F795BB10B5044601810068211D24
:10F95000F3F7D0FB2068BDE810400121F3F788BB26
:10F960002DE9FF5F0446DDE90E8B1F46914600211D
:10F97000DDF840A00198F3F77BFBB8F1000F09D048
:10F98000B8F1010F08D0B8F1020F07D0B8F1030F9A
:10F9900009D106E0002602E0002603E00226002549
:10F9A00001E0022601250020A080A4F8069027810E
:10F9B0006681A581A4F80EB0A4F810A01198608209
:10F9C0000320A082211D0198F3F794FB019804B055
:10F9D0000121BDE8F05FF3F74BBB00680021F3F7AE
:10F9E00047BB0FB4002170B586B006460B98BDF832
:10F9F000384001919DF83A500090ADF80C40014616
:10FA00008DF80E50304600F077F821463046FFF76B
:10FA100063FF29463046FFF771FF0C9881B23046EC
:10FA2000FFF791FF306806B0012170BC5DF814EB60
:10FA3000F3F71EBB1FB504460068F3F72BFB2A4AF9
:10FA400020682A49904210D108680121A06108036A
:10FA5000F3F78CF80821052018F0C6F808210620D5
:10FA600018F0C2F8082107202DE0214A904216D153
:10FA7000086801214008A0618803F3F75FF80821B6
:10FA80001D2018F0B1F808211E2018F0ADF808214B
:10FA90001F2018F0A9F82068F3F7FCFA15E0154AC2
:10FAA000904212D1086801214008A061C803F3F711
:10FAB00045F80821132018F097F80821142018F0B1
:10FAC00093F80821152018F08FF8002010214A0122
:10FAD000CDE90002CDE9021003464FF482722046C0
:10FAE0002168FFF73DFF1FBD003001403C020020B0
:10FAF00000380040003C004010B504468069B0FB6F
:10FB0000F1F082B2022A01D8002218E0042A01D8BA
:10FB1000082214E0082A01D8102210E0102A01D887
:10FB200018220CE0202A01D8202208E0402A01D81F
:10FB3000282204E0802A01D8302200E038222282E4
:10FB4000211D2068F3F7D6FA2068BDE81040012196
:10FB5000F3F78EBA70B5446BC36B85681B1BB3FBA0
:10FB6000F5F3B1FBF3F603FB1616B1FBF3F105FB5E
:10FB700006441460836B806800FB0130506070BDE8
:10FB8000F0B50446C4E90312D0F800C0D0F804E090
:10FB900080684FEA5C064FEA5E058B1B571B3144B9
:10FBA0002A446361C4E90671C4E90A21BCFBF0F58B
:10FBB000BEFBF0F62263C4E90873AD1CB61C4543D6
:10FBC000464300221946204600F02DF860630022CB
:10FBD0002046A16900F027F8A063626B62645119A6
:10FBE000C4E90F103044C4E912012065F0BD00F1F2
:10FBF0000C0200F025B810B5426B0A60826B4A60B7
:10FC0000436BC26BD31A8B60846B826C121BCA600D
:10FC10008168B3FBF1F0B2FBF1F1484310BD00F194
:10FC2000140200F00DB88368B1FBF3F003FB101071
:10FC300020B1081A002A00D01844704708467047BF
:10FC400010B51368446B1B1B0B605268806B101A55
:10FC5000486010BD2DE9F0410D461F46164604468A
:10FC60005421F0F743FB84E8E0002046BDE8F08132
:10FC700010B50446202A00DD2022A1800120E0806A
:10FC8000228194F8301004F110000844E0602068EC
:10FC900001682046884794F83100A17A0844C0B230
:10FCA00084F831000021E18010BD10B5044690F8C1
:10FCB000530008B1012010BD206801682046884724
:10FCC000002104F8521F617010BD818090F852200D
:10FCD00000F132011144C16000210181C1807047EF
:10FCE00010B590F8302090F831400021A24204D1A4
:10FCF00000F8301F4170002010BD641E00F1100399
:10FD0000A24205D1D25C00F8301F4170104610BDF0
:10FD1000511C80F83010D05C10BD10B590F8522006
:10FD2000202A0AD0134600F13204521C80F85220D7
:10FD300019550189491C018110BD012180F853101A
:10FD400010BDC9B2FFF7E9BF90F8311090F830004C
:10FD5000081AC0B27047006800F0EEB942F0020223
:10FD600000F50C70FFF774BD2430FFF771BD2DE96D
:10FD7000F843C4680D4690460746AC4202D20C4692
:10FD8000002600E00126F869641CA04202D20EBBE6
:10FD9000FC68F7E7AC421DD06A462146384600F0C1
:10FDA0009CF8002816DBEED000980028EBD106B1B5
:10FDB000FC602146384600F062F958B12DB1224668
:10FDC0002946384600F0EBF820B10120C8F8004081
:10FDD000BDE8F8830020FBE72DE9F0414FF0000576
:10FDE0000446C5714FF00100A462E06084F824501D
:10FDF0004FF0FF30C4F83442E06284F830520F0014
:10FE00002E46C4F8380212D0042F64D800221146BE
:10FE10002046FFF7A9FF00285DD000EB071090F8FF
:10FE2000AE1100F5D770490655D18568F5B30022AB
:10FE300029462046FFF798FFC0B3B0F80B10B1F584
:10FE4000007F48D1017C022945D1C18971B3417B32
:10FE500021714A1E6271A671012205E032B3520679
:10FE6000A379120E5B1CA3719142F7D1C18A01B92B
:10FE7000416A2161C2892A44A261B0F8113023810C
:10FE800002EB41012162B0F8112040F2FF1303EBB5
:10FE9000421201EB52226261B0F8131001B9016AFB
:10FEA000521B891AA279D1404A1C00E013E0E2619A
:10FEB00040F6F572914201D20C2008E04FF6F5723F
:10FEC000914201D2102002E0C06A20622020E0713D
:10FED0000120BDE8F0810020FBE72DE9F0419046CC
:10FEE0000C460546022957D3E869A04254D3E87965
:10FEF000202804D0102811D00C281CD04CE0A86970
:10FF0000002200EBD4112846FFF728FFB8B304F015
:10FF10007F0150F8210020F0704033E0A869C4F35D
:10FF20000721014400222846FFF718FF38B3E1B249
:10FF300030F8110026E0A0B200EB500087B2A869AB
:10FF4000002200EB572631462846FFF707FF010045
:10FF500022D0C7F308000F5C401CB0F5007F07D12A
:10FF60000022711C2846FFF7F9FE010014D0002082
:10FF7000085CE10747EA002002D0000902E00BE03C
:10FF8000C0F30B00E969814202D20020BDE8F08194
:10FF9000C8F800000120F9E74FF0FF30F6E72DE93F
:10FFA000F04117460D460646022957D3F069A8428C
:10FFB00054D3F079202804D010280FD00C281AD060
:10FFC0004CE0B069012200EBD5113046FFF7C6FEC8
:10FFD000E8B305F07F0140F821703CE0B069C5F35B
:10FFE0000721014401223046FFF7B8FE78B3E9B299
:10FFF00020F811702FE0A8B200EB500084B2B06975
:020000040801F1
:10000000012200EB5420804601463046FFF7A6FE51
:10001000E8B1C4F30804F9B2EA0703D0025D61F362
:100020001F12D1B20155641CB4F5007F07D108F14D
:100030000101002401223046FFF790FE38B1C7F3DA
:100040000711EA0706D1025D02F0F00200E005E0C8
:1000500042EA111101550120BDE8F0810020FBE7C3
:1000600010B504462430FFF717FC30B104F50C70CE
:10007000FFF712FC08B1012010BD002010BD6FF089
:100080007042FFF78CBFF8B5064600200C46009082
:100090006A4621463046FFF720FF05000FD40022B4
:1000A00021463046FFF77BFF48B1F068A04201D3FC
:1000B000641EF460009C002DEAD10120F8BD0020F0
:1000C000F8BD08B501228DF8001069460830FEF72A
:1000D0007FFD08BD70B514460D46F5F7D9F8401BF5
:1000E000A04201DD012070BD002070BD2DE9F0416E
:1000F0001E461546804600F04DFA002815D0002413
:100100004FF400770AE03A462946404600F0B6F937
:1001100000280AD0641CA4B205F50075B442F2D3DD
:100120004046BDE8F04100F0E4B9BDE8F081406828
:10013000FF21006800F032BB70B50446807A154696
:10014000032800D049020A461821204600F03DF855
:1001500008B1322019E02A46FE21204600F046FA76
:10016000A0B14FF4FA61204600F063F830B10022EC
:100170000D21204600F029F830B901E05A2004E0B2
:100180002046FFF7D4FF30B129202070204600F030
:1001900051F9002070BD204600F04CF9012070BDDF
:1001A00010B50446807A032800D049020A46192176
:1001B000204600F00AF830B133202070204600F0CD
:1001C00039F9002010BD012010BDF7B50646007AB0
:1001D0000D4610B9304600F09FF925B14FF49671E5
:1001E000304600F026F845F04001304600F01EF998
:1001F00002AF03243046395D00F018F9641E64B282
:10020000002CF7DA45B18721304600F00FF930466F
:10021000FFF78DFF002403E09521F5E7641CE4B2AD
:100220003046FFF784FF7072010601D50A2CF5D322
:10023000FEBD70B50D460646F5F72AF8044607E000
:100240002A4621463046FFF745FF08B1002070BD21
:100250003046FFF76CFFFF28F2D1012070BD2DE979
:10026000F0411E4615460746FFF79AFF80B100246D
:1002700007E02946384600F0A2F948B1641C05F5AC
:100280000075B442F5D33846BDE8F04100F0DDB961
:10029000384600F0CFF80020BDE8F0810FB42DE91A
:1002A000F04188B000250572057085721646044637
:1002B0004160F4F7EDFF6768804601213E763046E5
:1002C00006F0FEFE0521304617F08EFC3868FFF779
:1002D000B1FB012262F30F0065F31740CDE9000680
:1002E00051492A466068F6F74DFD204600F014F9A2
:1002F00060680121007E06F0E3FEFF21204600F049
:1003000095F86D1CEDB20A2DF7D360680021007ED0
:1003100006F0D6FE01254FF4027700221146204652
:10032000FFF753FF012811D00A2D0DD0FD212046E3
:1003300000F07CF800262046FFF7F9FE761CBE424E
:10034000F9DB6D1CEDB2E8E7202038E04FF4D57200
:1003500008212046FFF739FF05280DD0002520464B
:10036000FFF7E5FE6D1CEDB26072042DF7D3C0B24D
:10037000AA2805D0252022E00120A072002502E055
:100380000220A07245074FF4FA6607E03246414664
:100390002046FFF79FFE08B1432010E02A4629219E
:1003A000204600F05CF80028F0D1A07A022821D184
:1003B00000223A212046FFF708FF50B13720207075
:1003C000204600F037F8002008B0BDE8F0015DF8E5
:1003D00014FB2046FFF7ABFE0321B1EB901F01D1C8
:1003E0000320A07200252046FFF7A1FE6D1CEDB290
:1003F000032DF8D3204600F01DF811981299139A96
:10040000149B02AD85E80F009DF854008DF818008C
:100410000699CDE900311346DDE902126068F6F76E
:10042000B1FC0120D0E7000090D0030040680068D4
:1004300000F0B4B910B50446007A00280ED0606808
:100440000121007E06F03CFEFF212046FFF7EEFF73
:1004500060680068FFF7C1FA0020207210BD70B517
:1004600014460D46064600223721FFF7AEFE22460F
:1004700029463046BDE87040FFF7A7BE2DE9F041A0
:1004800015460F460446F4F703FF06464FF47A7804
:1004900007E0424631462046FFF71CFE08B15520D2
:1004A00009E02046FFF743FE6072FF28F1D0C0B29A
:1004B000FE2807D0502020702046FFF7BBFF002009
:1004C000BDE8F0810026D4F8048006E0FF21D8F8CA
:1004D000000000F063F9B855761CAE42F6D3002058
:1004E00060722046FFF723FE2046FFF720FE012022
:1004F000E6E710B5044600220C21FFF766FE30B196
:10050000282020702046FFF795FF002010BD2046D0
:10051000FFF790FF012010BD70B50446007A86B049
:10052000002814D16068011D2EC98DE82E00067DBB
:100530008DF81060049ECDE900560068FFF751FA6F
:1005400060680021007E06F0BBFD0120207206B02D
:1005500070BD70B50446807A1546032800D0490264
:100560000A4611212046FFF730FE10B130202070DE
:100570000BE04FF4007229462046FFF77FFF20B1C1
:100580002046FFF757FF012070BD2046FFF752FFBE
:10059000002070BD10B50446807A032800D04902BF
:1005A0000A4612212046FFF710FE30B1312020709C
:1005B0002046FFF73FFF002010BD012010BD70B5A1
:1005C0000D4604464FF4FA61FFF733FE38B12A4670
:1005D000FC21204600F00AF818B1012070BD5B2014
:1005E00020702046FFF726FF002070BD2DE9F04760
:1005F000144605464FF6FF77FFF718FFD5F804902D
:100600004FF400780026D9F80000A15D00F0C6F88C
:10061000761C4645F7D3390A2846FFF707FFF9B29B
:100620002846FFF703FF2846FFF781FD687200F0B8
:100630001F00052807D0572028702846FFF7FAFE2C
:100640000020BDE8F0870120FBE710B504464FF419
:10065000FA61FFF7EEFD40B1FD212046FFF7E6FE0F
:100660002046FFF7E7FE012010BD562020702046EF
:10067000FFF7E0FE002010BDF8F746B830B591B0A6
:100680006FF01504002510B920462C460546684633
:100690000CF052FF0D4800680090079408944FF446
:1006A000FA70CDE909500A480B900A4801900A48AF
:1006B00006909DF83E10012060F300018DF83E1079
:1006C00068460CF0F5FF11B030BD00003405002085
:1006D00018FCFFFF6D5B020809D6010870B50C49D4
:1006E0004FF480550C6838B101280FD129462046B7
:1006F000BDE8704012F045B80021204612F041F8E4
:1007000029462046BDE8704012F0C0BB70BD000015
:1007100034050020B0F90E0070470078401EC0B2CA
:10072000704770470A78054912B1D1E9002101E00C
:10073000D1E90221C0E9002170470000E49F0308CD
:100740002DE9F0410F468968144606464FF0FF3503
:10075000B1B1B068A0B1814212D8A04200D8441E05
:10076000306809E0396800F009FD48B13168411A84
:10077000A14200D80D46401C316821448142F1D28B
:100780002846BDE8F081007810F0700000D001200C
:1007900070470078002800D00120704708B5026833
:1007A0009389ADF800309181006801898907FCD5F3
:1007B00001890906FCD48089C0B208BD42698079EC
:1007C000891E814050187047406870472DE9FC41F0
:1007D0000D46174601684FF0FF3406226846FCF7C5
:1007E000BEFF21462868F4F7E5FA0646401C12D001
:1007F00000F0A6FC0546D5E9004104EBC100A0428B
:100800000FD12846491C18F0FDFED5E9000100EB88
:10081000C104083C0AE06846FCF7BEFF2046BDE87C
:10082000FC812268521C01D00834E8E73946201DBB
:10083000266000F057FC2868201AC410EBE710B5BA
:100840000C4600F07DFC4168A14204DD006800EB2D
:10085000C400001D10BDBDE8104000F0EBBBF8B5B2
:100860001C4615460E4600F06BFC4168B1420EDD99
:10087000006850F83600411C09D0002100916B46F9
:1008800022462946F4F786FA6946884200D10020BC
:10089000F8BD406930F81200084000D001207047D0
:1008A0002DE9F84F0646006889461D464169DDF886
:1008B00028B09246294201D0002406E00069374959
:1008C000284201D0CC6800E08C684FF0000884B169
:1008D000D9F80070E068B84207D86A46791C04F17C
:1008E0000800CDF8008018F04AFEA06850F8277084
:1008F000F7BBBAF1000F02D10420FCF76BFE84B104
:10090000D9F80070E068B84207D86A46791C04F14B
:100910000800CDF8008018F032FEA06850F827706B
:1009200037BB326800231EA1506928420ED0022333
:10093000102100200D4203D0116851F8201009E069
:100940004900401C0628F5D3164903E010692842E7
:1009500000D00123184600225B46984707463CB169
:100960003068A04212D02146684600F085FB00E0C6
:100970000CE04A463946684600F016F8CDF800808B
:10098000E069401EE061684600F09CFB4A4639463B
:10099000304600F009F83846BDE8F88F8C02002098
:1009A00000000000D4250408F8B50646087A15466C
:1009B0000C46C0070FD1286820B917490868401CA9
:1009C0000860286020683146826820469047A06809
:1009D00040F00100A06030682D68C068A84207D8C8
:1009E0000020009030686A46691C083018F0C7FD86
:1009F0003068806850F8250030B1C168491EC16078
:100A000002D1016849688847E068401CE0603068AE
:100A1000806840F82540F8BDB80200207CB5054646
:100A200008680C46806948B16846AFF3008002460A
:100A300020688169284619F0B1F97CBD01A8AFF39F
:100A40000080024600A1F5E72A00000010B5044628
:100A5000EFF713FC204610BD7CB504462DA1EFF73F
:100A600081FCE8B32CA12046EFF77CFCC0B34FF427
:100A7000007000F0BDFB0546022221466846FCF7E7
:100A80006EFE0024EFF7ECFB06464FF480733068EF
:100A90000021005D10F0010F00D0012110F03E0F89
:100AA00001D041F0020110F0400F01D041F00401EB
:100AB00010F0100F01D041F0080110F0080F01D024
:100AC00041F0100110F0980F01D041F020012028D2
:100AD0001DD000220AB141F0400110F0020F00E0E9
:100AE00013E001D041F0800180EA800010F0800F17
:100AF00001D041F4807125F81410641C9C42C6D1C9
:100B00006846FCF749FE28467CBD05487CBD0122AD
:100B1000E0E7000043000000504F53495800000038
:100B2000402004082DE9FC41064615460C460846BF
:100B3000FFF792FF01462B460022304600F086F96F
:100B40003E490160064640693D49884273D0012014
:100B50003076022221466846FCF701FE0024FF257C
:100B6000E2B210213046FFF794FE38B909E0EAB24C
:100B700010213046FFF78DFE30B96D1EA542F6D824
:100B800002E0641CAC42EBD3C6E90745F76A18E003
:100B9000A4F16100192810D8E2B210213046FFF705
:100BA00078FE50B1A4F1200808F0FF020821304679
:100BB000FFF76FFE08B1404600E0204607F8010B42
:100BC000641CAC42E4D90024FF25E2B2082130467F
:100BD000FFF75FFE38B909E0EAB208213046FFF7B7
:100BE00058FE30B96D1EA542F6D802E0641CAC4236
:100BF000EBD3C6E90945376B18E0A4F14100192889
:100C000010D8E2B208213046FFF743FE50B104F19C
:100C1000200808F0FF0210213046FFF73AFE08B125
:100C2000404600E0204607F8010B641CAC42E4D9C2
:100C30006846FCF7B1FD3046BDE8FC818424040819
:100C40004020040810B500F004F8BDE8104000F0A2
:100C5000CBBA10B500F08EF910BD0000F7B51746FD
:100C6000002413460D4606460A4621462046F8F75C
:100C700041FB04000DD1002D01DB172D00D3002511
:100C8000164800213B4650F825200846F8F706FB99
:100C900004467068B8B1EFF75EFB05462046EFF7F3
:100CA0005AFB2844401C00F0A3FA7168EFF775FB6B
:100CB0002146EFF726FB0546706800F091FA2046C2
:100CC00000F08EFA2C4674603046FEBDAFF3008013
:100CD000204600F085FAAFF30080F5E7981E04087F
:100CE00010B500F027FA024901600021416010BDF3
:100CF000B824040810B5044604482060606800F079
:100D00006FFA2046AFF3008010BD0000B82404083D
:100D100010B519F086F810BD10B504464FF0FF303D
:100D2000206000F087F90146201D00F0B5F9001F92
:100D300010BD10B5001D00F0C5F9001F10BD10B5A5
:100D4000044601C92060201D00F0CCF9204610BDEA
:100D50002DE9FE43064602A8FFF760FE0222684620
:100D60000299FCF7FCFC02A819F05BF80024FF25AF
:100D7000E2B210213046FFF78CFD38B909E0EAB243
:100D800010213046FFF785FD30B96D1EA542F6D81B
:100D900002E0641CAC42EBD3C6E90745F76A18E0F1
:100DA000A4F16100192810D8E2B210213046FFF7F3
:100DB00070FD50B1A4F1200808F0FF020821304670
:100DC000FFF767FD08B1404600E0204607F8010B39
:100DD000641CAC42E4D90024FF25E2B2082130466D
:100DE000FFF757FD38B909E0EAB208213046FFF7AE
:100DF00050FD30B96D1EA542F6D802E0641CAC422D
:100E0000EBD3C6E90945376B18E0A4F14100192876
:100E100010D8E2B208213046FFF73BFD50B104F193
:100E2000200808F0FF0210213046FFF732FD08B11C
:100E3000404600E0204607F8010B641CAC42E4D9B0
:100E40006846FCF7A9FCBDE8FE8300002DE9F041EF
:100E50000646202070600020C6E902033F4B336045
:100E60007161327611B93E49716130760024FF25F7
:100E7000E2B210213046FFF70CFD38B909E0EAB2C2
:100E800010213046FFF705FD30B96D1EA542F6D89A
:100E900002E0641CAC42EBD3281BC6E90745401CAA
:100EA00000F0A6F90746F06218E0A4F161001928E5
:100EB00010D8E2B210213046FFF7EBFC50B1A4F19C
:100EC000200808F0FF0208213046FFF7E2FC08B1D5
:100ED000404600E0204607F8010B641CAC42E4D910
:100EE0000024FF25E2B208213046FFF7D2FC38B9D2
:100EF00009E0EAB208213046FFF7CBFC30B96D1E9D
:100F0000A542F6D802E0641CAC42EBD3281BC6E92C
:100F10000945401C00F06CF90746306318E0A4F165
:100F20004100192810D8E2B208213046FFF7B1FC81
:100F300050B104F1200808F0FF0210213046FFF7FD
:100F4000A8FC08B1404600E0204607F8010B641CED
:100F5000AC42E4D93046BDE8F0810000CC2404085E
:100F60004020040810B500F005F8BDE8104000F07E
:100F70003BB9000010B5044608482060207E10B13F
:100F8000606900F02DF9E06A00F02AF9206B00F0AA
:100F900027F92046AFF3008010BD0000CC240408E0
:100FA00010B5AFF30080BDE8104000F01DB900009F
:100FB00070B51D4E3069002827D1202000F01CF9A3
:100FC000044602230A2219A1FCF746FB002410253F
:100FD000B06008E0B1680868896900EB840018F027
:100FE00027FF6D00641C15F47C7FF3D1202000F0F6
:100FF00003F9044601230A220DA1FCF72DFB4FF44F
:101000007C71F0600161B068306170BDAFF3008049
:10101000B06818B1FCF796FB00F0E6F800203061EC
:10102000B060AFF3008070BD8C0200204300000070
:101030000000000010B50D4C206908B9FFF7B8FF9B
:101040002078C0070FD1094800F0F2F958B10748DD
:10105000A168001D00F010F8054A0649EFF7D4F921
:101060000248AFF300800148001D10BD8C02002033
:1010700000000008C510010810B5044601600548CD
:10108000006908B9FFF794FF2168C869401CC8616E
:10109000204610BD8C02002009680160CA69521CFC
:1010A000CA61704770B5064C0546206808B9FFF75D
:1010B0007FFF21682960C869401CC861284670BD4F
:1010C0009C02002010B50446006848B1C169491E61
:1010D000C16105D1206818B1FCF734FB00F084F839
:1010E000204610BD70B50D4604460168286881424F
:1010F0000FD0C169491CC1612068C169491EC16125
:1011000005D1206818B1FCF71DFB00F06DF82868C8
:101110002060204670BD10B500F004F8BDE8104016
:1011200000F062B810B51030FFF7F2FD1038AFF3E1
:10113000008010BD014901607047000020250408AF
:101140000A4810B50078C0070ED1084800F070F9C1
:1011500050B107480021074A016041600649EFF796
:1011600053F90248AFF30080014810BDBC020020D3
:10117000C0020020000000088D960208EFF7CDB8ED
:1011800009B214F0B9BA70B591ED020B0C460568BE
:1011900051EC100BEFF739FB94ED000B064651ECC8
:1011A000100BEFF732FB0146324605F1A000FAF7CB
:1011B0007FFA94ED020B51EC100BEFF726FB94ED48
:1011C000000B064651EC100BEFF71FFB01463246B1
:1011D0002846BDE87040FBF792BDC068FBF7CBBD69
:1011E00010B500F001F810BD10B500F039F910BDD0
:1011F00010B500F001F810BD10B5040007D10124AE
:1012000005E0EFF71FFC006800B90448804720465E
:1012100001F056FB0028F4D010BD00003909000889
:1012200070B50C00054608D00846EFF794F8024662
:1012300021462846FCF742FC10B92846FCF7FEFB85
:10124000284670BD10B58A6804460968FCF736FC6C
:1012500010B92046FCF7F2FB204610BD0FB4024641
:1012600010B504A9034B039803F06EFF10BC5DF8A2
:1012700014FB00008BBA01080FB41CB50246002015
:1012800007AC00290BD0491ECDE90021054B6A4669
:101290002146069803F058FF009A002111701CBCEB
:1012A0005DF814FB775801080FB4084B10B504A97A
:1012B00002AA039803F048FF044602A9002004F0A4
:1012C000E5FA204610BC5DF814FB00008D580108BB
:1012D0007CB5044600201D46164600290BD0491E49
:1012E000CDE90041044B6A462946304603F02CFF05
:1012F000009A002111707CBD775801082DE9FF4D3F
:1013000082B08B46824601200F9990460AFB0BF66D
:10131000009006B901261446301911B1884720B152
:1013200001E0FFF765FF044400E0002484B1B8F158
:10133000000F01D044E902BA059848B100252746BC
:1013400004E00599384688475F446D1C5545F8DB35
:1013500006B02046BDE8F08DAFF300800E9828B1AE
:1013600003465A4629463846F0F7EAFA009860B133
:10137000109AA4EB080006EB0801904705E0AFF3D4
:101380000080EFF78FFCAFF30080F0F731F903B482
:1013900001984100009850EAC12018BF04204A0D6E
:1013A00018BF40F0010040F2FF72B2EB515F08BF7E
:1013B00040F00200012808BF052002B0704741003C
:1013C000080218BF04200A0E18BF40F001004FF0B9
:1013D0007F4232EA010108BF40F00200012808BF45
:1013E000052070470907090E002804DB00F1E02002
:1013F00080F80014704700F00F0000F1E02080F842
:10140000141D70470048704770020020002804D067
:10141000A0F108020CCAF0F7ECB8704738B50C46DA
:101420000093134601460822204600F00DF838BD0F
:10143000016809B10020704701210160084670472A
:101440000020EFF709BB0000FEB5044E089C002504
:101450008DE87000FFF752FFFEBD0000E1110108AA
:1014600030B528B1144C031F002021680A4605E05E
:10147000084630BD9A4203D810465268002AF9D176
:10148000002800D041680BD00468A3EB0005A542FA
:1014900004D11B681C440346046002E0436000E082
:1014A00023603AB11C68D51AA54203D115682C44B3
:1014B0001C6052685A6030BD6802002000000000C5
:1014C00070B59B482DED020B2DED068B079D25F089
:1014D0000044A04218DC9748844202DC0AD10698F6
:1014E00040B19DED060BBDEC068B02B0BDE870402F
:1014F00001F026BA002DCCBF9FED8F0B9FED900B16
:10150000BDEC068B02B070BD8F48A04215DD8F4840
:10151000A042D8BF4FF0FF3458DD9DED060B51ECD3
:10152000100BFFF734FF042808BF01F02DFA9DEDE2
:10153000060BBDEC068B02B070BD9DED060B51ECA9
:10154000100B09F0E3F9CDE9060181489FED828B8C
:10155000A0423CDD8248A0421FDD00249FED82AB0B
:101560009DED060B53EC1A2B51EC100BEEF763FFBD
:101570009DED060B41EC190B53EC1A2B51EC100BA3
:10158000EFF700F853EC182BEEF7F6FF53EC192B9E
:10159000EFF76AF8CDE9060149E09DED060B01245D
:1015A00053EC182B51EC100BEEF745FF9DED060B9D
:1015B00041EC190B53EC182B51EC100BEEF7DCFF40
:1015C00053EC192BEFF750F8CDE906012FE06848EE
:1015D000A0421FDD02249FED689B9DED060B53EC9E
:1015E000192B51EC100BEEF7CDFF53EC182BEEF747
:1015F00022FF9DED060B41EC180B53EC192B51EC1F
:10160000100BEEF7B9FF53EC182BEFF72DF8CDE9DF
:1016100006010CE09DED060B032453EC102B9FED0F
:10162000580B51EC100BEFF71FF8CDE906019DEDBB
:10163000060B53EC102B51EC100BEEF7A3FF41EC13
:10164000180B53EC182BEEF79DFF41EC190B4E488D
:101650000621B0EE490AF0EE690A784401F01CF860
:1016600053EC182B51EC100BEEF78CFF41EC180BE0
:101670004648B0EE490AF0EE690A0521784401F0C7
:101680000BF853EC192B51EC100BEEF77BFF41ECF0
:10169000100B51EC180B53EC102B002C0EDAEEF75C
:1016A000CAFE9DED061B53EC112BEEF76BFF9DED73
:1016B000061B53EC112BEEF762FF35E0EEF7BBFE95
:1016C0009DED061B53EC112BEEF75CFF41EC100B6C
:1016D0002F48784400EBC40090ED001B51EC100B38
:1016E00053EC112BEEF748FF9DED061B53EC112B2D
:1016F000EEF742FF41EC100B2648784400EBC400A3
:1017000090ED001B51EC100B53EC112BEEF737FF53
:1017100041EC100B002DA2BFBDEC068B02B070BDDA
:1017200051EC100B81F0004141EC100B01E700007F
:10173000000010440000F07F182D4454FB21F93FB5
:10174000182D4454FB21F9BF0000DC3F0000203E6F
:101750000000F33F00000000000000000000F03F28
:101760000000E63F00000000000000000000004014
:101770000080034000000000000000000000F83F6F
:10178000000000000000F0BF4A070300000703004C
:101790008A0603004206030070B56B4E2DED040B64
:1017A0002DED028B82B0DDF81CC0DDE905235C4223
:1017B0002CF000411C4341EAD474049D22F0004007
:1017C000B44205D86C422C4340EAD474B4420BD9DD
:1017D0009DED061B9DED040B02B0BDEC028B04B029
:1017E000BDE8704001F0B6B8ACF14054A4F17F649C
:1017F0001C430BD0022404EAAC7444EAD2740543BF
:101800009FED538B9FED542B07D015E09DED040BFE
:1018100051EC100B04F094FB42E0002C11BF012CA2
:101820009DED040B02B0BDEC028B04BF04B070BD93
:10183000022C38D0032C3BD00B439FED491B9FED6E
:101840004A0B0AD0B14218D1B04209D121F08041EF
:1018500020F08040079105900FE0002A15DA10E093
:10186000434B7B44002C08BF93ED000B0DD0012CA3
:1018700010D0022C17D0032C1AD0B0421DD1002A50
:1018800003DAB0EE410AF0EE610A02B0BDEC028B61
:1018900004B070BD93ED000B51EC100B81F00041D2
:1018A00041EC100BF1E7B0EE480AF0EE680AECE705
:1018B000B0EE420AF0EE620AE7E7401A00153C2853
:1018C000C8BF8DED000B19DCBCF1000FBEBF10F1DD
:1018D0003C0F9FED290B8DED000B0FDB9DED060BF3
:1018E00053EC102B9DED040B51EC100BEEF7BCFEEE
:1018F00009F00CF804F024FBCDE90001002C08BF2E
:101900009DED000BC1D0012C10D0022C9FED1C0BC3
:1019100053EC102B9DED000B51EC100B0DD0EEF79E
:101920002BFE53EC182BEEF727FEB9E7019880F059
:10193000004001909DED000BA7E7EEF71DFE53EC74
:10194000182BEEF71CFEABE70000F07F0000000054
:10195000182D4454FB210940182D4454FB2109C083
:10196000182D4454FB21F9BF182D4454FB21F93F95
:10197000C20603000000000000000000000000009C
:10198000075C143326A6A13C10B52F499FED2C1BF4
:101990002DED020B84B0059820F000408842D8BF9E
:1019A0009DED040B2DDD2949884209D1049840B9E9
:1019B0004FF0010001F0C6F800F0D6FF06B010BDF0
:1019C00005DB9DED040B00F0BBFF06B010BD6846C3
:1019D0009DED040B00F08CFB10F0030004BF9DEDA7
:1019E000021B9DED000B0CD001280ED09DED021BBB
:1019F0009DED000B022817D0012000F0C9FE06B0B3
:101A000010BD00F091FD06B010BD9DED021B9DEDD7
:101A1000000B012000F0BCFE51EC100B81F00041E6
:101A200006B041EC100B10BD00F07EFD51EC100B28
:101A300081F0004106B041EC100B10BD0000000029
:101A40000000000000000000FB21E93F0000F07FE3
:101A500070B5D94B00242DED020B2DED108BDDE977
:101A60001010984205DA20F000429A4201D809D1BC
:101A700041B19DED100BBDEC108B02B0BDE8704084
:101A800000F05EBFB0F5801F26DA11430BD00028AE
:101A900013DA012001F056F8BDEC108B02B0BDE85E
:101AA000704000F061BF022001F04CF800F030FF00
:101AB00051EC100B81F000419EE06FF035049FED7A
:101AC000C00B53EC102B9DED100B51EC100BEEF7EF
:101AD00059FDCDE91001084604EB2051C0F3130471
:101AE000B948A1F2FF31204400F4801080F07F62F9
:101AF00082F04052224301EB20559FEDB50B11922D
:101B000053EC102B9DED100B51EC100BEEF734FD48
:101B100041EC180BA01CC0F313009FEDAFDB9FED51
:101B2000B0EBB14E7E4403286CD296ED000B51EC25
:101B3000180B53EC102BEEF7B3FE1DD1002D01BF97
:101B400096ED000BBDEC108B02B070BD2846EEF791
:101B50001EFE41EC180B53EC1D2BEEF713FD41EC70
:101B6000190B53EC1E2B51EC180BEEF70BFD53EC3D
:101B7000192BEEF760FC3FE09FED9D0B51EC180B2D
:101B800053EC102BEEF7FEFC9FED9B1B53EC112B3F
:101B9000EEF7F5FC41EC190B53EC182B51EC180B3C
:101BA000EEF7F0FC53EC192BEEF7ECFC41EC190BC3
:101BB000002D04BF53EC192B51EC180B1AD02846FA
:101BC000EEF7E5FD41EC1A0B53EC1D2BEEF7DAFCBA
:101BD00053EC192BEEF7D3FC53EC182BEEF7CCFC9F
:101BE00041EC180B53EC1E2B51EC1A0BEEF7CAFC10
:101BF00053EC182BEEF7C0FCBDEC108B02B041EC9F
